:020000040800F2
:1000000040080020D5000008A9270008E5230008C3
:1000100000000000000000000000000000000000E0
:10002000000000000000000000000000112A00088D
:10003000000000000000000049280008132A000802
:10004000E7000008E700000829290008E700000889
:10005000E7000008E9020008F3020008E7000008D2
:1000600000000000E7000008E7000008E7000008C3
:10007000E7000008E700000800000000FD2B000872
:100080000000000000000000000000000000000070
:10009000992B000800000000D12B0008E7000008A1
:1000A00000000000E7000008000000000000000061
:1000B0007D310008E700000800000000000000009B
:1000C0000348854600F096F8004800472D350008A3
:1000D000400800200448804704480047FEE7FEE748
:1000E000FEE7FEE7FEE7FEE7CD2A0008C1000008B4
:1000F00030B50B46014600202022012409E00D46C0
:10010000D5409D4205D31D469540491B2546954047
:1001100040191546521E002DF1DC30BD70B500248B
:100120002546002801DA01244042002901DA012590
:100130004942FFF7DDFFAC4200D04042002C00D026
:10014000494270BDF0B51FB40646002082B0054696
:100150004024019100901BE0019922460F46304651
:1001600000F037F8049A059B801A994110D3104685
:100170001946224600F01DF8361A8F410197224693
:1001800001200021009F00F014F838184D41009024
:100190002046641E0028DFDC019B00982946324679
:1001A00007B0F0BD421C0178401C0029FBD1801A29
:1001B000704710B5202A04DB0146203A9140002008
:1001C00010BD914020239C1A0346E3401943904000
:1001D00010BD10B5202A04DB0846203AD04000218B
:1001E00010BD0B46D340D0402024A21A91400843B2
:1001F000194610BD064C0125064E05E0E36807CC04
:100200002B430C3C98471034B442F7D3FFF75CFF04
:100210002C6000084C60000838B5044606480549C3
:100220000068FFF765FF604300E0401E0090002873
:10023000FBD138BD40420F0070000020F8B50446E5
:10024000006881688907890F012902D10168C907FF
:1002500022D18168114A10261140012500290ED1B2
:100260008168294381600120FFF7D6FF00F0A2FCDE
:1002700007460CE000F09EFCC01B0A2807D9A06DC1
:100280003043A065E06D2843E0650120F8BD20689B
:100290000068C043C007EDD10020F8BD1700008002
:1002A0007EB5FF226B461A701A710E4B0022DC1DC0
:1002B000F9340EE06E46855C3679754002956E46DF
:1002C0005D5D367875406E463571029D655D3570B1
:1002D000521C491EEED2694608780979000208438B
:1002E0007EBD0000C65D000810B5022000F0A6FB30
:1002F00010BD10B5082000F0A1FB10BD10B50849D5
:1003000000234B6107494A684C1522434A604A68FA
:10031000082422434A60C009C001036010BD0000E8
:10032000240400200020024010B5214A00209169D9
:10033000CB05204904D5486902231843486190152C
:1003400093699B0505D54B69012423434B616302E7
:10035000184393695B0505D54B69082423434B611A
:10036000E301184393691B0505D54B690424234316
:100370004B616302184393699B0405D54B691024B4
:1003800023434B616302184393699B0304D54C6973
:1003900020231C434C6118439369DB0305D54B694B
:1003A000402423434B61A1020843906110BD00002B
:1003B000002002402404002070B5044600F0FAFB3F
:1003C0000546184E0AE0601C08D0002C04D000F04E
:1003D000F1FB401BA04201D9032070BDB069C007EA
:1003E000F1D1B069800701D50220B061B069C005C4
:1003F00011D4B06980050ED4B06940050BD4B06942
:10040000000508D4B069800405D4B069800302D423
:10041000B069C00303D5FFF787FF012070BD00203E
:1004200070BD000000200240F0B585B000200490AF
:100430002548027AC17A12068918427A837A120410
:100440001B02D2188C18017B427B09061204891802
:10045000C27B12028D181D494E7F817C0391017C65
:10046000407C09020F1800F0C9FA002000901848DB
:1004700001900220029004A9684600F05DFA00286D
:1004800001D000F093FA22461149022000F098FAB8
:100490000F492A46091D022000F092FA0C49324603
:1004A0000831022000F08CFA094902200C31039A2D
:1004B00000F086FA06493A461031022000F080FA30
:1004C00000F074FA05B0F0BD7802002000000020B2
:1004D000007F0008F8B505460C464035297D012906
:1004E0000DD00121297501688A68520709D5816DEF
:1004F000202211438165002028750120F8BD0220CB
:10050000F8BD174B6268D80547109A42154E8A6AA3
:10051000236812D05B035B0B1A438A62216849038C
:1005200005D5B1680143B1600A20FFF775FE206868
:10053000800312D5B06838430EE05B035B0B9A432F
:100540008A622168490302D5B1688143B16020689D
:10055000800302D5B068B843B06000202875F8BDAC
:1005600001100000002701400068006C7047000087
:1005700070B5040006D0A06D254600264035002841
:1005800002D006E0012070BDE6652E75204600F021
:10059000D1F8A06DC00603D420688168490705D54D
:1005A000A06D10210843A0652E75EBE7A16DFF2219
:1005B0000132914302221143A16581685B4A890798
:1005C000890F012902D10168C9072BD10323616872
:1005D0009B07994205D05B42994202D05B00994249
:1005E00009D101698900890801612068016963688E
:1005F000194301610CE00169890089080161906873
:100600000F21890488439060906861680843906076
:100610002068C16818239943C1602068C168A36835
:100620001943C16090680121490688439060906831
:10063000218F49060843906020688168C90004D46E
:10064000816801221207114381602068C168384A1D
:100650001140C1602069E168022823D000200143D5
:10066000206A226B4003520010430143606B014338
:10067000A06980030143E069C00301432068C268A8
:100680001143C160A06A0146FF39C23905D0E16A51
:1006900008432168CA681043C860606A01210128C4
:1006A00002D00BE00420DAE7206A002823D0A06DF6
:1006B00020221043A065E06D0843E065206C01280E
:1006C00020681FD00169C90703D0016949084900A2
:1006D000016120684169C908C90041612068416918
:1006E000E26B11434161E665A06D80088000401C0B
:1006F000A065002070BD2068C26801231B041A4356
:10070000C260DBE70269FF239B009A430261206815
:100710000269636CE56C1A43A36C2B431A430261B4
:10072000206802690A430261D3E700000027014004
:100730001902FEFF00B500680A4985B088420FD152
:100740000948416B4215114341631020009003207A
:1007500001900020029005206946000700F07AF918
:1007600005B000BD0024014000100240F8B5044669
:100770004069274640370D4608280BD02068C068DE
:10078000C00709D0A06D20210843A065002038755E
:100790000120F8BD082600E00C2600F00BFA0090BE
:1007A00011E0681C0FD0002D05D000F003FA00996D
:1007B000401AA84207D9A06D04210843A065002073
:1007C00038750320F8BD206800683042E9D0A06D7C
:1007D000012149020843A0652068C1680C2209056F
:1007E000890F00291AD1216A002917D10168090748
:1007F00014D5816801234907002908DB416891432A
:100800004160A06D190288431843A06506E0A06D01
:1008100020210843A065E06D1843E065A069002829
:1008200001D1206802600020F8BD000070B50446C8
:10083000216800208968490721D425464035297D53
:1008400001291CD001212975E169012904D0204624
:10085000FFF7F4FC002811D1A16D0A4A1140FF22D4
:1008600001321143A1650021E165297522681C212F
:10087000116021688A6804231A438A6070BD0220CF
:1008800070BD0000FEF1FFFF70B50024024620326B
:100890005179022903D00421C16301243CE001689D
:1008A0000B680E25AB430B6001680B685B085B00AF
:1008B0000B601A4B0168994201D1012121E0174BCD
:1008C0001433994201D110211BE0144B2833994273
:1008D00001D1891515E0114B3C33994201D189149E
:1008E0000FE00E4B5033994202D10121090408E078
:1008F0000A4B6433994202D10121090501E001212B
:100900000906064B083B5960012151710021117104
:10091000816B002900D08847204670BD0800024046
:1009200031B500F047F9044600F044F90099001B86
:100930008842F9D338BD0000F8B5194F0546387C18
:100940000E46012807D0012038741648FFF734FD01
:10095000002802D020E00220F8BD0021C943316008
:100960006C6813E02046FFF7C9FC0E48FFF724FD32
:100970000D494A6808239A434A604A684B159A43CE
:100980004A60002801D0346006E08034A9686A68B3
:10099000C9018918A142E5D800213974F8BD0000C9
:1009A0002404002050C30000002002400348416896
:1009B00002221143416000207047000000200240E5
:1009C000F8B50C4C1646207C0F46012808D00120B3
:1009D00020740948FFF7F0FC0025002802D006E04B
:1009E0000220F8BD65613E600348FFF7E5FC257411
:1009F000F8BD00002404002050C3000009484168ED
:100A000089070CD54168C90703D00749C160074968
:100A1000C160074901610749016100207047012059
:100A20007047000000200240EFCDAB8905040302AF
:100A3000BFAE9D8C161514137047000010B5044905
:100A40004A69024202D04861FFF7F6FF10BD00007C
:100A500000040140F0B500228DE001249440A4463A
:100A600023407DD04C68022C01D0122C0CD1D4082C
:100A7000A40027183D6A5407E40E0F26A640B5438C
:100A80000E69A6402E433E624C68012C05D0022C14
:100A900003D0112C01D0122C11D1856854000326EB
:100AA000A640B543CE68A6402E438660446865469E
:100AB000AC430D79ED06ED0F954025434560076881
:100AC00054000325A5400E79AF43B607B60FA640E4
:100AD0003E430660C668AE438D68A5403543C56099
:100AE0004C68E40046D5274C666B01252E436663AF
:100AF0009508254CAD002F19BD689407240F0F26CB
:100B0000A640B54305263607B04201D100260FE0C6
:100B10001E4EB04201D101260AE01D4EB04201D165
:100B2000022605E01B4EB04201D1052600E0062654
:100B3000A6402E43BE60184D2C684E689C43F603B9
:100B400000D51C432C606C684E689C43B60300D5EE
:100B50001C436C60AC684E689C43F60202D500E012
:100B600008E01C43AC60EC684E689C43B60200D5BC
:100B70001C43EC60521C0B681C46D44000D06CE750
:100B8000F0BD0000001002400000014000040050D1
:100B900000080050001C005000040140006908409B
:100BA00000D001207047002A01D081617047816226
:100BB0007047000001480068704700006C0000208A
:100BC00070B504000FD021681348086021681348ED
:100BD000086003CC41602068083C21688860FFF70A
:100BE000E9FF054608E0012070BDFFF7E3FF401B69
:100BF000302801D9032070BD2068C0680028F4D1D6
:100C000020680269E1688A4201D0016101E004497B
:100C10000160002070BD0000CCCC000055550000E4
:100C2000AAAA000000680249016000207047000085
:100C3000AAAA000002480168491C01607047000030
:100C40006C00002010B50648016840221143016085
:100C5000002000F007F800F019F8002010BD000097
:100C60000020024010B5044607487D21C9000068F5
:100C7000FFF73EFA01F09CF800222146501E00F0DA
:100C80002BF8002010BD00007000002010B50C48AB
:100C9000416B012211434163816B02041143816363
:100CA00000221146501F00F017F800221146901E36
:100CB00000F012F800221146501E00F00DF810BD91
:100CC00000100240C106C90E012088400149086099
:100CD0007047000000E100E010B501F093FD10BD89
:100CE000024801680215114301607047007000401E
:100CF00002480168421511430160704700700040CE
:100D0000024801688215114301607047007000407D
:100D10000A4B1A689208920002431A600848026956
:100D200004231A430261012906D040BF20BF20BF1F
:100D3000016999430161704730BFF9E700700040D5
:100D400000ED00E0F8B53E4D014601230020DB0335
:100D50003A4C3B4A4035022932D0042949D008296F
:100D60005AD020290AD12C69296903252D0429404C
:100D70005E00B14203D1A60501D51846F8BD012396
:100D80005B04994203D1A30701D52E48F8BDA942BF
:100D9000FCD111688903F9D51068032109050840C1
:100DA00001210905401A09D0401A05D0884201D115
:100DB0002548F8BD2548F8BD2548F8BD2548F8BDAB
:100DC000E9680C26314009D008290AD004290DD041
:100DD0000C29F4D129698905CFD4F8BD00F0A6F912
:100DE000F8BD11684907FBD52046F8BD00F0BEF9F3
:100DF000F8BDE9680326B6023140EFD00127FF02B3
:100E0000B94202D112685207EED4012292029142F5
:100E1000ECD0B142DED0F8BDE96803231B031940D2
:100E2000DCD001235B03994202D112685207DBD464
:100E3000012212039142D9D0F8BD00000024F40031
:100E4000001002408890000020A1070000093D002A
:100E500040420F0080841E00F8B504460078534DD0
:100E600080067AD5514800264038806BC00006D4F1
:100E70004E484038816B02041143816301264C487F
:100E80000168C90510D40168821511430160FFF79C
:100E900091FE074604E0FFF78DFEC01B64283AD898
:100EA00043480068C005F6D5404840380068032133
:100EB000090562680840114081420AD09003800F02
:100EC000032806D1394840380068800301D5012045
:100ED000F8BD286903210904084021D00A40824254
:100EE0001ED0207880061BD528692A6988430121F5
:100EF000C9040A432A612A698A432A612861C00514
:100F00000ED5FFF757FE074607E0FFF753FEC11B5C
:100F10002848814201D90320F8BD28698005F4D50D
:100F200060688103890F032908D1204B403B196871
:100F300003221205914310400143196028690322DE
:100F400061681204114008432861002E05D017483B
:100F50004038826B01048A4382632078800705D57C
:100F6000E8680C218843A1680843E86020784007BE
:100F700006D5E868032189028843E1680843E860F0
:100F80002078000706D5E868032109038843216912
:100F90000843E8602078000606D5E8680321890444
:100FA000884361690843E8600020F8BD40100240B2
:100FB0000070004088130000F8B5044653480E4600
:100FC0000068C007C00FB0420AD250480168490803
:100FD0004900314301600068C007C00FB0426FD1C3
:100FE00020784B4F800705D5F868F0218843A16829
:100FF0000843F8602078C00752D06068022817D0F4
:10100000032818D03968012818D08905002957DA33
:10101000F968890889000143F960FFF7CBFD0546AF
:101020006068022812D003281CD0012826D033E0A3
:1010300039688903EAE739688901E7E74907E5E79D
:10104000FFF7B8FD411B3348814223D8F8680007F9
:10105000800F0228F4D123E0FFF7ACFD411B2D489F
:10106000814217D8F8680007800F0328F4D117E0F1
:10107000FFF7A0FD411B274881420BD8F868000705
:10108000800F0128F4D10BE0FFF794FD411B2148AC
:10109000814201D90320F8BDF8680007800FF3D121
:1010A0001A480168C907C90FB1420BD9016849083C
:1010B0004900314301600068C007C00FB04201D051
:1010C0000120F8BD2078400706D5F86807210902FD
:1010D0008843E1680843F8602078000707D5F8687E
:1010E0000721C90288432169C9000843F86000F05C
:1010F0003DF8F968084A0906090F515CC8400749DC
:1011000008600020FFF7AEFD0020F8BD002002407F
:1011100000100240881300000860000870000020E2
:10112000014800687047000070000020044805492D
:101130000068C968044A4905490F515CC8407047B6
:10114000700000200010024021600008044805499A
:101150000068C968044A8904490F515CC840704757
:1011600070000020001002402160000810B5194AEC
:10117000D1680C230846184004280BD0082810D04A
:101180000C2810D050680004410F0120C003491CF6
:10119000884010BD1068C00601D50F4810BD0F482B
:1011A00010BD0F4810BD88020E4B000F185C0902DD
:1011B000D368890F491CDB0301D5094A05E0126891
:1011C000D20601D5044A00E0044A5043FEF790FFDE
:1011D00010BD00000010024000093D000024F40092
:1011E00000127A0018600008F8B504460078F24E44
:1011F000C00749D0F0680007800F022807D0F068C8
:101200000007800F032809D1F068C00306D53068B5
:10121000800339D56068002872D035E0012160680C
:101220000904884202D13068084310E005230122F6
:101230001B0492049842306802D110433060F2E7F8
:1012400088433060306808400090306890433060D8
:10125000606800280CD0FFF7ADFC054604E0FFF7FE
:10126000A9FC401B64287DD830688003F7D50BE0CB
:10127000FFF7A0FC054604E0FFF79CFC401B642838
:10128000F1D830688003F7D42078800741D5F06822
:101290001F270007800F3F02012807D0F0680007D2
:1012A000800F032809D1F068C00306D430684007D6
:1012B00017D5E068012823D113E0E068002817D093
:1012C00031680922914301433160FFF773FC054601
:1012D00004E0FFF76FFC401B0228C4D830684007C9
:1012E000F7D570682169B84309020843706010E0BF
:1012F0003068400840003060FFF75CFC054605E0C0
:1013000099E0FFF757FC401B0228ACD83068400733
:10131000F7D42078C00676D5F068A84F0007800F74
:101320000BD0A06900285DD03068FF21013108434F
:101330003060FFF73FFC054644E03068800502D589
:10134000A069002877D0206A71683940884212D994
:1013500001F082FA0028AED17068216AB8430843D0
:10136000706000E0BDE07068217F0002000A09069D
:10137000084370600FE07168B943014371607068A1
:10138000217F0002000A090608437060206A01F00C
:1013900063FA00288FD1206A410B0120C003491C49
:1013A0008840F16809060A0F8549895CC84085496B
:1013B00008600020FFF756FC25E0FFF7FBFB401B11
:1013C00002288AD830688005F7D57068216AB8434A
:1013D000084370607068217F0002000A0906084314
:1013E000706010E03168FF20013081433160FFF709
:1013F000E1FB054604E0FFF7DDFB401B022870D847
:1014000030688005F7D420786F4D000723D56069D8
:101410000028286910D0012108432861FFF7CAFB82
:10142000074604E0FFF7C6FBC01B022859D828690D
:101430008007F7D50FE0BCE0400840002861FFF7C7
:10144000B9FB074604E0FFF7B5FBC01B022848D8EC
:1014500028698007F7D42078400762D500200090E3
:10146000B06BC00006D4B06B012109070843B0631C
:101470000120009055480168C90510D40168821503
:1014800011430160FFF796FB074604E0FFF792FB6C
:10149000C01B642825D84D480068C005F6D5FF203C
:1014A000A1680130814203D129690143296111E01A
:1014B00001229202002907D005231B02994203D181
:1014C000296911432961EFE7296981432961286965
:1014D00090432861A06800280ED0FFF76BFB0746F9
:1014E00006E05FE0FFF766FBC11B3948814259D82F
:1014F00028698005F6D50CE0FFF75CFB074605E0A0
:10150000FFF758FBC11B324881424BD82869800540
:10151000F6D40098002804D0B16B01200007814365
:10152000B163606A002842D0F1680907890F032976
:101530003FD001273F060228306805D0B84330600D
:10154000FFF738FB04462FE0B8433060FFF732FB6B
:10155000054604E0FFF72EFB401B022822D8306826
:101560008001F7D4E16AA06AF2680843216BFD2389
:101570001B049A4311430843F060306838433060DD
:10158000FFF718FB044604E0FFF714FB001B0228DA
:1015900008D830688001F7D509E0FFF70BFB001B86
:1015A000022801D90320F8BD30688001F5D400205D
:1015B000F8BD0120F8BD00000010024000E000006E
:1015C00008600008700000204010024000700040D9
:1015D00088130000FFB581B016460F46040005D001
:1015E00025466035687A002803D007E0012005B061
:1015F000F0BD00202872204600F012FE2420687200
:1016000020680168490849000160606A002802D02A
:10161000204601F066FB204601F050FC0128E6D090
:1016200020688168012292031143816020688168EB
:1016300052009143394381600499700509040143C4
:1016400020680268064B1A400A430260206801685D
:10165000012211430160204601F0A8FBC7E700000A
:10166000FFFF00FC006889005030081800687047D0
:10167000006889005030081802607047F8B50546C8
:10168000044620352878012819D00120287002202E
:1016900068702168CA204862216853204862206827
:1016A0008168012292029143816020688168120161
:1016B00091438160FFF77EFA064600270FE0022083
:1016C000F8BDFFF777FA811B7D20C000814206D963
:1016D0002168FF204862032068702F70F8BD2068E1
:1016E000C0684007EDD52168FF204862012068707E
:1016F0002F700020F8BD0000F7B5054604462035E0
:101700002878012813D001202870022068702168F1
:10171000CA204862216853204862206880680027F8
:101720004005002810DAFFF745FA064608E00220D7
:10173000FEBDFFF73FFA811B7D20C00081421BD810
:101740002068C0684007F4D42068826801218902BB
:101750008A4382602068C16880221140204A89182B
:10176000C160FFF727FA06460DE0FFF723FA811B59
:101770007D20C000814206D92168FF2048620320F5
:1017800068702F70FEBD2068C0684007EDD52168E5
:101790000198486120688168C908C9008160206893
:1017A0008168029A114381600E4801680122120586
:1017B0001143016081681143816020688168921142
:1017C0001143816020688168121111438160216892
:1017D000FF204862012068702F700020FEBD0000CD
:1017E0007FFBFFFF0004014002480168042211430F
:1017F000016070470070004010B504460068C06882
:10180000400509D52046FFF7EFFF2068C168802218
:101810001140054A8918C16001200449000548614A
:1018200001202034607010BD7FFBFFFF00040140E9
:1018300010B500680B464068C021C9430140000252
:10184000000ECC04D870E40E5C708C06A40E090463
:10185000490F9C701970002A0AD101F035F8D87030
:10186000587801F031F85870987801F02DF8987098
:10187000002010BD30B50B460168896A59600168C7
:1018800009694904490C9960006804680F482146B9
:10189000014088024D04800E18706D0E49065D707F
:1018A000490E99706102490E40242140D970002AE6
:1018B0000AD101F009F81870587801F005F858704D
:1018C000987801F001F89870002030BD7F7F7F008C
:1018D00070B5040005D0254620356878002802D070
:1018E00006E0012070BD00202870204600F042F87C
:1018F000022068702168CA2048622168532048622B
:10190000204600F0F4FFFF210028206803D0416248
:1019100004206870E5E78268154B1A4082602068F1
:1019200082686368A6691A43236933431A43826055
:101930002268E06810612068026923891B041A4349
:1019400002612068C26880239A43C2602068C26C2A
:1019500092089200C264E269606902432068C36C25
:101960001A43C2642068416201206870002070BD83
:10197000BFFF8FFF00680549884205D1044801690F
:1019800001229204114301617047000000280040C9
:1019900040100240F8B505460446203528780B462D
:1019A000012822D001202870022068705878002A6F
:1019B0001DD000F089FF987800F086FFD8789E78D7
:1019C0000004064358781978000249030843064387
:1019D0002168CA204862216853204862204600F0EE
:1019E00086FF002700282AD117E00220F8BDC10693
:1019F00003D5EF2108400A305870D87800F06CFF0A
:101A00000604587800F068FF00020643987800F05A
:101A100063FF064318784003D9E711480640206861
:101A200046602068C16880229143C1602068806858
:101A300080060CD4204600F08DF8002807D02168DD
:101A4000FF204862042068702F700120F8BD2168D3
:101A5000FF204862012068702F700020F8BD000050
:101A60003FFFFF00F8B506460446203630780D46A5
:101A700001280ED0012030700220707020680027ED
:101A80008068002A07D040061AD5287800F01CFF8D
:101A900017E00220F8BD400600D4EF70287800F06F
:101AA0001BFF0204687800F017FF00020243A878C9
:101AB00000F012FF0243E8780004024300920BE0BA
:101AC000EF702978A878090408436978EA78090250
:101AD00012041143084300902168CA20486221681B
:101AE00053204862204600F002FF00281FD1184909
:101AF00000980840216808602068816801229204EB
:101B000091438160E9682869014320688268114334
:101B100081602068C16880229143C160206880682C
:101B200080060CD4204600F015F8002807D0216864
:101B3000FF2048620420707037700120F8BD2168D2
:101B4000FF2048620120707037700020F8BD00004F
:101B50007F7F7F0070B505460068C168A022914371
:101B6000C160FFF727F87D260446F60006E0FFF780
:101B700021F8001BB04201D9032070BD2868C0685D
:101B80008006F4D5002070BD70B5040006D025464F
:101B90004035687C0026002802D005E0012070BD99
:101BA0002E74204600F02EF8022068742068016828
:101BB000402291430160A168606822690843E1689E
:101BC00011430843616901220843A169520211408F
:101BD0000843E1690843216A0843A16A0843216870
:101BE0000860A0690421000C0840616A084321686C
:101BF00048602168E06A0861666501206874002019
:101C000070BD000000B500680C4985B0884212D153
:101C10000B48416B821411434163E0200090022085
:101C20000190002103200390029104910520694650
:101C30000007FEF70FFF05B000BD000000300140B7
:101C400000100240FFB5054604464035687C81B06F
:101C5000012872D100293CD0002A3AD0287C0128E2
:101C60006BD00120287412206874002767652163F7
:101C7000A286E286E764A764A763A787E7870126B1
:101C8000A06A7603B04207D120680168B1430160C1
:101C900020680168314301600121A068C9038842BE
:101CA00005D1206801680122920311430160206878
:101CB0000168490603D40168402211430160E068CD
:101CC0000028606808D0002820D0E08E01281DD0B0
:101CD00026E0012005B0F0BD002802D0E08E0128EA
:101CE00008D1206B411C216321680078C860E08E18
:101CF000401EE086E08E002820D0002202212046EF
:101D0000049B00F019FE002815D1EAE7206B21683A
:101D10000088C860206B801C2063E08E401EE08637
:101D2000E08E00280AD0002202212046049B00F009
:101D300003FE0028EAD00320CCE729E0A06AB042E5
:101D400005D12068016801221203114301600022BD
:101D500002212046049B00F0EFFD2026002807D139
:101D6000012280212046049B00F0E6FD002803D0DC
:101D7000606D30436065DEE7A068002803D120680D
:101D8000C16880680090012068742F740020A1E76A
:101D900002209FE7042204490428086902D09043E6
:101DA000086170471043FBE700E000E07047000067
:101DB000094910B5401E884201D9012010BD074CC9
:101DC00060610321081F00F01DFD0020A0610720B5
:101DD0002061002010BD0000FFFFFF0000E000E0D8
:101DE00010B5FFF7E3FF10BD70B502462032137D3A
:101DF000012B1BD0012414750223537503685D6801
:101E00007026B5435D6003685D680E6835435D60AC
:101E100003689D688026B5439D60006883684968B3
:101E20000B43836054750020107570BD022070BD97
:101E300070B5040005D025462035687D002802D005
:101E400006E0012070BD00202875204600F00AF849
:101E500002206875211D206800F0E4FE01206875ED
:101E6000002070BD006801218907884204D1034821
:101E7000816B012211438163704700000010024012
:101E80000168CA6801231A43CA60006801681943DF
:101E900001600020704700000168CA6852085200C3
:101EA000CA600068016A044A114203D10168490806
:101EB000490001600020704711110000F8B5054687
:101EC00004462035287D012817D001272F750220D0
:101ED0006875206882687726FF23B2431B029A4305
:101EE00082600868502836D00EDC202856D006DCE8
:101EF00000284DD010283FD14DE00220F8BD3028F9
:101F00004FD0402838D13BE060282CD0702816D024
:101F100001221203801A0DD090422DD1CB684A685D
:101F20008968206800F0A6FE20688168012292037B
:101F300011430EE020688168C908C90009E0CB6838
:101F40004A688968206800F095FE20688168B1437E
:101F50003143816010E0CA684968206800F09DFE46
:101F60005021206806E0CA684968206800F0A6FE93
:101F70006021206800F089FE6F7500202875F8BD8B
:101F8000CA684968206800F088FE40212068F1E7AF
:101F900000212068EEE710212068EBE7202120686F
:101FA000E8E730212068E5E7704770B5044600682F
:101FB00001690025C9438907002915DBC168C943A8
:101FC000890711D4E91E016101202075206880690C
:101FD0008007204602D0FFF7E7FF04E000F078F822
:101FE000204600F076F8257520680169C943490745
:101FF00017D4C168C943490713D40421C9430161F7
:1020000002202075206880698005800F204602D05C
:10201000FFF7CAFF04E000F05BF8204600F059F833
:10202000257520680169C943090716D4C168C943E9
:10203000090712D40821C9430161042020752068D2
:10204000C0698007204602D0FFF7AEFF04E000F031
:102050003FF8204600F03DF8257520680169C94326
:10206000C90617D4C168C943C90613D41021C9438E
:102070000161082020752068C0698005800F204616
:1020800002D0FFF791FF04E000F022F8204600F0B4
:1020900020F8257520680169C943C90708D1C168BE
:1020A000C943C90704D1891E0161204600F012F816
:1020B00020680169C943490609D4C168C943490672
:1020C00005D44021C9430161204600F004F870BDE9
:1020D000704770477047704770477047F8B502689F
:1020E0000446D069116805072D0F07D1830605D571
:1020F0008B0603D5204600F0A2FEF8BD936820268B
:10210000002D65D0DD07ED0FFF2721370F402F434E
:102110005ED0C70706D0CF0504D501271762E26E4F
:102120003A43E266820708D5DA0706D0276802221A
:102130003A62E26E04273A43E266420708D5DA07BC
:1021400006D0236804221A62E26E02231A43E26672
:10215000020709D50A4632402A4305D023680822DF
:102160001A62E36E1343E366E26E002AC5D080066E
:1021700004D5880602D5204600F061FEE06E000717
:1021800003D42068806840061CD5204600F048FE35
:1021900020688168490611D5826840218A4382609F
:1021A000606E00280AD01D498163606EFEF76CFBEB
:1021B0000028A2D0606E816B8847F8BD2046FFF7EB
:1021C0008CFFF8BD2046FFF788FF0020E066F8BDD1
:1021D0002546C7026035002F0ADA5B0208D50120C8
:1021E000000510626E72AE722046FFF775FFF8BDF3
:1021F000030605D50B0603D5204600F05BFFF8BDAE
:102200004006FCD54806FAD51368204640218B438A
:1022100013606E7200F0E5F8F8BD00000D2E0008A6
:1022200000B50068114985B088421CD11048816B07
:1022300001225204114381630E4800900220019054
:10224000002002900320039004200490052069469A
:102250000007FEF7FFFB002211461C20FEF73CFDA5
:102260001C20FEF72FFD05B000BD0000004400401B
:10227000001002400206000070B5034660339C7AED
:10228000202C44D100290BD0002A09D001258468D4
:102290002D03AC4206D10669002E03D1CE0701D032
:1022A000012070BD1E7A012E31D001261E724165BB
:1022B000014640310A834A83FF22AC4204D10469BB
:1022C000002C12D1134A10E07F25002C08D00122E7
:1022D000120794420AD10269002A04D03F2204E086
:1022E0000469002C01D08D8300E08A830021C1663F
:1022F00022229A72197201688A6832438A600068E1
:102300000168FF22213211430160002070BD0220CC
:1023100070BD0000FF0100007047FFB5074605468D
:102320006037787A83B00C46202858D1002C0CD026
:102330000598002809D00120A9680003814207D12F
:102340002869002804D1E00702D0012007B0F0BDC1
:10235000387A012843D0012038720020E866212015
:102360007872FEF727FC01902E46403605983082A1
:102370000598708218E0708A401E7082069800905E
:10238000002280212846019B00F0C7FE002818D1BA
:102390000120A9680003814202D12869002812D0D7
:1023A000296820788862641C708A0028E3D1069826
:1023B0000090002240212846019B00F0AEFE00283C
:1023C00008D00320C2E720882968C005C00D8862B4
:1023D000A41CE9E72020787200203872B6E70220BA
:1023E000B4E77047FEE70000FEB53A4C0027E57BF6
:1023F000394E002D6AD0A07CE12109014843217BA0
:102400003C2251434018617B40182946FDF770FE7D
:10241000F0862046217A6E300170617A4170690041
:10242000691887700918A27A20394A77E37A8B777E
:10243000CF7701783C270C467C43407857432418DB
:10244000FF18BC420FD2E124240162433C246343C1
:10245000D218E1231B01594360430818101A691E62
:10246000FDF75CFEF06301206D1EB065019528E06C
:1024700068002A18174800926E3014182046203839
:10248000417FE123C27F1B0159435118807F3C22C9
:102490005043F26B80180F18194638463764FDF721
:1024A00027FE0C4B009A6E33985408463C21FDF7EA
:1024B0001FFE60703C213846FDF71AFEA1706D1CAE
:1024C000B5650198B56DA842D2DCFEBD7777FDF702
:1024D000ABFFFEBD78020020000000201CB51748AD
:1024E0001549016003229207426000210164042320
:1024F0001822C363826001220261C16041620262EC
:10250000C162016341638161FF228163C232436121
:102510008262C161FEF72CF8002800D0FEE708486F
:1025200000900014019069460448FDF7D3FF00288D
:1025300000D0FEE71CBD0000002401407400002014
:1025400010000010F0B51D4887B0C26A04210A438C
:10255000C262C26A0A400592C16A01263143C16261
:10256000C16A31400591C16A02252943C162C06A2E
:102570000327284005907F030520002239460007E5
:10258000FEF711FB08200024009005200194694605
:1025900002940007FEF75EFA009569460848029526
:1025A0000194FEF757FA0520029469460007009748
:1025B00001960394FEF74EFA07B0F0BD00100240FA
:1025C00000040050F0B5214C87B01F482060002166
:1025D0002046FFF747F81E4FB84232D01D4801266B
:1025E000467200257F206560A06025616561A56158
:1025F000FF20E561E0602046FFF76AF9002800D07F
:10260000FEE76846057045708570039500226946AF
:102610000E480495FFF726FA002800D0FEE768462A
:10262000067546758675C575002205A90748FFF72A
:10263000B1F9002800D0FEE73A4600210348FFF731
:1026400017F807B0F0BD000000280040D4000020BB
:10265000F23200000000002010B50E480C49016065
:10266000FF210531416000218160C16001610122CB
:10267000520241618261C1618022416202628162D3
:102680000721C162FFF780FA002800D0FEE710BDE5
:1026900000300140F800002070B505461548416B38
:1026A0002022114341631549134C7D2000220C6008
:1026B00080018A60486002200A61C8600846FFF70E
:1026C000B7FB002800D0FEE70D48A0620D48405D32
:1026D000E062E06801210843E060206808210843C7
:1026E00020600021162000F06BF8162000F05EF844
:1026F00070BD0000001002400014014008020020DC
:102700003F1F0000EC5F000810B50121124886B0A1
:102710008907016000241149846041607D21C9005E
:102720000461C160FFF784FB002800D0FEE70120B0
:102730000003009069460848FFF7C0FB002800D05E
:10274000FEE7049404A904480594FFF74DFB002814
:1027500000D0FEE706B010BD500100203F1F000072
:1027600010B50D480B490160E1214902416000218B
:102770008160C16001618161C1610C2201624261BD
:102780000B4641620A46FEF725FF002800D0FEE70F
:1027900010BD00000044004088010020002800D146
:1027A0000846401EC0B2704770470000C106C90EFF
:1027B00001208840014908607047000000E100E006
:1027C0008307FF22DB0E9A408907090E99400028F3
:1027D0000BDA0007000F0838830808489B00181818
:1027E000C36993430B43C3617047830804489B004C
:1027F0001818036893430B430360704700ED00E033
:1028000000E400E08307FF22DB0E9A408907090EEF
:10281000994000280BDA0007000F083883080848A1
:102820009B001818C36993430B43C3617047830827
:1028300004489B001818036893430B4303607047D8
:1028400000ED00E000E400E07047401CC0B28842A8
:1028500000D300207047000070B5174B0021DA68E4
:102860001206120F18D19A6B154CD500134A02D5D7
:102870001268224009E09E6B01252D072E439E63BE
:1028800012689E6B2240AE439E63A24204D1032293
:102890009203904200D101210A4802685208520076
:1028A0000A4302600068C007C00F884201D00120BF
:1028B00070BD002070BD000000100240007000409C
:1028C000001800000020024001090A2200075143BD
:1028D000000F4018C0B27047002102E00A38C0B2B1
:1028E000491C0A28FAD20907090E0843704770B537
:1028F00005460068C168490613D40021C943C16078
:10290000FEF758F97D260446F60006E0FEF752F978
:10291000001BB04201D9032070BD2868C068400682
:10292000F4D5002070BD000010B50248FEF764FF2A
:1029300010BD0000D4000020FFB581B01D46164632
:102940000446FEF737F93146264640360746002949
:1029500018D03BE0681C15D0002D04D0FEF72AF9F2
:10296000C01BA8420ED920684268E0218A43426019
:102970001CE0206802688A430260206802680A43FB
:1029800002601CE02068816802988843E2D122E05E
:10299000681C1BD0002D04D0FEF70CF9C01BA84208
:1029A00014D920684168E0229143416020680268A0
:1029B00040218A430260A06AC9018842D9D001201F
:1029C000707400203074032005B0F0BD2068816869
:1029D00002988843DCD00020F6E7000031B53223AE
:1029E000012269460948FFF72DF901220525540304
:1029F0002D0721462846FEF7D6F80A2000F0C4FC31
:102A0000002221462846FEF7CEF838BDF800002007
:102A1000704710B5FEF70EF9FFF7E2F910BD0000A0
:102A200010B5284998B008680324E402A043CA14EA
:102A300080180860FEF764F923490869A04308611B
:102A40000620009088150290092003901020049021
:102A50000220099040040B90000100240C900A947D
:102A60006846FEF7C1FB002800D0FEE70F200D905E
:102A700003200E900F941094002111940DA8FEF7DE
:102A80009BFA002800D0FEE72220129001200004CB
:102A90001390149412A8FEF7DFF9002800D0FEE787
:102AA000FEF73EFB7D21C900FDF722FBFFF780F911
:102AB0000420FFF76FF900221146501EFEF70CF9B3
:102AC00018B010BD0070004040100240104801686E
:102AD000821511430160C1680E4A1140C16001684E
:102AE0000D4A114001608168490849008160016810
:102AF0000122920491430160C168FD2212049143B6
:102B0000C160002101610549C00388607047000071
:102B1000001002400C40FF88F6FFF6FE00ED00E0DA
:102B200030B51A4C87B0A06B21040843A063FEF7B0
:102B3000DFF8FEF7D5F8E0680121C9038843E060BB
:102B4000E06A01210843E062E06A08400590E06A1B
:102B500002252843E062E06A6946284005900C4857
:102B60000090032001900020029005200007FDF74F
:102B700071FF69460748FDF76DFFE06A40084000B5
:102B8000E062E06AA843E06207B030BD0010024096
:102B9000FFFF0000000400500A4908694008400097
:102BA000086109480279002A06D0002202710868EB
:102BB000064A104008607047034901202039087612
:102BC000704700000008014020000020FEFF0000C8
:102BD00010B506480168064A114001600548FFF734
:102BE000E4F905490120887010BD0000001401407F
:102BF000FEFF0000080200200000002001208007E6
:102C0000016949084900016104490A6804231A431B
:102C10000A600168024A114001607047007000407C
:102C2000FEFF0000F0B502680124A4070F4D104E0E
:102C3000A04203D0A84201D0B04204D1134670276D
:102C40004A68BB431A43A04203D0A84201D0B04215
:102C500004D103231B029A43CB681A4302608A689B
:102C6000C2620968816201214161F0BD0008014032
:102C70000014014030B58468FF252D021B02134368
:102C8000AC430B432343836030BD826870239A4377
:102C90000A4307210A438260704730B5036A046A19
:102CA0006408640004628469F025AC431201224385
:102CB0000A24A3430B438261036230BD30B5036A2B
:102CC0001024A34303628369046A0F252D031203B2
:102CD000AB431A43A0239C43090121438261016253
:102CE00030BD10B5818CC90707D001684A6801233F
:102CF0005B049A43836A1A434A60818C890707D52B
:102D000001684A6801231B049A43C36A1A434A6054
:102D1000818C490707D501684A6801239B049A43BF
:102D2000036B1A434A60818C090707D501684A681A
:102D30000123DB039A43436B1A434A60818CC90623
:102D400007D501688A6801231B039A43836B1A43E2
:102D50008A60818C890607D501688A6801235B0334
:102D60009A43C36B1A438A60818C490612D5016865
:102D70004B6801221205046C934323434B60016CA2
:102D8000914207D101684A6803235B059A43436C6B
:102D90001A434A60818C090607D501684A680123F5
:102DA000DB04806C9A4302434A6010BDF8B50025ED
:102DB0000446C566FDF7FEFE074620680068124E11
:102DC000000709D501213B4600224905204600960F
:102DD00000F0A3F900280DD12068006840070BD54A
:102DE00001213B46002289052046009600F095F916
:102DF000002801D00320F8BD202060346072A0724A
:102E000025720020F8BD0000FFFFFF0110B5806AA9
:102E10000022014640314A834A82FFF75EF910BD25
:102E200001680A68FF2321339A430A6001688A68AF
:102E3000520852008A60202160308172704770B55C
:102E40000246403201466031938B8D7A0C46016810
:102E5000222D05D08869082210438861022070BDA8
:102E6000496A01268568360389B2B54202D10569EF
:102E7000002D0BD01940436D5D1C45651970518BB9
:102E8000491E0904090C518307D015E0456D19400E
:102E90002980416D891C4165F1E701680A68FF23BB
:102EA00021339A430A6001688A68520852008A6096
:102EB0002021A172FFF730FA002070BDFEB5044654
:102EC0002269A168E369114362691027002600683E
:102ED0001A431143026835466D4B1A400A4302609B
:102EE00020684168032212039143E2681143416064
:102EF000684A2168A069914201D0226A10438A6819
:102F00000B231B029A4302438A60634A2068634989
:102F100090420AD1C8680C2108402BD004282DD03B
:102F2000082829D00C2810D10EE05A4A90420CD122
:102F3000C8680321890208401CD01115401A1DD011
:102F4000401A19D0884200D108270220FDF7FAFE66
:102F50000190504B514922684039D81300929A424F
:102F600035D1002F0CD0022F0DD0042F12D0082FF6
:102F70001CD113E00027E8E70227E6E70427E4E78F
:102F8000FEF7D4F808E00868C00601D5444805E01B
:102F9000444803E0FEF7EAF8002873D06268510065
:102FA0005118814202D81103814201D2012569E002
:102FB000010E06025008002330185941FDF7C2F8EF
:102FC00003210902384A411A914259D9EEE7E269D0
:102FD00082422DD13B0000F0A3F90906080B241909
:102FE0002424241F2400019812E0FEF7AFF80FE01C
:102FF00008686168C00602D548082C4A01E02C4ADE
:1030000048088018FDF774F886B20BE0FEF7AEF8BA
:10301000616840004A08F4E7616801224808120428
:10302000EFE70125310909013007400F084327E088
:103030003B0000F075F909070A0D061D0606062972
:103040000600B3E7FEF772F814E0FEF77FF811E030
:1030500008686168C00602D54A08114801E01148B5
:103060004A081018FDF744F881B20098C16009E0E1
:10307000FEF77CF861684A088018FDF739F880B2DD
:103080002168C8602846FEBD61684A08E9E700007B
:10309000F369FFEF00480040004400404010024048
:1030A00000093D000024F400FFFC0F0000127A002C
:1030B0000048E8016921095C212901D002207047FC
:1030C000014640314A8A002A12D0012382681B033C
:1030D0009A4202D10269002A15D0C26C531CC36403
:1030E000006812788262488A401E48820020704739
:1030F00001680A6880239A430A60006801684022D8
:1031000011430160F2E7C26C03681288D205D20D48
:103110009A62C26C921CC264E5E7FFB581B01E469C
:10312000174605460A9C1CE0601C1AD0002C04D0EF
:10313000FDF740FD801BA04213D928680168FF22DB
:10314000A132914301602868816849084900816083
:10315000202060356872A87200202872032005B014
:10316000F0BD2868C1690298884304D00020B842A5
:10317000DAD00020F3E70120F9E7000010B50F488E
:10318000C169890615D50E490A680E4B1A400A60B6
:1031900000224A62426A0D480B4B447B1A55427B1F
:1031A000132A02D2427B521C427308680122104348
:1031B00008600748FEF792FF10BD00000044004081
:1031C00000140140FEFF00009602002020000020B5
:1031D0008801002010B50E490C4A0A600D4A800093
:1031E0001058486000208860C86008618861C86124
:1031F0000C2208624A6148620346024601460448BE
:10320000FEF7E8F9002800D0FEE710BD00440040BA
:1032100088010020C85F000838B57D20C000FDF798
:103220007FFBFFF7FDFB02F0E3F9002000F094F8CC
:10323000022000F091F81448FEF720FA134C012503
:10324000207B092802D0218F002900D1E5730028B6
:1032500012D10FA10FA002F047FA002000900F48F2
:103260001E23C1798079002202F045F80C4840788D
:103270002074207B002806D0C0B2182803D025284F
:1032800001D0E573257338BDD40000200000002074
:1032900000000000CACED0CC000000007802002060
:1032A0001004002010B5002100F006F810BD10B584
:1032B000012100F001F810BD73B50C463223012244
:1032C00069461648FEF7BEFC01F094FF05252D0760
:1032D000002C01D0012200E0002280212846FDF7C9
:1032E00062FC042000F05CF8012294032146284689
:1032F000FDF759FC142000F053F80022214628461F
:10330000FDF751FC7D20C00000F04AF8002280212A
:103310002846FDF748FC01F07DFF7CBDF800002049
:1033200030B47446641E2578641CAB4200D21D463E
:10333000635D5B00E31830BC184702E008C8121F49
:1033400008C1002AFAD170477047002001E001C18E
:10335000121F002AFBD17047F8B5B8270546861C16
:103360000FE028463843C0B2FFF79CFF0020FFF76C
:1033700099FF00240020FFF79AFF641C3D2CF9DB25
:103380006D1CB542EDDBF8BD08B5002100910A21A6
:103390004843009901E0491C00918842FBD108BDD7
:1033A00008B500210091814201D0491CFAE708BD0F
:1033B000FFB50E461A4681B0083235460A993035B7
:1033C000971D30301C46009200291AD001291CD0CC
:1033D000022914D1C0B22146039A01F02DFFA11D8C
:1033E0002E20039A01F028FF761CF0B2039A009970
:1033F00001F022FF39462420039A01F01DFF05B099
:10340000F0BDC0B22146039A02E021460120039A92
:1034100001F012FFA11D2E20039A01F00DFFE8B26A
:10342000E4E70000F0B521490020CA7B002A00D162
:1034300004200B7A3C224E7A5A4395198A7A3C270B
:1034400014467C43CF7AE419BC46A54201D301243B
:1034500020438D7C0C7B497B2F198E467744002FAF
:1034600001D102273843E1273F017A4367463C21D7
:103470004F43D2190E4FF98E5118E12212015343D6
:103480003C2256439A19891AE122120155433C22E3
:1034900054432B1972469A18914201DC10210843BB
:1034A000F96B3C2901D208210843F0BD78020020C5
:1034B0000000002070B56424884229D2184C3C23B7
:1034C000A47853431B193C246043834201D98A42A8
:1034D00001D9002421E08A4204D11248C07B401E59
:1034E000C4B21AE00F4901246E3101E0641CE4B259
:1034F000600020180A5CE1252D016A4340184578D8
:103500003C2675438078521910189842EED304E097
:10351000054900204877FCF787FF204670BD000072
:1035200010040020780200200000002088B0FDF781
:1035300089FBFFF775FAFFF7F3FAFA48C16A01272A
:103540003943C162C06A002638400090F6480390B3
:1035500003200490052003A905960007FDF77AFAD9
:10356000FEF7F0FFFFF7FCF8FFF7CEF8FFF72AF8B9
:10357000FFF772F8FEF7B2FFED49EC48086006204D
:103580004860EC48C86088600846FDF719FB0028D1
:1035900000D0FEE703210520002249030007FDF7C4
:1035A00002FBE348FDF73EFB0020FFF717FAFF2080
:1035B000F530FDF7B5F902F039F802F067F8DE48AA
:1035C0000068DE4CDA4DE0658035401C0DD12E726E
:1035D0006E72AE72EE72AE742E736E73EE73AE7365
:1035E000082068742F74FCF71FFFE06D010E29722C
:1035F000010C6972010AA972E872CF48001D0068C7
:10360000E065010E2973010C6973000AE873CA486A
:103610000C300068C0B2A874092800D9AE74C44D3B
:1036200000268035C448AE7310300068E06500079E
:10363000000F6874FFF730F8687CFFF7CBFDE06D92
:10364000000A2874FEF7D0FEB948FDF7EBFA66775A
:10365000607A00285DD0FCF7E7FE0220207301F0BD
:10366000C7FF0020FFF778FE0220FFF775FEB34C7E
:10367000E7730026FF20A676F530FDF751F900220A
:1036800011460220FDF728FB0220FDF71BFBAC488A
:10369000FDF7CCF800211C20FFF792F81C20FFF763
:1036A00085F8A34870380068026820252A43026024
:1036B0009F499F48267064230522B2317038FEF777
:1036C0002CFE9B499A480F22B2317038FEF7D4FD88
:1036D00020349748FDF7A6FA9848417F007F944D23
:1036E00008188035287000211C20FFF769F81C207D
:1036F000FFF75CF82846F038006801682022114383
:103700000160052008210007FDF748FA8B49087081
:103710006DE087498031C87B002836D0087A3C228A
:10372000844650434A7A3C23164680188A7ACD7ADA
:1037300053435B19984228D28B7C087B497B1B182A
:10374000CB4222D0E1231B015A433C235D43E38E4D
:103750005219D518E12362461B015A4333463C26D1
:103760007343D2187043AA1A401882420DDDE06BF1
:103770003C280AD3724801216030FDF773FF1428FA
:1037800003D26D48083000686077277367E76848A0
:10379000FDF748FA6079002802D06671002007E042
:1037A000674801216030FDF75DFF80B21E2806D218
:1037B000401C82B2624801216030FDF759FF604829
:1037C0007D21002209016030FDF796FF5548816B8D
:1037D00002041143816301210846FDF799FA05208F
:1037E00008210007FDF7DAF9544908704F70534873
:1037F00000780028CBD051484078002819D04F4895
:1038000046704F486030FDF739FFFFF705FD6771DF
:103810004B4801216030FDF725FF192803D947489F
:103820004677FCF701FE4648002201216030FDF793
:103830001FFF3F48FDF7F6F9A07A00280DD0414858
:10384000E17A8078884208D0E072207B401C2073A7
:10385000207B132801D93948477601208007016869
:10386000314A521E114001603448007D002833481F
:10387000007B06D000280CD0182804D0252802D0C0
:103880004BE0002805D02D486E70007B18282FD003
:1038900000E06F70AE7064212948FCF767FF28488C
:1038A000FCF762FE80B202902448007B00280BD017
:1038B0002249182808D0252806D0887ADF2210400F
:1038C0008872887AFFF78AF8A17B0298884201D033
:1038D0001A4807721948027A002A1ED0C7748674E3
:1038E0008279002A06D00299A1738671C6710BE015
:1038F000AF70D0E7029B8A1C934225D2891E8B426F
:1039000022DB4179491C417141790A2905D9467167
:103910000299A173C771067287712078002815D0AB
:1039200023E0000000100240FFFF000000300040D4
:10393000F8010020FF0F0000007F000800000020B9
:1039400074000020100400204671E5E70022F849C9
:10395000F848FDF76DFF0022F749F648FDF78AFFAA
:10396000F5480178A9714078E871F1486038407FE6
:1039700000287CD06078002879D12078002876D182
:10398000A079642811D3A8793C214843E9793C23E4
:103990004218A87A3C214843E97A4118287A5843CA
:1039A0006B7AC018FFF786FD7BE0E07800287AD0BC
:1039B000E670E148E12201781201514342783C234C
:1039C0005A43807889180818D94960394864A17920
:1039D0004A008A18D9498A5CE12109014A43A17940
:1039E0004B00CB18D549591849783C2359435218F4
:1039F000A1794B00CB18D14959188978CC4B511873
:103A0000CB4A8C46603A9164C94962466039C98E96
:103A1000603B8E4672441A650092A279A1795300E8
:103A2000D318C64A9A18203A527FE1231B015A4301
:103A30004B00CB18C1495B18203B997F3C234B437B
:103A4000A179D2184B00CB18BC495B18203BDB7F17
:103A50007146D218B64B5118603BDA645965019132
:103A6000604505D30099884202D219460AE04AE02F
:103A7000AF496039904213D3019A904210D2A27993
:103A8000521EA271009A101A0887CF740E73CF735A
:103A90003D20087448740020FFF75EFC33E002E02C
:103AA0006420A0712FE0A44BA079197842008018FF
:103AB000A24A105C814226D118464178A079430081
:103AC000C0188018407881421DD19B488178A07928
:103AD0004300C01880188078814214D1944860381F
:103AE0000673C77392493D206039087448740020FA
:103AF000FFF732FC8E488E496038C08E6039401C1A
:103B000008870846C7748A486038C079002819D0E9
:103B100087496039087B002815D0182813D00299EE
:103B20001839032903D2824A603A08283BD0029808
:103B30001638022844D2AF208000FFF725FCE07B36
:103B400000283BD0C3E2029818380328A07C22D278
:103B5000002818D076486038007E0028F2D07748D8
:103B6000A638FEF799F97248603806874677FCF761
:103B70005BFC6F48A67460388675002232213120C4
:103B800001F05AFBA3E26E48A77446626B48A63860
:103B9000FEF776F99BE20028D4D06848A674A638D0
:103BA000FEF77AF993E2AF208000FFF7EDFB517B3F
:103BB0000029C7D15E4860384773A1E0E7739FE0F2
:103BC0000298401F022877D2AF208000FFF7DCFB6D
:103BD000207C002817D056486038017E0029B1D0DB
:103BE000007B12380300FFF79BFB19101A242933BE
:103BF0004948485848484848484848151F2E483CB6
:103C00004E534862480027747AE0A8791821FEF7DD
:103C10001CFE84E0E8793C21FEF717FE85E0287A57
:103C20001821FEF712FE91E0687A3C21FEF70DFEA6
:103C300092E0A87A1821FEF708FE93E0E87B642161
:103C4000FEF703FE94E0E87A3C21FEF7FEFD95E0E6
:103C5000A87B0A21FCF74CFA0A460A21FEF7F5FD7B
:103C600096E0A87B0A21FCF743FA0A224243084661
:103C70000A21FEF7EAFD1018A873B9E0287B3C2161
:103C8000FEF7E3FD97E0687B3C21FEF7DEFD98E060
:103C9000A87C0A21FEF7D9FD99E0287CF721FEF7E0
:103CA000D4FD2874002800D12F74A1E004E0687CC2
:103CB0000921FEF7CAFD9AE002980B38022875D256
:103CC000AF208000FFF760FB607C002817D0184809
:103CD0006038017E00291DD0007B12380300FFF7F9
:103CE0001FFB191A313D434F66878778878787877F
:103CF000878787203749875A6C7287828700677465
:103D00000F4846620D48A638FEF7BAF8A672084872
:103D100060388673DBE1A8791821FEF73FFDA871B2
:103D200066E0E8793C21FEF739FDE87160E00000CB
:103D300060000020D400002010040020E6020020D3
:103D400000080140287A1821FEF728FD28724FE06C
:103D5000687A3C21FEF722FD687249E0A87A1821B2
:103D6000FEF71CFDA87243E0E87B6421FEF716FD18
:103D7000E8733DE0E87A3C21FEF710FDE87237E099
:103D8000A87B0A21FCF7B4F90A460A21FEF706FDD2
:103D90000A2148436FE7A87B0A21FCF7A9F90A2208
:103DA000424308460A21FEF7F9FC64E724E0287B39
:103DB0003C21FEF7F3FC28731AE0687B3C21FEF7F8
:103DC000EDFC687314E0A87C0A21FEF7E7FCA874F8
:103DD0000EE0287CF721FEF7E1FC2874002807D1CB
:103DE000F620287404E0687C0921FEF7D7FC68748B
:103DF000FE48FFF7C9FA6AE1207C617C084374D071
:103E0000FB48FEF749F8FB483D2101748773017EAA
:103E1000002901D00676E6E0007B12380300FFF7A8
:103E20007FFA190E28424F6A9AE2E2C1E2E2E2E228
:103E3000E2E2E21B355CE282A7B4E2D6E200207C3B
:103E40000028A87903D01821FEF7FFFC02E0182112
:103E5000FEF7A4FCA871C6E0207C0028E87903D016
:103E60003C21FEF7F2FC02E03C21FEF797FCE871F2
:103E7000B9E0207C0028287A03D01821FEF7E5FC61
:103E800002E01821FEF78AFC2872ACE0207C0028B2
:103E9000687A03D03C21FEF7D8FC02E03C21FEF713
:103EA0007DFC68729FE0207C0028A87A03D018214E
:103EB000FEF7CBFC02E01821FEF770FCA87292E03E
:103EC000207C0028E87B03D06421FEF7BEFC02E0E2
:103ED0006421FEF763FCE87385E0207C0028E87A23
:103EE00004D03C21FEF7B1FC03E080E03C21FEF76A
:103EF00055FCE87277E0207C0028A87B07D00A21D7
:103F0000FCF7F6F80A460A21FEF79FFC06E00A21B4
:103F1000FCF7EEF80A460A21FEF740FC0A21484366
:103F20001018A8735FE0207C0028A87B09D00A2124
:103F3000FCF7DEF80A22424308460A21FEF785FC18
:103F4000EEE70A21FCF7D4F80A22424308460A2188
:103F5000FEF724FCE4E7207C0028287B03D03C21EA
:103F6000FEF773FC02E03C21FEF718FC28733AE0F0
:103F7000207C0028687B03D03C21FEF766FC02E031
:103F80003C21FEF70BFC68732DE0207C0028A87C08
:103F900003D00A21FEF759FC02E00A21FEF7FEFBDE
:103FA000A87420E0207C0028287C07D0F721FEF7A9
:103FB0004CFC2874002816D12F7414E0F721FEF76A
:103FC000EDFB287400280ED1F62028740BE0207C2D
:103FD0000028687C03D00921FEF737FC02E00921A4
:103FE000FEF7DCFB68746770267466746FE0E07B34
:103FF00000286CD07E48FDF74FFF7E484675C6729C
:10400000E6730020FFF7A8F97A48C77379493D2085
:1040100008740A7B182A00D048747648837E002BE7
:1040200003D175495200895C01736078002807D07C
:104030007048002B04D0C77766704677FCF7F4F918
:104040002078002813D06B48807E00280FD026707F
:104050006A48A9790170E9794170867001460022A9
:104060006748FDF7FFFC63484677FCF7DDF96148D8
:10407000807F002818D05F49887E002814D06420F3
:10408000A0710846C07E002802D00846C67607E028
:104090005849487F002805D000204877FCF7C4F92C
:1040A000544805E00120F8E75248817F002900D0FC
:1040B00086775048817E002900D0867600210291C3
:1040C0008773617A002902D0667202210173494820
:1040D000007B2B287ED243007B449B885B009F445F
:1040E0002A002701B001F30135027D028B03DD03B5
:1040F000A00432055605790079007900790079002D
:10410000D500AC01BC01FF016F02C702CF03FD0364
:10411000AF047900630579007900790079007900AE
:1041200079007900BC01FF016F02FE02CF03330466
:1041300067047900AE052F48C07B002814D031A158
:1041400031A001F0D1FA2B48C673807A20210843B0
:10415000284988720846807AFEF740FCA6722548F6
:104160008673A079401CA071244841782148007CC6
:10417000814231D01F48007900281E4803D00179C0
:10418000012902D01BE0077119E01A4802210171D0
:1041900001F02EFA1BA11CA001F0A6FA1548C67367
:1041A000807A20210843134988720120FFF7ECF838
:1041B0001048807AFEF712FCA6720E4886730096AD
:1041C000E979A8791E23002201F095F80B4841787F
:1041D000084800E059E00174084881780548407CAF
:1041E00081423DD00348807A202111E0D020000098
:1041F000400200200000002070570008100400203A
:10420000D400002000000000CACED0CC0000000086
:104210000843F84988720120FFF7B6F8F548807A1C
:10422000FEF7DCFBF348008F0023401E80B21A46E5
:10423000012101F0BFF8EF48008FEE49401E0887CA
:10424000EC483C21008FFBF753FFE870E9483C2124
:10425000008FFBF74DFFE84829718178E5484174EC
:10426000E448018F002910D14776817ADF2211407E
:104270008172807AFEF7B2FBA079642805D2E87BD0
:10428000A179401E884200DAA671F8E2D948C17BC4
:104290000029FAD0817ADF2211408172807AFEF7FC
:1042A0009DFB0A21E07CFBF723FF3030C0B20122E6
:1042B0000B2100F0C1FF0A21E07CFBF719FF084643
:1042C00030300122112100F0B7FF012216213A20DF
:1042D00000F0B2FF0A21207DFBF70AFF3030C0B2A8
:1042E00001221A2100F0A8FF0A21207DFBF700FF20
:1042F000084630300122202100F09EFF01222521B6
:104300003A2000F099FF0A21E079FBF7F1FE303006
:10431000C0B20122292100F08FFF0A21E079FBF7CA
:10432000E7FE08462F3001222F2100F085FFACE781
:10433000B048C07B00280FD0FFF774F80006000ECD
:10434000687138D0ADA1B0A001F0CEF9A9480A211A
:104350000177C776A748C673A648407F00285BD080
:10436000FCF728FCA3497D2348668A6EDB00821A8D
:104370009A4201D98F758866887D00284CD08E7549
:10438000C87D002840D0CE750096E979A87923230E
:10439000012200F0B0FF01222E21002000F04CFF8E
:1043A000E8790A21FBF7A4FE3030C0B201223221A5
:1043B00000F042FF30E08F48C6760677407F002845
:1043C0001DD094A194A001F08FF901222E2100208C
:1043D00000F032FFE8790A21FBF78AFE3030C0B2E4
:1043E0000122322100F028FF82482323007B012292
:1043F00000090090E979A87900F07DFFAAE789A17A
:1044000085A001F071F9A5E7CF750096E979A87943
:104410002323012200F06FFF7648817E002986D099
:10442000407F002801D07FA105E000223821012033
:1044300000F002FF7DA178A0B3E36E488777077391
:1044400023E76C48C07B0028FAD07BA17CA001F058
:104450004BF96848C673007B2EE06648C07B002895
:1044600005D075A176A001F03FF96248C6732770A8
:10447000E07B617C0843217C08430AD05D48007ED4
:10448000002806D00096E979A8792323012200F0BC
:1044900032FFFCF78FFB574948668A6E821AFA2A68
:1044A00001D98F758866887D0028C9D08E75C87D32
:1044B000002806D0CE75087B00090090E979A8791C
:1044C00079E0CF750096F9E74A48C07B0028B7D05D
:1044D0005EA15BA001F008F94648C673007B2DE0A1
:1044E0004448C07B002805D058A155A001F0FCF835
:1044F0004048C673E07B617C0843217C08430AD0B6
:104500003C48007E002806D00096697A287A23234A
:10451000012200F0F0FEFCF74DFB364948668A6E3A
:10452000821AFA2A01D98F758866887D002887D07B
:104530008E75C87D002806D0CE75087B00090090D6
:10454000697A287A37E0CF750096F9E72948C07B69
:104550000028AAD03FA13AA001F0C6F82548C673AA
:10456000007B21E0E07B617C0843217C08430AD08A
:104570002048007E002806D00096E97AA87A2323F6
:10458000012200F0B8FEFCF715FB1A4948668A6E56
:10459000821AFA2A1FD8887D002886D08E75C87D99
:1045A000002804D0CE75087B0009009001E0CF758B
:1045B0000096E97AA87A2323012200F09CFEA3E367
:1045C0000C48C07B0028CDD022A11DA001F08CF8A2
:1045D0000848C673C6E78F758866DCE70548C07B68
:1045E0000028ECD01DA11FA001F07EF80148C67381
:1045F000007B6BE00000002010040020CFC0D0C082
:10460000CCC5D2D0DB000000D3D1D2C0CDCEC2C841
:10461000D2C50000C2CACB00CFD0CEC3D0C0CCCC54
:10462000C0000000C2DBCACB00000000CEC1D0C079
:10463000C1CED2CAC0000000C2D0C5CCDF0000008D
:10464000D3D1D2C0CDCEC2CAC0000000D1D2C0D01A
:10465000D2000000D1D2CECF00000000C2D1C5C32D
:10466000CE000000CACED0CCCBC5CDC8C90000005A
:10467000FE48C07B002806D0FD490846083001F0FE
:1046800033F8FA48C673E07B617C0843217C084319
:1046900009D0F648007E002805D0E87B00232A22B6
:1046A000012100F0E3FDFCF785FAF04948668A6EC7
:1046B000821AFA2A01D98F758866887D002890D0E1
:1046C0008E75C87D002804D0CE75087B0309E87B71
:1046D00002E0CF75E87B00232A220121ACE2E34807
:1046E000C07B00281CD0E3A1E3A000F0FDFFDF4861
:1046F000807A20210843DD4988720846807AFEF7D7
:104700006DF9DA488673C673E6742675D749E67183
:104710003D20487408464677FBF786FED3488676E8
:10472000D248D84986738978407C81426FD00A216B
:10473000E07CFBF7DDFC3030C0B201220B2100F041
:104740007BFD0A21E07CFBF7D3FC084630300122D8
:10475000112100F071FD012216213A2000F06CFDBC
:104760000A21207DFBF7C4FC3030C0B201221A219F
:1047700000F062FD0A21207DFBF7BAFC08463030CC
:104780000122202100F058FD012225213A2000F0CD
:1047900053FD0A21E079FBF7ABFC3030C0B20122B7
:1047A000292100F049FD0A21E079FBF7A1FC084628
:1047B000303001222F2100F03FFDE07920723C21B2
:1047C000FEF743F8E071207A3B280DD1207D60751B
:1047D0003C21FEF73AF82075607D3B2804D1182172
:1047E000E07CFEF732F8E074A64881789F48417477
:1047F000817A20221143A1E19C48C07B00283ED051
:10480000A1A1A3A000F070FF9848C67324E085E240
:10481000E07B617C0843217C08430CD09348007EF8
:10482000002808D0A87B0A21FBF762FC2A2301227A
:104830000096FEF7BDFDFCF7BDF98C4948668A6E0F
:10484000821AFA2A27D8887D0028D8D08E75C87D8C
:1048500000280AD08548C675A87B0A21FBF748FCCA
:10486000824A127B1209009205E0CF75A87B0A21CB
:10487000FBF73EFC00962A230122FEF799FD43E256
:104880007A48C07B0028C3D07FA181A000F02CFF14
:104890007648C673BCE78F758866D4E77348C17BDA
:1048A0000029ECD0807ADF210840704988720846E0
:1048B000807AFEF793F879A179A000F015FF6B4894
:1048C0001421007B0091000901906A7B297BA87C60
:1048D000012300F0C2FD6548C67315E26348C07B42
:1048E000002805D06DA16EA000F0FEFE5F48C673E3
:1048F000E07B617C0843217C08430CD05B48007E50
:10490000002808D01420019600906A7B297BA87C9F
:10491000012300F0A2FDFCF74DF9544948668A6E68
:10492000821AFA2A01D98F758866887D0028A6D058
:104930008E75C87D002802D0CE75022134E0CF7577
:1049400014200196009065E04848C07B002805D0FF
:1049500052A153A000F0C8FE4448C673E07B617CBE
:104960000843217C08430CD04048007E002808D032
:104970001420019600906A7B297BA87C012300F01B
:104980006CFDFCF717F9394948668A6E821AFA2AD3
:1049900001D98F758866887D00289ED08E75C87D68
:1049A0000028CCD0CE75032114200191009031E075
:1049B0002E48C07B002805D038A139A000F094FE15
:1049C0002A48C673E07B617C0843217C08430CD0F5
:1049D0002648007E002808D01420019600906A7BAB
:1049E000297BA87C012300F038FDFCF7E3F81F4980
:1049F00048668A6E821AFA2A01D98F758866887D80
:104A0000002894D08E75C87D002898D0CE751420CB
:104A1000019700906A7B297BA87C012300F01DFD93
:104A200072E11248C07B002805D012A11FA000F03F
:104A30005BFE0E48C6730D48C18E491C018763E1B9
:104A40000A48C07B002803D10848807D00283CD05C
:104A500008A116A000F048FE0448C6738675807A47
:104A60002021084301498872084625E00000002003
:104A70005C46000800000000CDC5CFD0C5D0DBC229
:104A8000CDCE000010040020D0CED1D220CDC00069
:104A9000D1D3D2CED7CDDBC900000000C2D00000F8
:104AA000CACED0CC20CEC1D9C5C50000C2CACB2049
:104AB000D2C5D1D200000000807AFDF78FFFA67228
:104AC000FE4886734677FBF7AFFCFD488178FB48CC
:104AD000407C814227D0F948807A20210843F74959
:104AE00088720846807AFDF779FFF448008F00232A
:104AF000401E80B21A46012100F05CFCEF48008F96
:104B0000EE49401E0887ED483C21008FFBF7F0FA84
:104B1000E870EA483C21008FFBF7EAFAE84829717F
:104B20008178E6484174E548018F002902D0017E72
:104B3000002907D04776817ADF2211408172807A7E
:104B4000FDF74CFFE0E0DD48C07B00281CD0DB48CF
:104B5000C6730020FEF700FCDAA1DDA000F0C4FD62
:104B60002E210022084600F067FB00222A214D205A
:104B700000F062FB00223221522000F05DFB002297
:104B80003821552000F058FBCC484676BCE0CB4895
:104B9000C17B002907D0C6730020FEF7DDFBCEA144
:104BA000CF4800F0A1FDAFE0C448C07B002826D06C
:104BB000C248C6730020FEF7CFFBCAA1002000F058
:104BC000E7FA687C0300FEF7ABFB0906080A0C0E47
:104BD000101214163000C5A10EE0C7A10CE0C9A147
:104BE0000AE0CBA108E0CDA106E0CFA104E0D1A16D
:104BF00002E0D3A100E0D5A1012000F0C9FAFBF743
:104C0000D9FFAE4948668A6E821AFA2A01D98F7591
:104C10008866887D002877D08E75C87D002806D0EC
:104C2000CE75087B0309287C04E0CBA1E4E7CF75AF
:104C3000287C00232422002100F018FB64E09F4818
:104C4000C07B00282DD09D48C770C6730020FEF79A
:104C500083FBA4A1002000F09BFA0023287C2422DF
:104C6000194600F003FB687C0300FEF759FB0906B8
:104C7000080A0C0E101214161A009CA10EE09EA138
:104C80000CE0A0A10AE0A2A108E0A4A106E0A6A170
:104C900004E0A8A102E0AAA100E0ACA1012000F07C
:104CA00077FAFBF787FF854948668A6E821AFA2AE7
:104CB00001D98F758866887D002825D08E75C87DBE
:104CC000002802D0CE75A7A11BE0CF75687C030039
:104CD000FEF726FB0906080A0C0E101214161A001D
:104CE00082A10EE084A10CE086A10AE088A108E080
:104CF0008AA106E08CA104E08EA102E090A100E070
:104D000092A1012000F044FA6C48817B002905D073
:104D10006B498978E172A772267386736748007EB3
:104D2000002825D0E07B002822D064498F76087BBC
:104D300042008F4810180A7E805C0873092813D936
:104D40008F75182812D0252810D011280ED00846AB
:104D5000C775FBF72FFF59498866087B1A2801D0D1
:104D60002A2803D1CF7301E054488675534806764C
:104D70005248017E002908D0417B002905D0877662
:104D8000252101730676C7734673817C002901D003
:104D90008674C6744948407E002837D04748807AD8
:104DA000DF210840454988720846807AFDF716FEE3
:104DB0004248407D002803D040480921017304E0A7
:104DC0000020FEF7C9FA3D4807733C48C773A67236
:104DD0002673467606763D210174417420780028BA
:104DE0000BD026703648A9790170E9794170867038
:104DF000014600225F48FCF735FE6078002802D0AB
:104E000066702E48C777A6722C4887742B48C07FDF
:104E100000280BD02948C677A07800281BD0A670A0
:104E2000FBF702FBFDF7E0FA2448C77323488078BC
:104E3000002840D0214886704F48297C007888425D
:104E400008D1617B4C48FBF72BFA00041B49000C8E
:104E5000488703D07FE16420A071E1E7464A50789B
:104E6000032809D0062827D04349127814310A7044
:104E7000803048708F7098E0907813468446002800
:104E80001BD1D978587900901A7908181202521E4D
:104E90008018132811DA384A187814321070032059
:104EA00050700098491940009070019100206146AF
:104EB00009028C466CE04FE179E071E000000020CF
:104EC00010040020464545444876312E304C000001
:104ED0004156544F4B4F52004D4F444255530000E2
:104EE000FC450008E0E4F0E5F1000000F1EAF02004
:104EF0002020323430300000F1EAF0202020343815
:104F000030300000F1EAF020202039363030000047
:104F1000F1EAF0202031343430300000F1EAF020A2
:104F20002031393230300000F1EAF02020333834BB
:104F300030300000F1EAF02020353630303000000B
:104F4000F1EAF0202035373630300000F1EAF02069
:104F50003131353230300000F1EAF06F3131353225
:104F600030300000F1EAF020202020202020000036
:104F700070570008D4000020960200206246019974
:104F80001318CB5C7D49420051180B71CE70401C48
:104F900000998142F2DC79488078C01CC0B283E07D
:104FA0007648197801708321AAE003207CE07348D9
:104FB00014388078002806D0704A143A01283DD071
:104FC000022873D096E06D4B143BD87805283BD966
:104FD000132839D2197900292ED1694A5979125CDE
:104FE000914229D22954112804D0062805D0072837
:104FF00003D00DE06348C7700AE06348A9790170E7
:10500000E97941708670014600226048FCF72AFD6C
:105010005C484677C777C7735849584814390A78A7
:105020000270062242708A788270CA78C2700A7949
:1050300002714979417136E019781BE0D17800910D
:10504000002902D0012932D054E01079002851D132
:105050004A481438407902284CD2FEF7E3F900069A
:10506000000E68710CD047484677C777C77343482E
:10507000143801784148017016214170032141E044
:105080003E48404A143841795177D777D7733B4A25
:10509000037813700623537083789370C378D370AA
:1050A000007910715171062000903FE017E01179EE
:1050B0008C4600291ED15379022B1BD22F4912781E
:1050C0000A7006224A7088700098C870604608719D
:1050D0004B712C480092C7731821017326E0D178D8
:1050E0000091002906D111798C46002902D151790D
:1050F0000B1E09D021481438017814300170162194
:1051000041700221817050E71C4912780A70062212
:105110004A7088700098C870604608714B711949D0
:105120000F764F730092CF731820087313480099BD
:10513000FBF7B6F81349642348871049009A88544E
:10514000009A000A891848701048009A0B49B43038
:10515000921CFDF7E2F866730A48C178002901D174
:10516000FEF7B7FA017B2A29FAD0C670687CFEF7F1
:1051700031F8687CFDF790FAF2E70000AA020020FF
:10518000F55F00080000002010040020D40000207B
:10519000F3B581B004460298FBF704F8C5B2B82015
:1051A0002043FEF77FF80020FEF77CF80027104E22
:1051B0000EE0002402980621C05D48438019005D7E
:1051C000FEF775F8641CE4B2062CF3D37F1CFFB223
:1051D000AF42EED309E00024305DFEF768F8641CAE
:1051E000E4B2062CF8D36D1CEDB20A2DF3D3FEBD4C
:1051F000C657000800B585B08020009001200190BE
:10520000002003900290052069460007FBF722FC6E
:1052100005B000BD00B585B080200090022001904F
:1052200000210320039002910491052069460007A4
:10523000FBF710FC05B000BD70B50546B820024371
:105240000C46D0B2FEF72EF8E0B2FEF72BF806209F
:105250004543054800242D18285DFEF728F8641CF6
:10526000E4B2062CF8D370BDC657000870B51446DA
:105270000E460546002B13D0012B10D1632804D90C
:105280000A46A11F0120FFF7D7FF32462146012021
:10529000FFF7D2FF3246A11D0120FFF7CDFF70BD01
:1052A000632D07D96421FAF723FF3030C0B23246AC
:1052B000A11F02E00A46A11F0120FFF7BDFF092D33
:1052C0000BD964212846FAF713FF08460A21FAF79A
:1052D0000FFF32462146303002E03246214601209F
:1052E000FFF7AAFF0A212846FAF702FF08463030E6
:1052F0003246A11DD1E7FFB51F4681B00B373E1DD9
:105300000A99B51D1C46002925D0012933D0022950
:105310001FD10A21FAF7ECFE30300091C0B22146CD
:10532000039AFFF789FF0099039A08463030A11DC0
:10533000FFF782FF39463A20039AFFF77DFF314697
:105340000120039AFFF778FF29460120039AFFF70F
:1053500073FF05B0F0BD0A21FAF7CAFE30300091A4
:10536000C0B22146039AFFF767FF0099039A0846E7
:105370003030A11D07E019460120039AFFF75CFFBA
:10538000A11D0120039AFFF757FF39463A20039ADF
:10539000FFF752FF0A210298FAF7AAFE0C463030B6
:1053A000C0B23146039AFFF747FF20463030294606
:1053B000039ACCE7FFB5E12181B014460901FAF761
:1053C00097FEC7B208463C21FAF792FEC6B20D46D8
:1053D0000A213846FAF78CFE0F463030C0B221461B
:1053E000029AFFF729FF38463030A11D029AFFF7D5
:1053F00023FF21460B313A20029AFFF71DFF0A21B5
:105400003046FAF775FE0E4630302146C0B20F31F5
:10541000029AFFF711FF3046214630301531029ACB
:10542000FFF70AFF21461A313A20029AFFF704FFDC
:105430000A212846FAF75CFE0D4630302146C0B2FC
:105440001E31029AFFF7F8FE2846214630302431FB
:10545000029AFFF7F1FE05B0F0BDFFB585B00E9CD6
:10546000024621460B310291091D8F1D01910F98B3
:105470007E1D1531351D009100283ED0012861D0D8
:1054800002287ED0032836D10A211046FAF730FED2
:1054900003913030C0B22146089AFFF7CDFE039940
:1054A000089A08463030A11DFFF7C6FE3A20089A38
:1054B0000299FFF7C1FE0A210698FAF719FE0C4679
:1054C0003030C0B2089A0199FFF7B6FE204630305E
:1054D0003946089AFFF7B0FE31463A20089AFFF79E
:1054E000ABFE29460120089AFFF7A6FE0120089A84
:1054F0000099FFF7A1FE09B0F0BD0A211046FAF7A6
:10550000F7FD03913030C0B22146089AFFF794FEB0
:105510000399089A08463030A11DFFF78DFE3A2006
:10552000089A0299FFF788FE0A210698FAF7E0FD2B
:105530000C463030C0B2089A0199FFF77DFE204634
:1055400030301BE021460120089AFFF775FEA11DAF
:105550000120089AFFF770FE3A20089A0299FFF797
:105560006BFE0A210698FAF7C3FD0C463030C0B234
:10557000089A0199FFF760FE204630303946089AB4
:1055800000E016E0FFF758FE31463A20089AFFF790
:1055900053FE0A210798FAF7ABFD0C463030C0B233
:1055A0002946089AFFF748FE20463030089A0099AD
:1055B0009FE70A211046FAF79BFD03913030C0B2F5
:1055C0002146089AFFF738FE0398A11D3030089A4B
:1055D000FFF732FE3A20089A0299FFF72DFE0120CC
:1055E000089A0199FFF728FE39460120089AC7E773
:1055F00010B56420FDF7D4FE0220FBF791F9E220FC
:10560000FDF750FEEE20FDF74DFEA420FDF74AFE0B
:10561000A820FDF747FEC020FDF744FEA020FDF7BF
:1056200041FEAF20FDF73EFE10BD000070B51248F0
:10563000416B04221143416311480021124D8160E6
:105640000E4CC5600F4E016150C00838FCF7F0FBEE
:10565000002800D0FEE7A662E562E0680121084369
:10566000E060206808221043206020680843206022
:105670001420FDF79BF870BD0010024000080140A7
:10568000400200203F1F0000DC05000070B51349F8
:10569000886B0125284388638C0411480021C822A7
:1056A0008160C2600F4E016150C00838FCF7C0FB3A
:1056B000002800D0FEE7A6627D20C000E062E0681E
:1056C0002843E060206808210843206020682843C0
:1056D00020600F20FDF76AF870BD00000010024046
:1056E000500100203F1F0000F3B581B00646FAF7D5
:1056F00059FDC7B20298FAF755FDC5B2002408E07B
:10570000214606204143305D0022FFF795FD641CD1
:10571000E4B2BC42F4D3154E09E00024305DFDF73D
:10572000C6FD641CE4B2062CF8D37F1CFFB20A2F1E
:10573000F3D3002409E021460620414302980122C8
:10574000005DFFF779FD641CE4B2AC42F3D309E0DD
:105750000024305DFDF7ABFD641CE4B2062CF8D3E9
:105760006D1CEDB20A2DF3D3FEBD0000C657000834
:105770000000021107120413051408150816032867
:105780000A180101011A0707070707070707070794
:10579000100107012202230324041505260627070A
:1057A000181807072A0A0707070707070707070741
:1057B0000707070712021303140410101606280720
:1057C000170707071A0A0000000000000000000089
:1057D00000000000000000000000000000000000C9
:1057E00000000000000000000000000000000000B9
:1057F00000000000000000000000000000000000A9
:105800000000000000000000000000000000000098
:105810000000000000000000000000000000000088
:105820000000000000000000000000000000000078
:105830000000000000000000000000000000000068
:105840000000000000000000000000000000000058
:105850000000000000000000000000000000000048
:105860000000000000000000000000000000000038
:105870000000000000000000000000000000000028
:10588000000000000000000000000000000700070A
:105890000000147F147F1400246A2A2B12002313A3
:1058A00008646200364955225000000503000000DC
:1058B000001C224100000041221C000014083E0888
:1058C000140008083E080800005030000000006086
:1058D00060200000006060000000006060000000C8
:1058E0000000000000003E5149453E0004427F4058
:1058F00000004261514946002141454B31001814D6
:10590000127F10002745454539003C4A494930007F
:1059100001710905030036494949360006494949DC
:105920003E00003636000000005636000000081425
:105930002241000014141414140041221408000021
:10594000020151090600324979413E007E111111D0
:105950007E007F49494936003E41414122007F4156
:1059600041221C007F49494949007F09090901007A
:105970003E41494972007F0808087F0000417F418D
:1059800000002040413F01007F08142241007F4079
:10599000404040007F020C027F007F0408107F001F
:1059A0003E4141413E007F09090906003E41512127
:1059B0005E007F0919294600464949493100010125
:1059C0007F0101003F4040403F001F2040201F005A
:1059D0003F4038403F006314081463000708700814
:1059E0000700615149454300007F41410000020426
:1059F000081020000041417F000004020102040061
:105A0000404040404028000102040000205454540B
:105A100078007F48444438003844444420003844E7
:105A200044487F00385454541800087F0101020094
:105A30000C5252523E007F080404780000447D401E
:105A400000002020443D00007F102844000000009A
:105A50007F4020007C04180478007C08040478004F
:105A60003844444438007C141414080008141418F2
:105A70007C007C0804040800485454542000043F6F
:105A8000444020003C4040207C001C2040201C0062
:105A90003C4030403C004428102844000C505050FA
:105AA0003C004464544C44001F001F111F001F00A1
:105AB0001D1517001F0017151D00380408100E00D3
:105AC0002A2A7F2A2A007C1211127C007F49494928
:105AD00031007F49494936007F0101010300603EE2
