:020000040800F2
:1000000048080020D5000008B1270008E9230008AF
:1000100000000000000000000000000000000000E0
:10002000000000000000000000000000192A000885
:100030000000000000000000512800081B2A0008F2
:10004000E7000008E700000831290008E700000881
:10005000E7000008E9020008F3020008E7000008D2
:1000600000000000E7000008E7000008E7000008C3
:10007000E7000008E700000800000000052C000869
:100080000000000000000000000000000000000070
:10009000A12B000800000000D92B0008E700000891
:1000A00000000000E7000008000000000000000061
:1000B00085310008E7000008000000000000000093
:1000C0000348854600F096F8004800474D35000883
:1000D000480800200448804704480047FEE7FEE740
:1000E000FEE7FEE7FEE7FEE7D52A0008C1000008AC
:1000F00030B50B46014600202022012409E00D46C0
:10010000D5409D4205D31D469540491B2546954047
:1001100040191546521E002DF1DC30BD70B500248B
:100120002546002801DA01244042002901DA012590
:100130004942FFF7DDFFAC4200D04042002C00D026
:10014000494270BDF0B51FB40646002082B0054696
:100150004024019100901BE0019922460F46304651
:1001600000F037F8049A059B801A994110D3104685
:100170001946224600F01DF8361A8F410197224693
:1001800001200021009F00F014F838184D41009024
:100190002046641E0028DFDC019B00982946324679
:1001A00007B0F0BD421C0178401C0029FBD1801A29
:1001B000704710B5202A04DB0146203A9140002008
:1001C00010BD914020239C1A0346E3401943904000
:1001D00010BD10B5202A04DB0846203AD04000218B
:1001E00010BD0B46D340D0402024A21A91400843B2
:1001F000194610BD064C0125064E05E0E36807CC04
:100200002B430C3C98471034B442F7D3FFF75CFF04
:10021000246000084460000838B5044606480549D3
:100220000068FFF765FF604300E0401E0090002873
:10023000FBD138BD40420F005C000020F8B50446F9
:10024000006881688907890F012902D10168C907FF
:1002500022D18168114A10261140012500290ED1B2
:100260008168294381600120FFF7D6FF00F0A4FCDC
:1002700007460CE000F0A0FCC01B0A2807D9A06DBF
:100280003043A065E06D2843E0650120F8BD20689B
:100290000068C043C007EDD10020F8BD1700008002
:1002A0007EB5FF226B461A701A710E4B0022DC1DC0
:1002B000F9340EE06E46855C3679754002956E46DF
:1002C0005D5D367875406E463571029D655D3570B1
:1002D000521C491EEED2694608780979000208438B
:1002E0007EBD0000BE5D000810B5022000F0A8FB36
:1002F00010BD10B5082000F0A3FB10BD10B50849D3
:1003000000234B6107494A684C1522434A604A68FA
:10031000082422434A60C009C001036010BD0000E8
:10032000300400200020024010B5214A00209169CD
:10033000CB05204904D5486902231843486190152C
:1003400093699B0505D54B69012423434B616302E7
:10035000184393695B0505D54B69082423434B611A
:10036000E301184393691B0505D54B690424234316
:100370004B616302184393699B0405D54B691024B4
:1003800023434B616302184393699B0304D54C6973
:1003900020231C434C6118439369DB0305D54B694B
:1003A000402423434B61A1020843906110BD00002B
:1003B000002002403004002070B5044600F0FCFB31
:1003C0000546184E0AE0601C08D0002C04D000F04E
:1003D000F3FB401BA04201D9032070BDB069C007E8
:1003E000F1D1B069800701D50220B061B069C005C4
:1003F00011D4B06980050ED4B06940050BD4B06942
:10040000000508D4B069800405D4B069800302D423
:10041000B069C00303D5FFF787FF012070BD00203E
:1004200070BD000000200240F0B585B000200490AF
:100430002648017C827C090612048918027D12027A
:100440008918827D8C18017E827E09061204891823
:10045000827F12028D181E494E7F818C0391018C80
:10046000408C0906090CC0B20F1800F0C9FA002030
:100470000090184801900220029004A9684600F0FC
:100480005DFA002801D000F093FA224611490220BB
:1004900000F098FA0F492A46091D022000F092FA4E
:1004A0000C4932460831022000F08CFA094902203A
:1004B0000C31039A00F086FA06493A4610310220C0
:1004C00000F080FA00F074FA05B0F0BD640200207C
:1004D00000000020007F0008F8B505460C464035B6
:1004E000297D01290DD00121297501688A685207EB
:1004F00009D5816D202211438165002028750120D6
:10050000F8BD0220F8BD174B6268D80547109A4223
:10051000154E8A6A236812D05B035B0B1A438A620A
:100520002168490305D5B1680143B1600A20FFF78E
:1005300073FE2068800312D5B06838430EE05B0379
:100540005B0B9A438A622168490302D5B1688143F3
:10055000B1602068800302D5B068B843B060002065
:100560002875F8BD01100000002701400068006CEC
:100570007047000070B5040006D0A06D2546002627
:100580004035002802D006E0012070BDE6652E75DA
:10059000204600F0D1F8A06DC00603D42068816821
:1005A000490705D5A06D10210843A0652E75EBE71E
:1005B000A16DFF220132914302221143A16581689E
:1005C0005B4A8907890F012902D10168C9072BD12C
:1005D000032361689B07994205D05B42994202D090
:1005E0005B00994209D1016989008908016120688D
:1005F00001696368194301610CE001698900890898
:10060000016190680F218904884390609068616857
:10061000084390602068C16818239943C16020682E
:10062000C168A3681943C1609068012149068843E5
:1006300090609068218F4906084390602068816827
:10064000C90004D481680122120711438160206827
:10065000C168384A1140C1602069E168022823D08E
:1006600000200143206A226B4003520010430143E3
:10067000606B0143A06980030143E069C00301434B
:100680002068C2681143C160A06A0146FF39C239BF
:1006900005D0E16A08432168CA681043C860606AEF
:1006A0000121012802D00BE00420DAE7206A0028AB
:1006B00023D0A06D20221043A065E06D0843E065C3
:1006C000206C012820681FD00169C90703D0016987
:1006D00049084900016120684169C908C9004161B0
:1006E00020684169E26B11434161E665A06D8008B5
:1006F0008000401CA065002070BD2068C2680123F6
:100700001B041A43C260DBE70269FF239B009A4384
:10071000026120680269636CE56C1A43A36C2B4389
:100720001A430261206802690A430261D3E70000AC
:10073000002701401902FEFF00B500680A4985B094
:1007400088420FD10948416B421511434163102083
:1007500000900320019000200290052069460007C8
:1007600000F07AF905B000BD0024014000100240FD
:10077000F8B504464069274640370D4608280BD097
:100780002068C068C00709D0A06D20210843A0657B
:10079000002038750120F8BD082600E00C2600F086
:1007A0000BFA009011E0681C0FD0002D05D000F06E
:1007B00003FA0099401AA84207D9A06D0421084302
:1007C000A065002038750320F8BD2068006830421D
:1007D000E9D0A06D012149020843A0652068C168E5
:1007E0000C220905890F00291AD1216A002917D185
:1007F0000168090714D5816801234907002908DB2E
:10080000416891434160A06D190288431843A06577
:1008100006E0A06D20210843A065E06D1843E06567
:10082000A069002801D1206802600020F8BD000006
:1008300070B50446216800208968490721D42546FF
:100840004035297D01291CD001212975E169012943
:1008500004D02046FFF7F2FC002811D1A16D0A4A0E
:100860001140FF2201321143A1650021E165297584
:1008700022681C21116021688A6804231A438A6057
:1008800070BD022070BD0000FEF1FFFF70B50024B6
:10089000024620325179022903D00421C163012488
:1008A0003CE001680B680E25AB430B6001680B68E8
:1008B0005B085B000B601A4B0168994201D1012172
:1008C00021E0174B1433994201D110211BE0144B46
:1008D0002833994201D1891515E0114B3C339942D7
:1008E00001D189140FE00E4B5033994202D10121FE
:1008F000090408E00A4B6433994202D10121090539
:1009000001E001210906064B083B596001215171A4
:1009100000211171816B002900D08847204670BDED
:100920000800024031B500F047F9044600F044F9F0
:100930000099001B8842F9D338BD0000F8B5194F63
:100940000546387C0E46012807D001203874164829
:10095000FFF732FD002802D020E00220F8BD002180
:10096000C94331606C6813E02046FFF7C7FC0E48AE
:10097000FFF722FD0D494A6808239A434A604A68F6
:100980004B159A434A60002801D0346006E0803459
:10099000A9686A68C9018918A142E5D8002139749B
:1009A000F8BD00003004002050C3000000200240C9
:1009B0000348416802221143416000207047000053
:1009C00000200240F8B50C4C1646207C0F4601284A
:1009D00008D0012020740948FFF7EEFC002500280C
:1009E00002D006E00220F8BD65613E600348FFF7D3
:1009F000E3FC2574F8BD00003004002050C3000063
:100A00000948416889070CD54168C90703D00749DF
:100A1000C1600749C16007490161074901610020C0
:100A2000704701207047000000200240EFCDAB89E5
:100A300005040302BFAE9D8C161514137047000009
:100A400010B504494A69024202D04861FFF7F6FF37
:100A500010BD000000040140F0B500228DE001242B
:100A60009440A44623407DD04C68022C01D0122C27
:100A70000CD1D408A40027183D6A5407E40E0F26B1
:100A8000A640B5430E69A6402E433E624C68012C39
:100A900005D0022C03D0112C01D0122C11D1856865
:100AA00054000326A640B543CE68A6402E43866078
:100AB00044686546AC430D79ED06ED0F954025433E
:100AC0004560076854000325A5400E79AF43B6077B
:100AD000B60FA6403E430660C668AE438D68A5408B
:100AE0003543C5604C68E40046D5274C666B01254C
:100AF0002E4366639508254CAD002F19BD689407F9
:100B0000240F0F26A640B54305263607B04201D173
:100B100000260FE01E4EB04201D101260AE01D4E14
:100B2000B04201D1022605E01B4EB04201D105269C
:100B300000E00626A6402E43BE60184D2C684E6885
:100B40009C43F60300D51C432C606C684E689C43A4
:100B5000B60300D51C436C60AC684E689C43F6023B
:100B600002D500E008E01C43AC60EC684E689C4392
:100B7000B60200D51C43EC60521C0B681C46D440E6
:100B800000D06CE7F0BD0000001002400000014002
:100B90000004005000080050001C005000040140F8
:100BA0000069084000D001207047002A01D081610F
:100BB000704781627047000001480068704700007C
:100BC0005800002070B504000FD021681348086059
:100BD00021681348086003CC41602068083C216804
:100BE0008860FFF7E9FF054608E0012070BDFFF7C8
:100BF000E3FF401B302801D9032070BD2068C06886
:100C00000028F4D120680269E1688A4201D00161BC
:100C100001E004490160002070BD0000CCCC000060
:100C200055550000AAAA0000006802490160002092
:100C300070470000AAAA000002480168491C016030
:100C4000704700005800002010B506480168402297
:100C500011430160002000F007F800F019F80020AF
:100C600010BD00000020024010B5044607487D2159
:100C7000C9000068FFF73CFA01F09CF80022214609
:100C8000501E00F02BF8002010BD00005C0000207A
:100C900010B50C48416B012211434163816B020482
:100CA0001143816300221146501F00F017F8002203
:100CB0001146901E00F012F800221146501E00F05E
:100CC0000DF810BD00100240C106C90E0120884079
:100CD000014908607047000000E100E010B501F034
:100CE00095FD10BD0248016802151143016070476F
:100CF00000700040024801684215114301607047CE
:100D0000007000400248016882151143016070477D
:100D1000007000400A4B1A689208920002431A6061
:100D20000848026904231A430261012906D040BF22
:100D300020BF20BF016999430161704730BFF9E7C7
:100D40000070004000ED00E0F8B53E4D0146012383
:100D50000020DB033A4C3B4A4035022932D00429BB
:100D600049D008295AD020290AD12C69296903259C
:100D70002D0429405E00B14203D1A60501D51846D5
:100D8000F8BD01235B04994203D1A30701D52E4886
:100D9000F8BDA942FCD111688903F9D51068032177
:100DA0000905084001210905401A09D0401A05D05B
:100DB000884201D12548F8BD2548F8BD2548F8BD31
:100DC0002548F8BDE9680C26314009D008290AD029
:100DD00004290DD00C29F4D129698905CFD4F8BD97
:100DE00000F0A6F9F8BD11684907FBD52046F8BD0B
:100DF00000F0BEF9F8BDE9680326B6023140EFD035
:100E00000127FF02B94202D112685207EED4012233
:100E100092029142ECD0B142DED0F8BDE9680323E2
:100E20001B031940DCD001235B03994202D11268F5
:100E30005207DBD4012212039142D9D0F8BD000041
:100E40000024F400001002408890000020A1070058
:100E500000093D0040420F0080841E00F8B50446A2
:100E60000078534D80067AD5514800264038806B73
:100E7000C00006D44E484038816B020411438163A0
:100E800001264C480168C90510D401688215114338
:100E90000160FFF791FE074604E0FFF78DFEC01BDF
:100EA00064283AD843480068C005F6D54048403821
:100EB00000680321090562680840114081420AD098
:100EC0009003800F032806D139484038006880031A
:100ED00001D50120F8BD286903210904084021D06B
:100EE0000A4082421ED0207880061BD528692A69D4
:100EF00088430121C9040A432A612A698A432A6175
:100F00002861C0050ED5FFF757FE074607E0FFF73B
:100F100053FEC11B2848814201D90320F8BD28692E
:100F20008005F4D560688103890F032908D1204B1F
:100F3000403B196803221205914310400143196098
:100F40002869032261681204114008432861002EB9
:100F500005D017484038826B01048A4382632078A9
:100F6000800705D5E8680C218843A1680843E8603C
:100F70002078400706D5E868032189028843E168A4
:100F80000843E8602078000706D5E86803210903D4
:100F9000884321690843E8602078000606D5E868A0
:100FA00003218904884361690843E8600020F8BD93
:100FB000401002400070004088130000F8B504465D
:100FC00053480E460068C007C00FB0420AD25048CE
:100FD000016849084900314301600068C007C00F3B
:100FE000B0426FD120784B4F800705D5F868F021CB
:100FF0008843A1680843F8602078C00752D0606831
:10100000022817D0032818D03968012818D089057C
:10101000002957DAF968890889000143F960FFF768
:10102000CBFD05466068022812D003281CD0012899
:1010300026D033E039688903EAE739688901E7E7B0
:101040004907E5E7FFF7B8FD411B3348814223D844
:10105000F8680007800F0228F4D123E0FFF7ACFD09
:10106000411B2D48814217D8F8680007800F0328DC
:10107000F4D117E0FFF7A0FD411B274881420BD8B0
:10108000F8680007800F0128F4D10BE0FFF794FD0A
:10109000411B2148814201D90320F8BDF8680007AF
:1010A000800FF3D11A480168C907C90FB1420BD9A3
:1010B000016849084900314301600068C007C00F5A
:1010C000B04201D00120F8BD2078400706D5F8686D
:1010D000072109028843E1680843F8602078000787
:1010E00007D5F8680721C90288432169C900084368
:1010F000F86000F03DF8F968084A0906090F515CEC
:10110000C840074908600020FFF7AEFD0020F8BD89
:101110000020024000100240881300000060000818
:101120005C00002001480068704700005C0000205F
:10113000044805490068C968044A4905490F515CDB
:10114000C84070475C000020001002401960000891
:10115000044805490068C968044A8904490F515C7C
:10116000C84070475C000020001002401960000871
:1011700010B5194AD1680C230846184004280BD032
:10118000082810D00C2810D050680004410F01200E
:10119000C003491C884010BD1068C00601D50F4827
:1011A00010BD0F4810BD0F4810BD88020E4B000F38
:1011B000185C0902D368890F491CDB0301D5094A71
:1011C00005E01268D20601D5044A00E0044A504303
:1011D000FEF78EFF10BD00000010024000093D0028
:1011E0000024F40000127A0010600008F8B50446EC
:1011F0000078F24EC00749D0F0680007800F02283F
:1012000007D0F0680007800F032809D1F068C003F9
:1012100006D53068800339D56068002872D035E083
:10122000012160680904884202D13068084310E057
:10123000052301221B0492049842306802D1104316
:101240003060F2E7884330603068084000903068D2
:1012500090433060606800280CD0FFF7ADFC054675
:1012600004E0FFF7A9FC401B64287DD830688003A8
:10127000F7D50BE0FFF7A0FC054604E0FFF79CFC68
:10128000401B6428F1D830688003F7D420788007A9
:1012900041D5F0681F270007800F3F02012807D0C3
:1012A000F0680007800F032809D1F068C00306D456
:1012B0003068400717D5E068012823D113E0E068C3
:1012C000002817D031680922914301433160FFF7AC
:1012D00073FC054604E0FFF76FFC401B0228C4D8EE
:1012E00030684007F7D570682169B84309020843A0
:1012F000706010E03068400840003060FFF75CFC30
:10130000054605E099E0FFF757FC401B0228ACD8E2
:1013100030684007F7D42078C00676D5F068A84F2B
:101320000007800F0BD0A06900285DD03068FF2136
:10133000013108433060FFF73FFC054644E0306868
:10134000800502D5A069002877D0206A71683940ED
:10135000884212D901F084FA0028AED17068216A5F
:10136000B8430843706000E0BDE07068217F000270
:10137000000A0906084370600FE07168B943014331
:1013800071607068217F0002000A090608437060DE
:10139000206A01F065FA00288FD1206A410B0120F4
:1013A000C003491C8840F16809060A0F8549895C19
:1013B000C840854908600020FFF756FC25E0FFF78C
:1013C000FBFB401B02288AD830688005F7D570687F
:1013D000216AB843084370607068217F0002000AE8
:1013E00009060843706010E03168FF200130814336
:1013F0003160FFF7E1FB054604E0FFF7DDFB401B32
:10140000022870D830688005F7D420786F4D000727
:1014100023D560690028286910D00121084328617C
:10142000FFF7CAFB074604E0FFF7C6FBC01B022814
:1014300059D828698007F7D50FE0BCE04008400084
:101440002861FFF7B9FB074604E0FFF7B5FBC01BB7
:10145000022848D828698007F7D42078400762D549
:1014600000200090B06BC00006D4B06B01210907CA
:101470000843B0630120009055480168C90510D4A5
:101480000168821511430160FFF796FB074604E0EF
:10149000FFF792FBC01B642825D84D480068C005A3
:1014A000F6D5FF20A1680130814203D129690143AB
:1014B000296111E001229202002907D005231B02B5
:1014C000994203D1296911432961EFE729698143D1
:1014D0002961286990432861A06800280ED0FFF791
:1014E0006BFB074606E05FE0FFF766FBC11B394870
:1014F000814259D828698005F6D50CE0FFF75CFBDE
:10150000074605E0FFF758FBC11B324881424BD824
:1015100028698005F6D40098002804D0B16B01201A
:1015200000078143B163606A002842D0F16809076F
:10153000890F03293FD001273F060228306805D0D4
:10154000B8433060FFF738FB04462FE0B843306003
:10155000FFF732FB054604E0FFF72EFB401B022895
:1015600022D830688001F7D4E16AA06AF2680843A3
:10157000216BFD231B049A4311430843F06030683C
:1015800038433060FFF718FB044604E0FFF714FB14
:10159000001B022808D830688001F7D509E0FFF762
:1015A0000BFB001B022801D90320F8BD3068800125
:1015B000F5D40020F8BD0120F8BD00000010024065
:1015C00000E00000006000085C00002040100240C5
:1015D0000070004088130000FFB581B016460F462A
:1015E000040005D025466035687A002803D007E05E
:1015F000012005B0F0BD00202872204600F012FE48
:101600002420687220680168490849000160606A06
:10161000002802D0204601F068FB204601F052FC71
:101620000128E6D02068816801229203114381607D
:1016300020688168520091433943816004997005A4
:101640000904014320680268064B1A400A430260FD
:1016500020680168012211430160204601F0AAFBC5
:10166000C7E70000FFFF00FC006889005030081841
:1016700000687047006889005030081802607047A1
:10168000F8B50546044620352878012819D00120F0
:101690002870022068702168CA204862216853209F
:1016A000486220688168012292029143816020682B
:1016B0008168120191438160FFF77EFA0646002798
:1016C0000FE00220F8BDFFF777FA811B7D20C000F4
:1016D000814206D92168FF204862032068702F707C
:1016E000F8BD2068C0684007EDD52168FF2048623A
:1016F000012068702F700020F8BD0000F7B5054686
:10170000044620352878012813D0012028700220B3
:1017100068702168CA2048622168532048622068A6
:10172000806800274005002810DAFFF745FA0646D2
:1017300008E00220FEBDFFF73FFA811B7D20C000BC
:1017400081421BD82068C0684007F4D420688268B2
:10175000012189028A4382602068C1688022114089
:10176000204A8918C160FFF727FA06460DE0FFF707
:1017700023FA811B7D20C000814206D92168FF2009
:101780004862032068702F70FEBD2068C068400763
:10179000EDD521680198486120688168C908C900B1
:1017A000816020688168029A114381600E48016857
:1017B0000122120511430160816811438160206894
:1017C0008168921111438160206881681211114370
:1017D00081602168FF204862012068702F7000201E
:1017E000FEBD00007FFBFFFF0004014002480168CE
:1017F00004221143016070470070004010B5044698
:101800000068C068400509D52046FFF7EFFF206853
:10181000C16880221140054A8918C160012004492D
:101820000005486101202034607010BD7FFBFFFF80
:101830000004014010B500680B464068C021C94350
:1018400001400002000ECC04D870E40E5C708C06DF
:10185000A40E0904490F9C701970002A0AD101F0E6
:1018600037F8D870587801F033F85870987801F04C
:101870002FF89870002010BD30B50B460168896ABA
:101880005960016809694904490C99600068046855
:101890000F482146014088024D04800E18706D0EDD
:1018A00049065D70490E99706102490E402421403D
:1018B000D970002A0AD101F00BF81870587801F09D
:1018C00007F85870987801F003F89870002030BD40
:1018D0007F7F7F0070B5040005D0254620356878ED
:1018E000002802D006E0012070BD002028702046AC
:1018F00000F042F8022068702168CA20486221681E
:1019000053204862204600F0F6FFFF21002820689F
:1019100003D0416204206870E5E78268154B1A40E5
:101920008260206882686368A6691A43236933432A
:101930001A4382602268E068106120680269238986
:101940001B041A4302612068C26880239A43C26064
:101950002068C26C92089200C264E2696069024326
:101960002068C36C1A43C264206841620120687019
:10197000002070BDBFFF8FFF00680549884205D178
:10198000044801690122920411430161704700007B
:101990000028004040100240F8B5054604462035B6
:1019A00028780B46012822D0012028700220687078
:1019B0005878002A1DD000F08BFF987800F088FF3F
:1019C000D8789E78000406435878197800024903B5
:1019D000084306432168CA204862216853204862B0
:1019E000204600F088FF002700282AD117E00220B7
:1019F000F8BDC10603D5EF2108400A305870D878E9
:101A000000F06EFF0604587800F06AFF00020643FB
:101A1000987800F065FF064318784003D9E711482D
:101A20000640206846602068C16880229143C160FA
:101A30002068806880060CD4204600F08DF80028CD
:101A400007D02168FF204862042068702F700120B1
:101A5000F8BD2168FF204862012068702F700020C7
:101A6000F8BD00003FFFFF00F8B5064604462036EB
:101A700030780D4601280ED00120307002207070A1
:101A8000206800278068002A07D040061AD52878E9
:101A900000F01EFF17E00220F8BD400600D4EF70F2
:101AA000287800F01DFF0204687800F019FF00029A
:101AB0000243A87800F014FF0243E87800040243D0
:101AC00000920BE0EF702978A87809040843697840
:101AD000EA78090212041143084300902168CA20E1
:101AE0004862216853204862204600F004FF002825
:101AF0001FD1184900980840216808602068816853
:101B00000122920491438160E968286901432068B9
:101B10008268114381602068C16880229143C1605E
:101B20002068806880060CD4204600F015F8002854
:101B300007D02168FF2048620420707037700120B0
:101B4000F8BD2168FF2048620120707037700020C6
:101B5000F8BD00007F7F7F0070B505460068C16852
:101B6000A0229143C160FFF727F87D260446F600C6
:101B700006E0FFF721F8001BB04201D9032070BD39
:101B80002868C0688006F4D5002070BD70B50400D8
:101B900006D025464035687C0026002802D005E0A6
:101BA000012070BD2E74204600F02EF802206874CB
:101BB00020680168402291430160A1686068226941
:101BC0000843E16811430843616901220843A169A0
:101BD000520211400843E1690843216A0843A16A9F
:101BE000084321680860A0690421000C0840616A6C
:101BF0000843216848602168E06A08616665012041
:101C00006874002070BD000000B500680C4985B004
:101C1000884212D10B48416B821411434163E0208A
:101C20000090022001900021032003900291049172
:101C3000052069460007FEF70FFF05B000BD000054
:101C40000030014000100240FFB505460446403513
:101C5000687C81B0012872D100293CD0002A3AD09A
:101C6000287C01286BD0012028741220687400277A
:101C700067652163A286E286E764A764A763A787F6
:101C8000E7870126A06A7603B04207D12068016881
:101C9000B143016020680168314301600121A068FF
:101CA000C903884205D120680168012292031143CB
:101CB000016020680168490603D40168402211438D
:101CC0000160E0680028606808D0002820D0E08E1D
:101CD00001281DD026E0012005B0F0BD002802D06B
:101CE000E08E012808D1206B411C21632168007817
:101CF000C860E08E401EE086E08E002820D00022E2
:101D000002212046049B00F01BFE002815D1EAE7C3
:101D1000206B21680088C860206B801C2063E08EE7
:101D2000401EE086E08E00280AD0002202212046D4
:101D3000049B00F005FE0028EAD00320CCE729E050
:101D4000A06AB04205D12068016801221203114344
:101D50000160002202212046049B00F0F1FD2026B4
:101D6000002807D1012280212046049B00F0E8FDD5
:101D7000002803D0606D30436065DEE7A06800286E
:101D800003D12068C16880680090012068742F74B6
:101D90000020A1E702209FE70422044904280869E3
:101DA00002D09043086170471043FBE700E000E079
:101DB00070470000094910B5401E884201D9012032
:101DC00010BD074C60610321081F00F01FFD0020BB
:101DD000A06107202061002010BD0000FFFFFF0070
:101DE00000E000E010B5FFF7E3FF10BD70B502465C
:101DF0002032137D012B1BD001241475022353754F
:101E000003685D687026B5435D6003685D680E68B1
:101E100035435D6003689D688026B5439D6000681A
:101E2000836849680B43836054750020107570BD4A
:101E3000022070BD70B5040005D025462035687DB0
:101E4000002802D006E0012070BD00202875204641
:101E500000F00AF802206875211D206800F0E6FEF7
:101E600001206875002070BD006801218907884243
:101E700004D10348816B0122114381637047000044
:101E8000001002400168CA6801231A43CA60006852
:101E90000168194301600020704700000168CA68AA
:101EA00052085200CA600068016A044A114203D114
:101EB00001684908490001600020704711110000C5
:101EC000F8B5054604462035287D012817D001279E
:101ED0002F7502206875206882687726FF23B24339
:101EE0001B029A4382600868502836D00EDC2028F6
:101EF00056D006DC00284DD010283FD14DE00220FE
:101F0000F8BD30284FD0402838D13BE060282CD095
:101F1000702816D001221203801A0DD090422DD1C4
:101F2000CB684A688968206800F0A8FE206881684C
:101F30000122920311430EE020688168C908C9009C
:101F400009E0CB684A688968206800F097FE20683D
:101F50008168B1433143816010E0CA6849682068F4
:101F600000F09FFE5021206806E0CA68496820689A
:101F700000F0A8FE6021206800F08BFE6F75002045
:101F80002875F8BDCA684968206800F08AFE4021BB
:101F90002068F1E700212068EEE710212068EBE7D8
:101FA00020212068E8E730212068E5E7704770B518
:101FB0000446006801690025C9438907002915DB2B
:101FC000C168C943890711D4E91E01610120207548
:101FD000206880698007204602D0FFF7E7FF04E011
:101FE00000F078F8204600F076F825752068016941
:101FF000C943490717D4C168C943490713D4042109
:10200000C943016102202075206880698005800F26
:10201000204602D0FFF7CAFF04E000F05BF820463C
:1020200000F059F8257520680169C943090716D4DD
:10203000C168C943090712D40821C94301610420BA
:1020400020752068C0698007204602D0FFF7AEFFE8
:1020500004E000F03FF8204600F03DF825752068C8
:102060000169C943C90617D4C168C943C90613D455
:102070001021C9430161082020752068C0698005CE
:10208000800F204602D0FFF791FF04E000F022F815
:10209000204600F020F8257520680169C943C9076A
:1020A00008D1C168C943C90704D1891E016120460E
:1020B00000F012F820680169C943490609D4C168D3
:1020C000C943490605D44021C9430161204600F0B7
:1020D00004F870BD7047704770477047704770478D
:1020E000F8B502680446D069116805072D0F07D1BD
:1020F000830605D58B0603D5204600F0A4FEF8BD67
:1021000093682026002D65D0DD07ED0FFF272137CE
:102110000F402F435ED0C70706D0CF0504D5012757
:102120001762E26E3A43E266820708D5DA0706D004
:10213000276802223A62E26E04273A43E2664207C7
:1021400008D5DA0706D0236804221A62E26E022359
:102150001A43E266020709D50A4632402A4305D0EF
:10216000236808221A62E36E1343E366E26E002AD4
:10217000C5D0800604D5880602D5204600F063FE4F
:10218000E06E000703D42068806840061CD5204616
:1021900000F04AFE20688168490611D58268402116
:1021A0008A438260606E00280AD01D498163606E98
:1021B000FEF76CFB0028A2D0606E816B8847F8BDEB
:1021C0002046FFF78CFFF8BD2046FFF788FF002070
:1021D000E066F8BD2546C7026035002F0ADA5B02CB
:1021E00008D50120000510626E72AE722046FFF71E
:1021F00075FFF8BD030605D50B0603D5204600F094
:102200005DFFF8BD4006FCD54806FAD513682046A8
:1022100040218B4313606E7200F0E5F8F8BD0000BA
:10222000152E000800B50068114985B088421CD100
:102230001048816B01225204114381630E480090C3
:1022400002200190002002900320039004200490BB
:10225000052069460007FEF7FFFB002211461C20FF
:10226000FEF73CFD1C20FEF72FFD05B000BD000071
:1022700000440040001002400206000070B5034612
:1022800060339C7A202C44D100290BD0002A09D03D
:10229000012584682D03AC4206D10669002E03D1C6
:1022A000CE0701D0012070BD1E7A012E31D001264B
:1022B0001E724165014640310A834A83FF22AC42C7
:1022C00004D10469002C12D1134A10E07F25002CA0
:1022D00008D00122120794420AD10269002A04D0D0
:1022E0003F2204E00469002C01D08D8300E08A8342
:1022F0000021C16622229A72197201688A683243EB
:102300008A6000680168FF222132114301600020C9
:1023100070BD022070BD0000FF0100007047FFB5D6
:10232000074605466037787A83B00C46202858D196
:10233000002C0CD00598002809D00120A9680003C2
:10234000814207D12869002804D1E00702D001208A
:1023500007B0F0BD387A012843D001203872002040
:10236000E86621207872FEF727FC01902E46403661
:10237000059830820598708218E0708A401E70823D
:1023800006980090002280212846019B00F0C9FE9B
:10239000002818D10120A9680003814202D12869D0
:1023A000002812D0296820788862641C708A00286E
:1023B000E3D106980090002240212846019B00F0BE
:1023C000B0FE002808D00320C2E720882968C00595
:1023D000C00D8862A41CE9E72020787200203872C2
:1023E000B6E70220B4E77047FEE70000FEB53B4FBA
:1023F0000026FC8B3A4D002C6CD0B88CE1210901F1
:102400004843398B3C2251434018798B4018214670
:10241000FDF76EFEE88638468C30397C0170B97C59
:1024200041708670012C54D96200A2181318397DAE
:10243000203B5977BA7D9A77DE7703783C271E4692
:102440007E4340784F433618BF18BE420FD2E12674
:10245000360171433C2672438918E122120153432D
:1024600070431818081A611EFDF758FEE863012032
:10247000641E6864019428E07000321817480092C6
:102480008C30141820462038417FE123C27F1B0185
:1024900059435118807F3C225043EA6B80180F1833
:1024A000194638462F64FDF723FE0C4B009A8C33F7
:1024B000985408463C21FDF71BFE60703C213846CD
:1024C000FDF716FEA170761C6E6401986E6CB0422A
:1024D000D2DCFEBD6E77FDF7A7FFFEBD64020020D3
:1024E000000000201CB5174815490160032292071F
:1024F00042600021016404231822C3638260012228
:102500000261C16041620262C16201634163816133
:10251000FF228163C23243618262C161FEF72AF801
:10252000002800D0FEE7084800900014019069469A
:102530000448FDF7D1FF002800D0FEE71CBD0000D5
:10254000002401406000002010000010F0B51D487C
:1025500087B0C26A04210A43C262C26A0A40059275
:10256000C16A01263143C162C16A31400591C16A25
:1025700002252943C162C06A0327284005907F03D2
:102580000520002239460007FEF70FFB0820002433
:10259000009005200194694602940007FEF75CFA5A
:1025A00000956946084802950194FEF755FA052002
:1025B000029469460007009701960394FEF74CFACF
:1025C00007B0F0BD0010024000040050F0B5214CEF
:1025D00087B01F48206000212046FFF745F81E4FB6
:1025E000B84232D01D480126467200257F20656022
:1025F000A06025616561A561FF20E561E06020467E
:10260000FFF768F9002800D0FEE7684605704570BE
:1026100085700395002269460E480495FFF724FA59
:10262000002800D0FEE76846067546758675C575B4
:10263000002205A90748FFF7AFF9002800D0FEE700
:102640003A4600210348FFF715F807B0F0BD000037
:1026500000280040C0000020F232000000000020EE
:1026600010B50E480C490160FF2105314160002181
:102670008160C16001610122520241618261C161D8
:1026800080224162026281620721C162FFF77EFA05
:10269000002800D0FEE710BD00300140E40000201B
:1026A00070B505461548416B202211434163154919
:1026B000134C7D2000220C6080018A60486002205B
:1026C0000A61C8600846FFF7B5FB002800D0FEE7A6
:1026D0000D48A0620D48405DE062E06801210843BA
:1026E000E06020680821084320600021162000F0E7
:1026F0006BF8162000F05EF870BD0000001002407C
:1027000000140140F40100203F1F0000E45F0008B6
:1027100010B50121124886B08907016000241149D3
:10272000846041607D21C9000461C160FFF782FBC4
:10273000002800D0FEE70120000300906946084809
:10274000FFF7BEFB002800D0FEE7049404A904486C
:102750000594FFF74BFB002800D0FEE706B010BD44
:102760003C0100203F1F000010B50D480B490160DF
:10277000E1214902416000218160C1600161816104
:10278000C1610C22016242610B4641620A46FEF7BA
:1027900023FF002800D0FEE710BD000000440040E9
:1027A00074010020002800D10846401EC0B27047C6
:1027B00070470000C106C90E012088400149086029
:1027C0007047000000E100E08307FF22DB0E9A4023
:1027D0008907090E994000280BDA0007000F083816
:1027E000830808489B001818C36993430B43C361CF
:1027F0007047830804489B001818036893430B43F1
:102800000360704700ED00E000E400E08307FF2272
:10281000DB0E9A408907090E994000280BDA000761
:10282000000F0838830808489B001818C3699343B1
:102830000B43C3617047830804489B001818036862
:1028400093430B430360704700ED00E000E400E0B9
:102850007047401CC0B2884200D30020704700007F
:1028600070B5174B0021DA681206120F18D19A6B57
:10287000154CD500134A02D51268224009E09E6B20
:1028800001252D072E439E6312689E6B2240AE43A6
:102890009E63A24204D103229203904200D10121FF
:1028A0000A480268520852000A4302600068C007E2
:1028B000C00F884201D0012070BD002070BD000013
:1028C000001002400070004000180000002002408C
:1028D00001090A2200075143000F4018C0B2704797
:1028E000002102E00A38C0B2491C0A28FAD20907BE
:1028F000090E0843704770B505460068C16849066F
:1029000013D40021C943C160FEF756F97D26044661
:10291000F60006E0FEF750F9001BB04201D9032093
:1029200070BD2868C0684006F4D5002070BD000066
:1029300010B50248FEF762FF10BD0000C000002085
:10294000FFB581B01D4616460446FEF735F93146FF
:10295000264640360746002918D03BE0681C15D0B3
:10296000002D04D0FEF728F9C01BA8420ED920681C
:102970004268E0218A4342601CE0206802688A4382
:102980000260206802680A4302601CE020688168D7
:1029900002988843E2D122E0681C1BD0002D04D0AD
:1029A000FEF70AF9C01BA84214D920684168E0224A
:1029B000914341602068026840218A430260A06A16
:1029C000C9018842D9D001207074002030740320DE
:1029D00005B0F0BD2068816802988843DCD00020F3
:1029E000F6E7000031B53223012269460948FFF7B6
:1029F0002BF90122052554032D0721462846FEF711
:102A0000D4F80A2000F0D0FC002221462846FEF728
:102A1000CCF838BDE4000020704710B5FEF70CF983
:102A2000FFF7E0F910BD000010B5284998B008681C
:102A30000324E402A043CA1480180860FEF762F978
:102A400023490869A0430861062000908815029078
:102A500009200390102004900220099040040B905C
:102A6000000100240C900A946846FEF7BFFB002882
:102A700000D0FEE70F200D9003200E900F941094CD
:102A8000002111940DA8FEF799FA002800D0FEE766
:102A900022201290012000041390149412A8FEF733
:102AA000DDF9002800D0FEE7FEF73CFB7D21C900E0
:102AB000FDF71EFBFFF77EF90420FFF76DF90022FA
:102AC0001146501EFEF70AF918B010BD0070004004
:102AD0004010024010480168821511430160C1682E
:102AE0000E4A1140C16001680D4A114001608168C1
:102AF0004908490081600168012292049143016004
:102B0000C168FD2212049143C160002101610549A1
:102B1000C003886070470000001002400C40FF882E
:102B2000F6FFF6FE00ED00E030B51A4C87B0A06B62
:102B300021040843A063FEF7DDF8FEF7D3F8E06850
:102B40000121C9038843E060E06A01210843E06293
:102B5000E06A08400590E06A02252843E062E06AE6
:102B60006946284005900C48009003200190002001
:102B7000029005200007FDF76FFF69460748FDF743
:102B80006BFFE06A40084000E062E06AA843E06250
:102B900007B030BD00100240FFFF000000040050ED
:102BA0000A4908694008400008610948C278002ABB
:102BB00006D00022C2700868064A104008607047BC
:102BC00003490120203908767047000000080140C1
:102BD00020000020FEFF000010B506480168064AEC
:102BE000114001600548FFF7E2F9054901208870AE
:102BF00010BD000000140140FEFF0000F4010020A1
:102C00000000002001208007016949084900016196
:102C100004490A6804231A430A600168024A114001
:102C20000160704700700040FEFF0000F0B50268D0
:102C30000124A4070F4D104EA04203D0A84201D09A
:102C4000B04204D1134670274A68BB431A43A042DE
:102C500003D0A84201D0B04204D103231B029A43FF
:102C6000CB681A4302608A68C262096881620121E6
:102C70004161F0BD000801400014014030B5846896
:102C8000FF252D021B021343AC430B4323438360F8
:102C900030BD826870239A430A4307210A43826049
:102CA000704730B5036A046A64086400046284698A
:102CB000F025AC43120122430A24A3430B43826153
:102CC000036230BD30B5036A1024A34303628369F5
:102CD000046A0F252D031203AB431A43A0239C4320
:102CE000090121438261016230BD10B5818CC907A1
:102CF00007D001684A6801235B049A43836A1A4338
:102D00004A60818C890707D501684A6801231B0442
:102D10009A43C36A1A434A60818C490707D5016800
:102D20004A6801239B049A43036B1A434A60818CCF
:102D3000090707D501684A680123DB039A43436BFF
:102D40001A434A60818CC90607D501688A68012345
:102D50001B039A43836B1A438A60818C890607D5CB
:102D600001688A6801235B039A43C36B1A438A6034
:102D7000818C490612D501684B6801221205046C4A
:102D8000934323434B60016C914207D101684A6829
:102D900003235B059A43436C1A434A60818C0906FE
:102DA00007D501684A680123DB04806C9A4302431B
:102DB0004A6010BDF8B500250446C566FDF7FCFE67
:102DC000074620680068124E000709D501213B46DE
:102DD000002249052046009600F0A3F900280DD1F5
:102DE0002068006840070BD501213B460022890579
:102DF0002046009600F095F9002801D00320F8BD88
:102E0000202060346072A07225720020F8BD00009E
:102E1000FFFFFF0110B5806A0022014640314A835E
:102E20004A82FFF75CF910BD01680A68FF2321336D
:102E30009A430A6001688A68520852008A60202119
:102E400060308172704770B5024640320146603191
:102E5000938B8D7A0C460168222D05D08869082253
:102E600010438861022070BD496A012685683603D7
:102E700089B2B54202D10569002D0BD01940436DCE
:102E80005D1C45651970518B491E0904090C51835D
:102E900007D015E0456D19402980416D891C4165B9
:102EA000F1E701680A68FF2321339A430A60016849
:102EB0008A68520852008A602021A172FFF72EFA18
:102EC000002070BDFEB504462269A168E369114384
:102ED00062691027002600681A43114302683546CC
:102EE0006D4B1A400A4302602068416803221203B6
:102EF0009143E26811434160684A2168A0699142A8
:102F000001D0226A10438A680B231B029A430243B2
:102F10008A60634A2068634990420AD1C8680C21DC
:102F200008402BD004282DD0082829D00C2810D1F7
:102F30000EE05A4A90420CD1C86803218902084029
:102F40001CD01115401A1DD0401A19D0884200D14A
:102F500008270220FDF7F8FE0190504B51492268E6
:102F60004039D81300929A4235D1002F0CD0022F4D
:102F70000DD0042F12D0082F1CD113E00027E8E752
:102F80000227E6E70427E4E7FEF7D2F808E008683E
:102F9000C00601D5444805E0444803E0FEF7E8F8E0
:102FA000002873D0626851005118814202D8110381
:102FB000814201D2012569E0010E0602500800237A
:102FC00030185941FDF7BEF803210902384A411A69
:102FD000914259D9EEE7E26982422DD13B0000F0DF
:102FE000AFF90906080B24192424241F2400019892
:102FF00012E0FEF7ADF80FE008686168C00602D580
:1030000048082C4A01E02C4A48088018FDF770F85F
:1030100086B20BE0FEF7ACF8616840004A08F4E7BE
:103020006168012248081204EFE70125310909010E
:103030003007400F084327E03B0000F081F9090703
:103040000A0D061D060606290600B3E7FEF770F80E
:1030500014E0FEF77DF811E008686168C00602D54B
:103060004A08114801E011484A081018FDF740F8D5
:1030700081B20098C16009E0FEF77AF861684A08F9
:103080008018FDF735F880B22168C8602846FEBD7B
:1030900061684A08E9E70000F369FFEF0048004073
:1030A000004400404010024000093D000024F400AC
:1030B000FFFC0F0000127A000048E8016921095C5A
:1030C000212901D002207047014640314A8A002A56
:1030D00012D0012382681B039A4202D10269002A9E
:1030E00015D0C26C531CC364006812788262488A8F
:1030F000401E48820020704701680A6880239A4376
:103100000A6000680168402211430160F2E7C26C66
:1031100003681288D205D20D9A62C26C921CC264F6
:10312000E5E7FFB581B01E46174605460A9C1CE040
:10313000601C1AD0002C04D0FDF73EFD801BA0427D
:1031400013D928680168FF22A132914301602868E1
:103150008168490849008160202060356872A87242
:1031600000202872032005B0F0BD2868C1690298CC
:10317000884304D00020B842DAD00020F3E70120D1
:10318000F9E7000070B5154BD86980061AD5144AC6
:10319000106814490840106000205062586AC1B29B
:1031A0001148057B114C002D10D0596A037BE15466
:1031B000017B132902D2017B491C01731068012194
:1031C000084310600A48FEF78BFF70BD074B3C3B7D
:1031D0001B8C8B42F2D1037BE154ECE700440040AE
:1031E00000140140FEFF000020000020A00200208B
:1031F0007401002010B50E490C4A0A600D4A800087
:103200001058486000208860C86008618861C86103
:103210000C2208624A61486203460246014604489D
:10322000FEF7DAF9002800D0FEE710BD00440040A8
:1032300074010020C05F000838B57D20C000FDF794
:1032400071FBFFF7F1FB02F0CFF9002000F094F8DA
:10325000022000F091F81448FEF712FA134C0125F1
:10326000207B092802D0218F002900D1E573002896
:1032700012D10FA10FA002F033FA002000900F48E6
:103280001E23817B007B002202F031F80C4840783D
:103290002074207B002806D0C0B2182803D025282F
:1032A00001D0E573257338BDC00000200000002068
:1032B00000000000CACED0CC000000006402002054
:1032C0001C04002010B5002100F006F810BD10B558
:1032D000012100F001F810BD73B50C463223012224
:1032E00069461648FEF7B0FC01F080FF05252D0762
:1032F000002C01D0012200E0002280212846FDF7A9
:1033000054FC042000F05CF8012294032146284676
:10331000FDF74BFC142000F053F80022214628460C
:10332000FDF743FC7D20C00000F04AF80022802118
:103330002846FDF73AFC01F069FF7CBDE40000205F
:1033400030B47446641E2578641CAB4200D21D461E
:10335000635D5B00E31830BC184702E008C8121F29
:1033600008C1002AFAD170477047002001E001C16E
:10337000121F002AFBD17047F8B5B8270546861CF6
:103380000FE028463843C0B2FFF79CFF0020FFF74C
:1033900099FF00240020FFF79AFF641C3D2CF9DB05
:1033A0006D1CB542EDDBF8BD08B5002100910A2186
:1033B0004843009901E0491C00918842FBD108BDB7
:1033C00008B500210091814201D0491CFAE708BDEF
:1033D000FFB50E461A4681B0083235460A99303597
:1033E000971D30301C46009200291AD001291CD0AC
:1033F000022914D1C0B22146039A01F019FFA11D80
:103400002E20039A01F014FF761CF0B2039A009963
:1034100001F00EFF39462420039A01F009FF05B0A0
:10342000F0BDC0B22146039A02E021460120039A72
:1034300001F0FEFEA11D2E20039A01F0F9FEE8B274
:10344000E4E70000F0B521490020CA8B002A00D132
:1034500004200B8A3C224E8A5A4395198A8A3C27BB
:1034600014467C43CF8AE419BC46A54201D301240B
:1034700020438D8C0C8B498B2F198E467744002F5F
:1034800001D102273843E1273F017A4367463C21B7
:103490004F43D2190E4FF98E5118E12212015343B6
:1034A0003C2256439A19891AE122120155433C22C3
:1034B00054432B1972469A18914201DC102108439B
:1034C000F96B3C2901D208210843F0BD64020020B9
:1034D0000000002070B56424884229D2184C3C2397
:1034E000A47853431B193C246043834201D98A4288
:1034F00001D9002421E08A4204D11248807F401E75
:10350000C4B21AE00F4901248C3101E0641CE4B21A
:10351000600020180A5CE1252D016A4340184578B7
:103520003C2675438078521910189842EED304E077
:10353000054900204877FCF777FF204670BD000062
:103540001C040020640200200000002088B0FDF769
:103550007BFBFFF769FAFFF7E7FAFA48C16A012730
:103560003943C162C06A002638400090F648039093
:1035700003200490052003A905960007FDF76CFAC7
:10358000FEF7E4FFFFF7F0F8FFF7C2F8FFF71EF8C9
:10359000FFF766F8FEF7A6FFED49EC480860062045
:1035A0004860EC48C86088600846FDF70BFB0028BF
:1035B00000D0FEE703210520002249030007FDF7A4
:1035C000F4FAE348FDF730FBE34CA07ADF21084032
:1035D000A072A07AFFF706FAFF20F530FDF7A2F9F6
:1035E00002F020F802F04EF8DC480068D84DA064E4
:1035F0008035401C0DD12E826E82AE82EE82AE846A
:103600002E836E83EE83AE83082068842F84FCF7BC
:103610000BFFA06C010E29820102090E69820104D0
:10362000090EA982C0B2E882CC48001D0068A064DF
:10363000010E29830102090E00046983000EE8834C
:10364000C6480C30006880B2A884092800D9AE842E
:10365000BF4D00268035C148AE8310300068A0649D
:103660000007000F6884FFF71BF8688CC0B2FFF7F3
:10367000C1FDA06C0004000E2884FEF7B7FEB4481C
:10368000FDF7D2FA6677607A00286CD0FCF7CCFEA2
:103690000220207301F0A8FF0020FFF76DFE02203A
:1036A000FFF76AFEAC4CE7730026A676A07ADF250A
:1036B0002840A072A07AFFF795F9FF20F530FDF7BA
:1036C00031F9A07A2840A072A07AFFF78BF9002286
:1036D00011460220FDF702FB0220FDF7F5FAA04893
:1036E000FDF7A6F800211C20FFF76EF81C20FFF75D
:1036F00061F8974870380068026820252A43026004
:1037000093499348267064230522D0317038FEF720
:1037100006FE8F498E480F22D0317038FEF7AEFD7D
:1037200001F062FF20348A48FDF77EFA8A48417F23
:10373000007F874D08188035288000211C20FFF766
:1037400043F81C20FFF736F82846F0380068016877
:10375000202211430160052008210007FDF720FA0F
:103760007D4908706DE07A498031C88B002836D0D9
:10377000088A3C22844650434A8A3C2316468018D5
:103780008A8ACD8A53435B19984228D28B8C088B46
:10379000498B1B18CB4222D0E1231B015A433C2307
:1037A0005D43E38E5219D518E12362461B015A434B
:1037B00033463C267343D2187043AA1A40188242FB
:1037C0000DDDE06B3C280AD3654801216030FDF730
:1037D0004BFF142803D261480830006860772773D4
:1037E00058E75B48FDF720FA2079002802D02671BF
:1037F000002007E05A4801216030FDF735FF80B214
:103800001E2806D2401C82B2554801216030FDF7C7
:1038100031FF53487D21002209016030FDF76EFF22
:103820004848816B02041143816301210846FDF77A
:1038300071FA052008210007FDF7B2F94649087022
:103840004F70454800780028CBD043484078002886
:1038500019D04148467042486030FDF711FFFFF72C
:10386000EBFC27713E4801216030FDF7FDFE192871
:1038700003D939484677FCF7D7FD394800220121A2
:103880006030FDF7F7FE3248FDF7CEF9607A002888
:103890000DD03448A17A8078884208D0A072E07AAE
:1038A000401CE072E07A132801D92B4847760120AA
:1038B00080070168244A521E114001602648007D9D
:1038C00000282548007B06D000280CD0182804D0FA
:1038D000252802D05DE0002805D01F486E80007BBF
:1038E000182841D000E06F80AE8064211C48FCF7AE
:1038F0003FFF1B48FCF73AFE80B202901648007B5F
:1039000000280BD01449182808D0252806D0887A1A
:10391000DF2210408872887AFFF764F8617B029892
:10392000884201D00C4807720B48027A002A30D036
:10393000C77486748279002A18D0029961738671DF
:10394000C6711DE000100240FFFF00000030004083
:10395000E4010020FF0F000000000020007F0008AD
:10396000600000201C040020AF80BEE7029B8A1C80
:10397000934212D2891E8B420FDB4179491C41715F
:1039800041790A2905D9467102996173C771067296
:1039900087712078002802D010E04671F8E70022F5
:1039A000F749F848FDF746FF0022F749F548FDF7CB
:1039B00063FFF5480178A9814078E881F0484C38E8
:1039C000407F002850D0607800284DD12078002812
:1039D0004AD16079642814D3A8893C214843E989F5
:1039E0003C234218A88A3C214843E98A401881B206
:1039F000288A58436B8AC01880B2FFF76BFD60714C
:103A000032E0E14B60791A7841004018DF49085CE8
:103A1000824229D11846427860794300C018401884
:103A20004078824220D1D848827860794300C0181B
:103A300040188078824217D1D1484C380673C7733A
:103A4000CF493D204C39087448740020FFF794FC9E
:103A5000CB48CB494C38C08E4C39401C08870846AF
:103A6000C7746079401CE884C5484C38C079002888
:103A700019D0C3494C39087B002815D0182813D019
:103A800002991839032903D2BD4A4C3A08283BD081
:103A900002981638022844D2AF208000FFF784FC39
:103AA000A07B00283BD0EBE2029818380328607C0A
:103AB00022D2002818D0B2484C38007E0028F2D01C
:103AC000B248C438FEF7EAF9AD484C380687467765
:103AD000FCF7AAFCAA4866744C388675002232218D
:103AE000312001F0A5FBCBE2A94867744662A748E4
:103AF000C438FEF7C7F9C3E20028D4D0A3486674DF
:103B0000C438FEF7CBF9BBE2AF208000FFF74CFCD6
:103B1000517B0029C7D19A484C384773A5E0A77359
:103B2000A3E00298401F02287BD2AF208000FFF75D
:103B30003BFCE07B002817D091484C38017E0029DF
:103B4000B1D0007B12380300FFF7FAFB19101A24DA
:103B500029334A49495A49494949494949151F2E72
:103B6000493D4F5449654900E7737EE0287B1821A1
:103B7000FEF76FFE88E0A87B3C21FEF76AFE89E035
:103B8000287C1821FEF765FE8AE0A87C3C21FEF720
:103B900060FE8BE0287D1821FEF75BFE8CE0A87F9D
:103BA0006421FEF756FE8DE0A87D3C21FEF751FE14
:103BB0008EE0A88B0A21FCF79BFA0A46C0B20A21C4
:103BC000FEF747FE8FE0A88B0A21FCF791FA0A2244
:103BD000424308460A21FEF73CFE1018A883B5E0D0
:103BE000287E3C21FEF735FE8FE0A87E3C21FEF7C3
:103BF00030FE91E0A88C0A21C0B2FEF72AFE92E0C6
:103C0000288CF721C0B2FEF724FE2884002800D1BA
:103C10002F849BE005E0688C0921C0B2FEF719FEF5
:103C200093E002980B38022871D2AF208000FFF792
:103C3000BBFB207C002817D051484C38017E00295E
:103C40001DD0007B12380300FFF77AFB191A2632C9
:103C500038445B80806F80808080808080202C3E14
:103C600080506268807A80002774494846624748DD
:103C7000C438FEF707F9667241484C388673FFE195
:103C8000287B1821FEF78EFDA8815FE0A87B3C21F0
:103C9000FEF788FDE88159E0287C1821FEF782FDB7
:103CA000288253E0A87C3C21FEF77CFD68824DE031
:103CB000287D1821FEF776FDA88247E0A87F6421C1
:103CC000FEF770FDE88341E0A87D3C21FEF76AFD28
:103CD000E8823BE0A88B0A21FCF70AFA0A46C0B248
:103CE0000A21FEF75FFD0A21484376E7A88B0A21E7
:103CF000FCF7FEF90A22424308460A21FEF752FD6C
:103D00006BE7287E3C21FEF74DFD28831EE021E075
:103D1000A87E3C21FEF746FD688317E0A88C0A21A7
:103D2000C0B2FEF73FFDA88410E0288CF721C0B296
:103D3000FEF738FD2884002808D1F620288405E005
:103D4000688C0921C0B2FEF72DFD68841148FFF789
:103D50002BFB95E1E07B217C084373D00B48C438F2
:103D6000FEF79CF806483D214C3801748773017EAC
:103D7000002901D006760FE1007B12380CE000002C
:103D80004C000020C00000201C040020F002002095
:103D900000080140D02000000300FFF7D1FA190EFF
:103DA0002C4A5A78AAFDFDD7FDFDFDFDFDFDFD1D48
:103DB0003B69FD92B9C8FDEFFD00E07B0028287B40
:103DC00004D0C0B21821FEF744FD03E0C0B21821B0
:103DD000FEF7E8FCA881DFE0E07B0028A87B04D0A8
:103DE000C0B23C21FEF735FD03E0C0B23C21FEF736
:103DF000D9FCE881D0E0E07B0028287C04D0C0B268
:103E00001821FEF726FD03E0C0B21821FEF7CAFC18
:103E10002882C1E0E07B0028A87C04D0C0B23C210D
:103E2000FEF717FD03E0C0B23C21FEF7BBFC688241
:103E3000B2E0E07B0028287D05D0C0B21821FEF753
:103E400008FD04E0ACE0C0B21821FEF7ABFCA8828C
:103E5000A2E0E07B0028A87F04D0C0B26421FEF776
:103E6000F8FC03E0C0B26421FEF79CFCE88393E019
:103E7000E07B0028A87D04D0C0B23C21FEF7E9FC1D
:103E800003E0C0B23C21FEF78DFCE88284E0E07BD9
:103E90000028A88B08D00A21FCF72AF90A46C0B2EC
:103EA0000A21FEF7D6FC07E00A21FCF721F90A46B1
:103EB000C0B20A21FEF776FC0A2148431018A883F5
:103EC0006AE0E07B0028A88B09D00A21FCF710F9F2
:103ED0000A22424308460A21FEF7BBFCEEE70A210C
:103EE000FCF706F90A22424308460A21FEF75AFC6B
:103EF000E4E7E07B0028287E04D0C0B23C21FEF736
:103F0000A8FC03E0C0B23C21FEF74CFC288343E050
:103F1000E07B0028A87E04D0C0B23C21FEF799FCCB
:103F200003E0C0B23C21FEF73DFC688334E0E07B57
:103F30000028A88C04D0C0B20A21FEF78AFC03E056
:103F4000C0B20A21FEF72EFCA88425E0E07B002801
:103F5000288C08D0C0B2F721FEF77BFC288400280B
:103F60001AD12F8418E0C0B2F721FEF71BFC288479
:103F7000002811D1F62028840EE0FFE7E07B00281E
:103F8000688C04D0C0B20921FEF763FC03E0C0B224
:103F90000921FEF707FC68846770E67326746FE0FA
:103FA000A07B00286CD0F848FDF778FFF7484675ED
:103FB000C672A6730020FFF7DFF9F448C773F34910
:103FC0003D2008740A7B182A00D04874EF48837E8D
:103FD000002B03D1EE495200895C01736078002800
:103FE00007D0EA48002B04D0C77766704677FCF705
:103FF0001BFA2078002813D0E448807E00280FD0D8
:104000002670E448297B0170A97B417086700146C7
:104010000022E148FDF728FDDC484677FCF704FA6A
:10402000DA48807F002818D0D849887E002814D02C
:10403000642060710846C07E002802D00846C6761B
:1040400007E0D249487F002805D000204877FCF7D8
:10405000EBF9CE4805E00120F8E7CC48817F002944
:1040600000D08677C948817E002900D0867600215D
:1040700002918773217A002902D0267202210173EE
:10408000C248007B2B287DD243007B449B885B0089
:104090009F442A001401C0010302470290026003FA
:1040A000F403BC0427054B057800780078007800FD
:1040B0007800C200BC01CC010F0282029C02E50321
:1040C0001504CB0478005805780078007800780053
:1040D000780078007800CC010F028202D202E5035A
:1040E0004C0481047800A505A848C07B002814D0A2
:1040F000AAA1ABA001F0F4FAA448C673807A2021EB
:104100000843A24988720846807AFEF76BFC667203
:104110009E4886736079401C60719E4841789B4838
:10412000007C814231D0994800790028974803D01B
:104130000179012902D01BE0077119E0934802219F
:10414000017101F051FA95A195A001F0C9FA8F48CB
:10415000C673807A202108438C4988720120FFF7BA
:1041600023F98A48807AFEF73DFC66728748867399
:104170000096A97B287B1E23002201F0B8F8854811
:10418000417800E047E081480174824881787F48A7
:10419000407C81422AD07D48807A202108437B4997
:1041A00088720120FFF700F97848807AFEF71AFC40
:1041B0007648008F0023401E80B21A46012101F08C
:1041C000F5F87248008F7149401E08876F483C21FE
:1041D000008FFBF78DFFE8806C483C21008FFBF7D8
:1041E00087FF6C4829818178684841746748018F4E
:1041F000002910D14776817ADF2211408172807ABE
:10420000FEF7F0FB6079642805D2E88B6179401EE7
:10421000884200DA66716BE15C48C17B0029FAD004
:10422000827ADF210A408272807AFEF7DBFB0A2164
:10423000A07CFBF75DFF3030C0B201220B2100F003
:10424000F7FF0A21A07CFBF753FF0846303001221C
:10425000112100F0EDFF012216213A2000F0E8FFC5
:104260000A21E07CFBF744FF3030C0B201221A2162
:1042700000F0DEFF0A21E07CFBF73AFF0846303011
:104280000122202100F0D4FF012225213A2000F054
:10429000CFFF0A21A079FBF72BFF3030C0B20122FB
:1042A000292100F0C5FF0A21A079FBF721FF08466C
:1042B0002F3001222F2100F0BBFFACE73348C07B39
:1042C00000280ED0FFF7BEF86881002838D036A14C
:1042D00038A001F005FA2D480A210177C7762B484E
:1042E000C6732A48407F00287FD0FCF765FC274929
:1042F0007D2308654A6DDB00821A9A4201D98F75C9
:104300004865887D002870D08E75C87D002864D0EF
:10431000CE750096A97B287B2323012200F0E7FFBE
:1043200001222E21002000F083FFE8890A21FBF7FB
:10433000DFFE3030C0B20122322100F079FF54E0BC
:104340001248C6760677407F002841D01CA11DA0E8
:1043500001F0C6F901222E21002000F069FFE88952
:104360000A21FBF7C5FE3030C0B20122322100F035
:104370005FFF06482323007B012200090090A97BF0
:10438000287B00F0B4FFAAE72C02002000000020E8
:10439000685700081C040020C00000200000000036
:1043A000CACED0CC00000000CFC0D0C0CCC5D2D087
:1043B000DB000000D3D1D2C0CDCEC2C8D2C5000030
:1043C000C2CACB00CFD0CEC3D0C0CCCCC00000007E
:1043D000FCA1FE4801F084F981E7CF750096A97B26
:1043E000287B2323012200F082FFF948817E0029E7
:1043F0007ED0407F002801D0F2A105E000223821C4
:10440000012000F015FFF3A1F04898E3F04887770A
:10441000077300E7EE48C07B0028FAD0F0A1F2A0B5
:1044200001F05EF9EA48C673007B2EE0E848C07BE5
:10443000002805D0EAA1ECA001F052F9E448C673C7
:104440002770A07B217C0843E17B08430AD0E04829
:10445000007E002806D00096A97B287B232301221A
:1044600000F045FFFCF7A8FBD94908654A6D821AA0
:10447000FA2A01D98F754865887D0028C9D08E75C4
:10448000C87D002806D0CE75087B00090090A97B66
:10449000287B7BE0CF750096F9E7CD48C07B0028EC
:1044A000B7D0D4A1D0A001F01BF9C948C673007BD6
:1044B0002FE0C748C07B002805D0CEA1CAA001F0DC
:1044C0000FF9C348C673A07B217C0843E17B0843F6
:1044D0000AD0BF48007E002806D00096A97C287C20
:1044E0002323012200F003FFFCF766FBB84900E03C
:1044F000A4E108654A6D821AFA2A01D98F754865C8
:10450000887D002885D08E75C87D002806D0CE75A0
:10451000087B00090090A97C287C37E0CF750096C5
:10452000F9E7AB48C07B0028A8D0B4A1AEA001F049
:10453000D7F8A748C673007B21E0A07B217C084305
:10454000E17B08430AD0A248007E002806D00096EE
:10455000A97D287D2323012200F0C9FEFCF72CFB56
:104560009B4908654A6D821AFA2A20D8887D00285E
:1045700084D08E75C87D002804D0CE75087B0009D4
:10458000009001E0CF750096A97D287D2323C0B25D
:10459000012200F0ACFEF9E38D48C07B0028CCD0AE
:1045A00096A191A001F09CF88948C673C5E78F7564
:1045B0004865DBE78648C07B0028ECD091A193A03A
:1045C00001F08EF88248C673007B2CE08048C07BE7
:1045D000002805D08BA18DA001F082F87C48C6731D
:1045E000A07B217C0843E17B084309D07848007E0A
:1045F000002805D0A87F00232A22012100F032FEE6
:10460000FCF7DAFA724908654A6D821AFA2A01D96A
:104610008F754865887D0028BDD08E75C87D0028BF
:1046200004D0CE75087B0309A87F02E0CF75A87F70
:1046300000232A220121CFE26548C07B00281CD03C
:1046400061A175A001F04CF86148807A20210843EF
:104650005F4988720846807AFEF7C4F95C48867321
:10466000C673A674E6745A49A6713D20487408467C
:104670004677FBF7D9FE56488676554869498673D2
:104680008978407C814270D00A21A07CFBF730FD04
:104690003030C0B201220B2100F0CAFD0A21A07CFB
:1046A000FBF726FD084630300122112100F0C0FD45
:1046B000012216213A2000F0BBFD0A21E07CFBF725
:1046C00017FD3030C0B201221A2100F0B1FD0A21DD
:1046D000E07CFBF70DFD084630300122202100F080
:1046E000A7FD012225213A2000F0A2FD0A21A07990
:1046F000FBF7FEFC3030C0B20122292100F098FD0A
:104700000A21A079FBF7F4FC0846303001222F2162
:1047100000F08EFDA079E0713C21FEF79AF8A071BF
:10472000E0793B280DD1E07C20753C21FEF791F823
:10473000E074207D3B2804D11821A07CFEF789F885
:10474000A0743848817822484174827A20210A4333
:104750008272C2E11E48C07B00286FD032A134A013
:1047600000F0BEFF1A48C67325E019E3A07B217C48
:104770000843E17B08430DD01548007E002809D08E
:10478000A88B0A21FBF7B4FCC0B22A2301220096B1
:10479000FEF71EFEFCF710FA0D4908654A6D821AF5
:1047A000FA2A68D8887D0028D7D08E75C87D002861
:1047B00049D00748C675A88B0A21FBF799FCC0B2FF
:1047C000034A3CE0C2DBCACB00000000C44300083F
:1047D00000000020CEC1D0C0C1CED2CAC0000000AF
:1047E000C2D0C5CCDF000000D3D1D2C0CDCEC2CA6A
:1047F000C0000000D1D2C0D0D2000000D1D2CECFB4
:1048000000000000C2D1C5C3CE000000CACED0CC8B
:10481000CBC5CDC8C9000000CDC5CFD0C5D0DBC247
:10482000CDCE00001C040020D0CED1D220CDC000BF
:10483000D1D3D2CED7CDDBC90000000050E1127B2E
:104840001209009206E0CF75A88B0A21FBF750FCF5
:10485000C0B200962A230122FEF7BAFD96E2F7487D
:10486000C07B002882D0F6490846083000F038FFA7
:10487000F248C6737AE78F75486593E7EF48C17BC6
:104880000029EBD0807ADF210840EC498872084685
:10489000807AFEF7A7F8EBA1EBA000F021FFE74834
:1048A0001421007B009100090190A88CAA7E297E2A
:1048B000C0B2012300F0CDFDE048C67366E2DF48D8
:1048C000C07B002805D0DFA1DFA000F009FFDB4896
:1048D000C673A07B217C0843E17B08430DD0D748F9
:1048E000007E002809D0142001960090A88CAA7E92
:1048F000297EC0B2012300F0ACFDFCF75DF9CF4981
:1049000008654A6D821AFA2A01D98F754865887D33
:104910000028A3D08E75C87D002802D0CE75022154
:1049200035E0CF7514200196009067E0C348C07B46
:10493000002805D0C3A1C4A000F0D2FEBF48C673B2
:10494000A07B217C0843E17B08430DD0BB48007E5F
:10495000002809D0142001960090A88CAA7E297EF8
:10496000C0B2012300F075FDFCF726F9B3490865D4
:104970004A6D821AFA2A01D98F754865887D002808
:104980009CD08E75C87D0028CBD0CE750321142015
:104990000191009032E0A948C07B002805D0A9A170
:1049A000A9A000F09DFEA548C673A07B217C08430A
:1049B000E17B08430DD0A148007E002809D01420D7
:1049C00001960090A88CAA7E297EC0B2012300F037
:1049D00040FDFCF7F1F8994908654A6D821AFA2AF8
:1049E00001D98F754865887D002892D08E75C87D65
:1049F000002896D0CE75142001970090A88CAA7E2E
:104A0000297EC0B2012300F024FDBFE18B48C07BAA
:104A1000002805D08FA190A000F062FE8748C673E1
:104A20008649C88E401C0887B0E18448C07B0028B6
:104A300003D18248807D002815D086A186A000F091
:104A40004FFE7E48C6738675807A202108437B49D5
:104A500088720846807AFDF7C5FF667277488673CC
:104A60004677FBF7E1FC7F4881787448407C8142BF
:104A700027D07248807A20210843704988720846FE
:104A8000807AFDF7AFFF6D48008F0023401E80B293
:104A90001A46012100F08AFC6848008F6749401ED1
:104AA000088766483C21008FFBF722FBE8806348BB
:104AB0003C21008FFBF71CFB6A48298181785F4805
:104AC00041745E48018F002902D0017E002907D081
:104AD0004776817ADF2211408172807AFDF782FF6A
:104AE00054E15648C07B00281CD05448C6730020AF
:104AF000FEF742FC5CA15FA000F0F2FD2E21002237
:104B0000084600F095FB00222A214D2000F090FB82
:104B100000223221522000F08BFB00223821552048
:104B200000F086FB4548467630E14448C17B0029C9
:104B300007D0C6730020FEF71FFC50A1514800F0BB
:104B4000CFFD23E13D48C07B002826D03B48C673FB
:104B50000020FEF711FC4CA1002000F015FB688C32
:104B60000300FEF7EDFB0906080A0C0E10121416DE
:104B7000310047A10EE049A10CE04BA10AE04DA194
:104B800008E04FA106E051A104E053A102E055A1C5
:104B900000E057A1012000F0F7FAFCF70DF82749D3
:104BA00008654A6D821AFA2A01D98F754865887D91
:104BB000002813D08E75C87D002807D0CE75087BDD
:104BC0000309288CC0B205E04CA1E3E7CF75288C1F
:104BD0000023C0B22422002100F044FBD6E0174895
:104BE000C07B002828D01548C770C6730020FEF788
:104BF000C3FB25A1002000F0C7FA288C0023C0B217
:104C00002422194600F02EFB688C0300FEF798FB67
:104C10000906080A0C0E10127C7E83001CA177E0A6
:104C20001EA175E020A173E022A171E024A16FE034
:104C300026A16DE028A16BE06DE0000000000020DF
:104C400028480008C2D00000CACED0CC20CEC1D99E
:104C5000C5C5000000000000C2CACB20D2C5D1D219
:104C6000000000001C040020464545444876312ED3
:104C7000304C00004156544F4B4F52004D4F444270
:104C800055530000A8430008E0E4F0E5F1000000FF
:104C9000F1EAF0202020323430300000F1EAF02038
:104CA0002020343830300000F1EAF020202039365E
:104CB00030300000F1EAF020203134343030000090
:104CC000F1EAF0202031393230300000F1EAF020F2
:104CD0002033383430300000F1EAF020203536300F
:104CE00030300000F1EAF020203537363030000057
:104CF000F1EAF0203131353230300000F1EAF06F66
:104D00003131353230300000FE4901E0FD490C31CF
:104D1000012000F039FAFBF74FFFFB4908654A6DA7
:104D2000821AFA2A01D98F754865887D00282DD00E
:104D30008E75C87D002802D0CE75F4A123E0CF7512
:104D4000688C0300FEF7FCFA0906090C0F1215180F
:104D50001B1D2200EB49543915E0EA49483912E09D
:104D6000E8493C390FE0E74930390CE0E54924399E
:104D700009E0E449183906E0E2490C3903E0E14969
:104D800001E0E0490C31012000F0FEF9DE48817BB2
:104D9000002905D0E0498978A1726772E6728673AE
:104DA000D948007E002825D0A07B002822D0D649F3
:104DB0008F76087B4200D94810180A7E805C087301
:104DC000092813D98F75182812D0252810D011283A
:104DD0000ED00846C775FBF7EFFECB494865087B48
:104DE0001A2801D02A2803D1CF7301E0C64886755E
:104DF000C5480676C448017E002908D0417B0029B9
:104E000005D08776252101730676C7734673817CAA
:104E1000002901D08674C674BB48407E002837D074
:104E2000B948807ADF210840B74988720846807AFD
:104E3000FDF7D8FDB448407D002803D0B2480921D1
:104E4000017304E00020FEF797FAAF480773AE48FD
:104E5000C7736672E672467606763D210174417428
:104E6000207800280BD02670AB48297B0170A97BE5
:104E70004170867001460022A948FCF7F5FD607874
:104E8000002802D06670A048C77766729E48877473
:104E90009D48C07F00280BD09B48C677A07800288B
:104EA0001BD0A670FBF7C0FAFDF7A0FA9648C773AF
:104EB0009548807800287CD0934886709948298C42
:104EC0000078884208D1217B9648FBF7E9F9000475
:104ED0008D49000C488703D03CE164206071E1E714
:104EE000904A5078032809D0062842D08D4912787C
:104EF00014310A70803048708F7038E090780190DB
:104F000000282ED1D3785079009011791818090211
:104F1000491E40189C46142823DA8249107814311F
:104F200008700320487000984000887001990020A4
:104F3000090201910CE001997A4A0918614449007B
:104F400043001432695A9A181171090AD170401C31
:104F500000998142EFDC734814308078C01CC0B2E5
:104F600081E070481178143001708321ABE0032098
:104F700079E06C486B4B8078002804D001283DD044
:104F8000022872D09AE0D87805283ED913283CD25E
:104F90001979002930D1644A5979125C91422BD297
:104FA0004200A952112805D0062806D0072804D0AF
:104FB0000EE0D0E05448C7700AE05748297B0170E2
:104FC000A97B41708670014600225548FCF74CFDD4
:104FD0004D484677C777C773524908460A78143058
:104FE0000270062242708A788270CA78C2700A798A
:104FF00002714979417135E0197819E0D9788C4608
:10500000002903D06146012930D057E018790028E3
:1050100054D144484079022850D2FEF713FA6881EF
:1050200000280CD038484677C777C7733D480178C9
:105030003C481430017016214170032145E0394885
:10504000314A41795177D777D773024603781432C2
:1050500013700623537083789370C378D3700079EC
:1050600010715171062000904BE01BE019790091FE
:10507000002923D11A465B79022B1FD229491278C5
:1050800014310A70274A0621143251701146887073
:105090006046C87010460099017143710620009067
:1050A00019482BE0D9780091002907D119798C464D
:1050B000002903D159791A460B0008D01948017804
:1050C0001430017016214170022181704FE715499B
:1050D000127814310A70134A0621143251701146A5
:1050E000887010460099C1706046114608710846E4
:1050F000437105480776477306220092C77318214B
:10510000017313E0E44C000800000020F1EAF020F5
:1051100020202020202000001C04002068570008C8
:10512000C0000020A0020020ED5F00081348009995
:10513000FBF7B6F81249642348871049009A88544F
:10514000009A000A89184870009A0C490D48921C70
:10515000FDF7E5F826730A48C178002901D1FEF76A
:10516000E2FA017B2A29FAD0C670688CC0B2FEF739
:1051700041F8688CC0B2FDF793FAF0E7B402002062
:105180000000002074010020F3B581B004460298AD
:10519000FBF708F8C5B2B8202043FEF793F80020CB
:1051A000FEF790F80027104E0EE00024029806212A
:1051B000C05D48438019005DFEF789F8641CE4B2C5
:1051C000062CF3D37F1CFFB2AF42EED309E00024DC
:1051D000305DFEF77CF8641CE4B2062CF8D36D1C3D
:1051E000EDB20A2DF3D3FEBDBE57000800B585B061
:1051F0008020009001200190002003900290052063
:1052000069460007FBF728FC05B000BD00B585B076
:105210008020009002200190002103200390029141
:105220000491052069460007FBF716FC05B000BD98
:1052300070B50546B82002430C46D0B2FEF742F8DE
:10524000E0B2FEF73FF806204543054800242D183C
:10525000285DFEF73CF8641CE4B2062CF8D370BD60
:10526000BE57000870B514460E460546002B13D0F5
:10527000012B10D1632804D90A46A11F0120FFF792
:10528000D7FF324621460120FFF7D2FF3246A11D4B
:105290000120FFF7CDFF70BD632D07D96421FAF718
:1052A00027FF3030C0B23246A11F02E00A46A11FDC
:1052B0000120FFF7BDFF092D0BD964212846FAF71D
:1052C00017FF08460A21FAF713FF3246214630300D
:1052D00002E0324621460120FFF7AAFF0A212846B4
:1052E000FAF706FF084630303246A11DD1E7FFB578
:1052F0001F4681B00B373E1D0A99B51D1C4600297B
:1053000025D0012933D002291FD10A21FAF7F0FE56
:1053100030300091C0B22146039AFFF789FF00990F
:10532000039A08463030A11DFFF782FF39463A2024
:10533000039AFFF77DFF31460120039AFFF778FFBC
:1053400029460120039AFFF773FF05B0F0BD0A213B
:10535000FAF7CEFE30300091C0B22146039AFFF733
:1053600067FF0099039A08463030A11D07E01946EF
:105370000120039AFFF75CFFA11D0120039AFFF7AC
:1053800057FF39463A20039AFFF752FF0A21029845
:10539000FAF7AEFE0C463030C0B23146039AFFF742
:1053A00047FF204630302946039ACCE7FFB5E1217C
:1053B00081B014460901FAF79BFEC7B208463C21AA
:1053C000FAF796FEC6B20D460A213846FAF790FE65
:1053D0000F463030C0B22146029AFFF729FF384607
:1053E0003030A11D029AFFF723FF21460B313A20EE
:1053F000029AFFF71DFF0A213046FAF779FE0E46A2
:1054000030302146C0B20F31029AFFF711FF30460B
:10541000214630301531029AFFF70AFF21461A3132
:105420003A20029AFFF704FF0A212846FAF760FEA5
:105430000D4630302146C0B21E31029AFFF7F8FE09
:105440002846214630302431029AFFF7F1FE05B09C
:10545000F0BDFFB585B00E9C024621460B3102918E
:10546000091D8F1D01910F987E1D1531351D00916D
:1054700000283ED0012861D002287ED0032836D1F2
:105480000A211046FAF734FE03913030C0B22146AB
:10549000089AFFF7CDFE0399089A08463030A11DFF
:1054A000FFF7C6FE3A20089A0299FFF7C1FE0A21CB
:1054B0000698FAF71DFE0C463030C0B2089A0199E2
:1054C000FFF7B6FE204630303946089AFFF7B0FEA7
:1054D00031463A20089AFFF7ABFE29460120089A88
:1054E000FFF7A6FE0120089A0099FFF7A1FE09B078
:1054F000F0BD0A211046FAF7FBFD03913030C0B22F
:105500002146089AFFF794FE0399089A084630301E
:10551000A11DFFF78DFE3A20089A0299FFF788FE39
:105520000A210698FAF7E4FD0C463030C0B2089A1A
:105530000199FFF77DFE204630301BE02146012017
:10554000089AFFF775FEA11D0120089AFFF770FE6B
:105550003A20089A0299FFF76BFE0A210698FAF79B
:10556000C7FD0C463030C0B2089A0199FFF760FEC3
:10557000204630303946089A00E016E0FFF758FE22
:1055800031463A20089AFFF753FE0A210798FAF7A6
:10559000AFFD0C463030C0B22946089AFFF748FEEE
:1055A00020463030089A00999FE70A211046FAF702
:1055B0009FFD03913030C0B22146089AFFF738FEB4
:1055C0000398A11D3030089AFFF732FE3A20089A5E
:1055D0000299FFF72DFE0120089A0199FFF728FE96
:1055E00039460120089AC7E710B56420FDF7E8FEA8
:1055F0000220FBF797F9E220FDF764FEEE20FDF7AD
:1056000061FEA420FDF75EFEA820FDF75BFEC02032
:10561000FDF758FEA020FDF755FEAF20FDF752FE26
:1056200010BD000070B51248416B04221143416364
:1056300011480021124D81600E4CC5600F4E016172
:1056400050C00838FCF7F6FB002800D0FEE7A66241
:10565000E562E06801210843E06020680822104309
:1056600020602068084320601420FDF7A3F870BD77
:1056700000100240000801402C0200203F1F0000E3
:10568000DC05000070B51349886B01252843886349
:105690008C0411480021C8228160C2600F4E016154
:1056A00050C00838FCF7C6FB002800D0FEE7A66211
:1056B0007D20C000E062E0682843E06020680821A7
:1056C000084320602068284320600F20FDF772F80F
:1056D00070BD0000001002403C0100203F1F000090
:1056E000F3B581B00646FAF75DFDC7B20298FAF746
:1056F00059FDC5B2002408E0214606204143305D33
:105700000022FFF795FD641CE4B2BC42F4D3154EB1
:1057100009E00024305DFDF7DAFD641CE4B2062CDC
:10572000F8D37F1CFFB20A2FF3D3002409E02146EF
:105730000620414302980122005DFFF779FD641CB9
:10574000E4B2AC42F3D309E00024305DFDF7BFFDC5
:10575000641CE4B2062CF8D36D1CEDB20A2DF3D311
:10576000FEBD0000BE57000800000211071204131E
:1057700005140815081603280A180101011A07075D
:10578000070707070707070710010701220223037E
:105790002404150526062707181807072A0A0707ED
:1057A000070707070707070707070707120213037B
:1057B0001404101016062807170707071A0A000016
:1057C00000000000000000000000000000000000D9
:1057D00000000000000000000000000000000000C9
:1057E00000000000000000000000000000000000B9
:1057F00000000000000000000000000000000000A9
:105800000000000000000000000000000000000098
:105810000000000000000000000000000000000088
:105820000000000000000000000000000000000078
:105830000000000000000000000000000000000068
:105840000000000000000000000000000000000058
:105850000000000000000000000000000000000048
:105860000000000000000000000000000000000038
:105870000000000000000000000000000000000028
:1058800000000000000700070000147F147F1400D0
:10589000246A2A2B12002313086462003649552219
:1058A0005000000503000000001C224100000041E0
:1058B000221C000014083E08140008083E080800D6
:1058C00000503000000000606020000000606000B8
:1058D00000000060600000000000000000003E5179
:1058E00049453E0004427F40000042615149460064
:1058F0002141454B31001814127F100027454545C2
:1059000039003C4A49493000017109050300364914
:1059100049493600064949493E0000363600000034
:10592000005636000000081422410000141414141C
:1059300014004122140800000201510906003249F6
:1059400079413E007E1111117E007F4949493600A0
:105950003E41414122007F4141221C007F4949498B
:1059600049007F09090901003E41494972007F0849
:1059700008087F0000417F4100002040413F0100B6
:105980007F08142241007F40404040007F020C020B
:105990007F007F0408107F003E4141413E007F09A7
:1059A000090906003E4151215E007F091929460080
:1059B00046494949310001017F0101003F40404013
:1059C0003F001F2040201F003F4038403F0063142D
:1059D0000814630007087008070061514945430037
:1059E000007F414100000204081020000041417F77
:1059F0000000040201020400404040404028000131
:105A0000020400002054545478007F484444380075
:105A1000384444442000384444487F0038545454A7
:105A20001800087F010102000C5252523E007F080C
:105A30000404780000447D4000002020443D000024
:105A40007F102844000000007F4020007C041804E0
:105A500078007C08040478003844444438007C14FE
:105A600014140800081414187C007C0804040800AE
:105A7000485454542000043F444020003C404020FF
:105A80007C001C2040201C003C4030403C0044284E
:105A9000102844000C5050503C004464544C4400C6
:105AA0001F001F111F001F001D1517001F001715D5
:105AB0001D00380408100E002A2A7F2A2A007C12B2
:105AC00011127C007F49494931007F49494936001C
:105AD0007F0101010300603E213F60007F49494989
