:020000040800F2
:1000000048080020D5000008C5270008FD23000887
:1000100000000000000000000000000000000000E0
:100020000000000000000000000000002D2A000871
:100030000000000000000000652800082F2A0008CA
:10004000E7000008E700000845290008E70000086D
:10005000E7000008E9020008F3020008E7000008D2
:1000600000000000E7000008E7000008E7000008C3
:10007000E7000008E700000800000000192C000855
:100080000000000000000000000000000000000070
:10009000B52B000800000000ED2B0008E700000869
:1000A00000000000E7000008000000000000000061
:1000B00099310008E700000800000000000000007F
:1000C0000348854600F096F8004800477935000857
:1000D000480800200448804704480047FEE7FEE740
:1000E000FEE7FEE7FEE7FEE7E92A0008C100000898
:1000F00030B50B46014600202022012409E00D46C0
:10010000D5409D4205D31D469540491B2546954047
:1001100040191546521E002DF1DC30BD70B500248B
:100120002546002801DA01244042002901DA012590
:100130004942FFF7DDFFAC4200D04042002C00D026
:10014000494270BDF0B51FB40646002082B0054696
:100150004024019100901BE0019922460F46304651
:1001600000F037F8049A059B801A994110D3104685
:100170001946224600F01DF8361A8F410197224693
:1001800001200021009F00F014F838184D41009024
:100190002046641E0028DFDC019B00982946324679
:1001A00007B0F0BD421C0178401C0029FBD1801A29
:1001B000704710B5202A04DB0146203A9140002008
:1001C00010BD914020239C1A0346E3401943904000
:1001D00010BD10B5202A04DB0846203AD04000218B
:1001E00010BD0B46D340D0402024A21A91400843B2
:1001F000194610BD064C0125064E05E0E36807CC04
:100200002B430C3C98471034B442F7D3FFF75CFF04
:10021000506500087065000838B504460648054971
:100220000068FFF765FF604300E0401E0090002873
:10023000FBD138BD40420F005C000020F8B50446F9
:10024000006881688907890F012902D10168C907FF
:1002500022D18168114A10261140012500290ED1B2
:100260008168294381600120FFF7D6FF00F0AEFCD2
:1002700007460CE000F0AAFCC01B0A2807D9A06DB5
:100280003043A065E06D2843E0650120F8BD20689B
:100290000068C043C007EDD10020F8BD1700008002
:1002A0007EB5FF226B461A701A710E4B0022DC1DC0
:1002B000F9340EE06E46855C3679754002956E46DF
:1002C0005D5D367875406E463571029D655D3570B1
:1002D000521C491EEED2694608780979000208438B
:1002E0007EBD0000EA62000810B5022000F0B2FBFB
:1002F00010BD10B5082000F0ADFB10BD10B50849C9
:1003000000234B6107494A684C1522434A604A68FA
:10031000082422434A60C009C001036010BD0000E8
:10032000300400200020024010B5214A00209169CD
:10033000CB05204904D5486902231843486190152C
:1003400093699B0505D54B69012423434B616302E7
:10035000184393695B0505D54B69082423434B611A
:10036000E301184393691B0505D54B690424234316
:100370004B616302184393699B0405D54B691024B4
:1003800023434B616302184393699B0304D54C6973
:1003900020231C434C6118439369DB0305D54B694B
:1003A000402423434B61A1020843906110BD00002B
:1003B000002002403004002070B5044600F006FC26
:1003C0000546184E0AE0601C08D0002C04D000F04E
:1003D000FDFB401BA04201D9032070BDB069C007DE
:1003E000F1D1B069800701D50220B061B069C005C4
:1003F00011D4B06980050ED4B06940050BD4B06942
:10040000000508D4B069800405D4B069800302D423
:10041000B069C00303D5FFF787FF012070BD00203E
:1004200070BD000000200240F0B587B000200590AC
:100430002B48017C827C090612048918027D120275
:100440008918827D8C18017E827E09061204891823
:10045000827F12028D1823494E7F818C0391018C7B
:10046000408C0906090CC0B20F181E482030807954
:10047000049000F0CFFA002000901B480190022069
:10048000029005A9684600F063FA002801D000F048
:1004900099FA22461449022000F09EFA12492A468F
:1004A000091D022000F098FA0F4932460831022057
:1004B00000F092FA0C4902200C31039A00F08CFAF9
:1004C00009493A461031022000F086FA0649022016
:1004D0001431049A00F080FA00F074FA07B0F0BD0D
:1004E0006402002000000020007F0008F8B50546E7
:1004F0000C464035297D01290DD00121297501685F
:100500008A68520709D5816D202211438165002038
:1005100028750120F8BD0220F8BD174B6268D80588
:1005200047109A42154E8A6A236812D05B035B0B10
:100530001A438A622168490305D5B1680143B16055
:100540000A20FFF769FE2068800312D5B06838439F
:100550000EE05B035B0B9A438A622168490302D574
:10056000B1688143B1602068800302D5B068B843A8
:10057000B06000202875F8BD011000000027014080
:100580000068006C7047000070B5040006D0A06DD4
:10059000254600264035002802D006E0012070BD27
:1005A000E6652E75204600F0D1F8A06DC00603D494
:1005B00020688168490705D5A06D10210843A06512
:1005C0002E75EBE7A16DFF22013291430222114308
:1005D000A16581685B4A8907890F012902D10168F9
:1005E000C9072BD1032361689B07994205D05B4261
:1005F000994202D05B00994209D1016989008908BA
:100600000161206801696368194301610CE00169B7
:1006100089008908016190680F21890488439060EE
:1006200090686168084390602068C1681823994306
:10063000C1602068C168A3681943C1609068012146
:100640004906884390609068218F4906084390606E
:1006500020688168C90004D481680122120711430F
:1006600081602068C168384A1140C1602069E16832
:10067000022823D000200143206A226B400352004D
:1006800010430143606B0143A06980030143E069AB
:10069000C00301432068C2681143C160A06A0146DB
:1006A000FF39C23905D0E16A08432168CA6810439E
:1006B000C860606A0121012802D00BE00420DAE75B
:1006C000206A002823D0A06D20221043A065E06D91
:1006D0000843E065206C012820681FD00169C90724
:1006E00003D0016949084900016120684169C908CE
:1006F000C900416120684169E26B11434161E665CF
:10070000A06D80088000401CA065002070BD20689E
:10071000C26801231B041A43C260DBE70269FF239E
:100720009B009A43026120680269636CE56C1A437E
:10073000A36C2B431A430261206802690A430261D9
:10074000D3E70000002701401902FEFF00B5006852
:100750000A4985B088420FD10948416B42151143BF
:10076000416310200090032001900020029005209A
:100770006946000700F07AF905B000BD0024014089
:1007800000100240F8B504464069274640370D4640
:1007900008280BD02068C068C00709D0A06D2021B0
:1007A0000843A065002038750120F8BD082600E048
:1007B0000C2600F00BFA009011E0681C0FD0002D01
:1007C00005D000F003FA0099401AA84207D9A06D9D
:1007D00004210843A065002038750320F8BD206877
:1007E00000683042E9D0A06D012149020843A065AC
:1007F0002068C1680C220905890F00291AD1216AD5
:10080000002917D10168090714D581680123490718
:10081000002908DB416891434160A06D19028843BB
:100820001843A06506E0A06D20210843A065E06D97
:100830001843E065A069002801D12068026000200B
:10084000F8BD000070B5044621680020896849079A
:1008500021D425464035297D01291CD00121297547
:10086000E169012904D02046FFF7E8FC002811D1F6
:10087000A16D0A4A1140FF2201321143A1650021F6
:10088000E165297522681C21116021688A680423AA
:100890001A438A6070BD022070BD0000FEF1FFFFA8
:1008A00070B50024024620325179022903D0042178
:1008B000C16301243CE001680B680E25AB430B606B
:1008C00001680B685B085B000B601A4B016899427A
:1008D00001D1012121E0174B1433994201D110219C
:1008E0001BE0144B2833994201D1891515E0114BB7
:1008F0003C33994201D189140FE00E4B5033994299
:1009000002D10121090408E00A4B6433994202D163
:100910000121090501E001210906064B083B596048
:100920000121517100211171816B002900D088478C
:10093000204670BD0800024031B500F047F904467A
:1009400000F044F90099001B8842F9D338BD00003B
:10095000F8B5194F0546387C0E46012807D001200E
:1009600038741648FFF728FD002802D020E0022046
:10097000F8BD0021C94331606C6813E02046FFF7E1
:10098000BDFC0E48FFF718FD0D494A6808239A433D
:100990004A604A684B159A434A60002801D0346087
:1009A00006E08034A9686A68C9018918A142E5D8BF
:1009B00000213974F8BD00003004002050C300004D
:1009C0000020024003484168022211434160002098
:1009D0007047000000200240F8B50C4C1646207C01
:1009E0000F46012808D0012020740948FFF7E4FCD5
:1009F0000025002802D006E00220F8BD65613E60B7
:100A00000348FFF7D9FC2574F8BD0000300400202E
:100A100050C300000948416889070CD54168C907DF
:100A200003D00749C1600749C1600749016107490F
:100A30000161002070470120704700000020024043
:100A4000EFCDAB8905040302BFAE9D8C16151413C0
:100A50007047000010B504494A69024202D048615B
:100A6000FFF7F6FF10BD000000040140F0B50022C2
:100A70008DE001249440A44623407DD04C68022C94
:100A800001D0122C0CD1D408A40027183D6A5407B9
:100A9000E40E0F26A640B5430E69A6402E433E62E3
:100AA0004C68012C05D0022C03D0112C01D0122C43
:100AB00011D1856854000326A640B543CE68A640F0
:100AC0002E43866044686546AC430D79ED06ED0F14
:100AD000954025434560076854000325A5400E79DD
:100AE000AF43B607B60FA6403E430660C668AE43A6
:100AF0008D68A5403543C5604C68E40046D5274C59
:100B0000666B01252E4366639508254CAD002F19B1
:100B1000BD689407240F0F26A640B5430526360767
:100B2000B04201D100260FE01E4EB04201D1012695
:100B30000AE01D4EB04201D1022605E01B4EB04234
:100B400001D1052600E00626A6402E43BE60184DC2
:100B50002C684E689C43F60300D51C432C606C68DF
:100B60004E689C43B60300D51C436C60AC684E686D
:100B70009C43F60202D500E008E01C43AC60EC6840
:100B80004E689C43B60200D51C43EC60521C0B68B7
:100B90001C46D44000D06CE7F0BD000000100240BD
:100BA000000001400004005000080050001C0050EC
:100BB000000401400069084000D001207047002A6D
:100BC00001D0816170478162704700000148006870
:100BD000704700005800002070B504000FD0216855
:100BE0001348086021681348086003CC41602068FE
:100BF000083C21688860FFF7E9FF054608E001200E
:100C000070BDFFF7E3FF401B302801D9032070BD02
:100C10002068C0680028F4D120680269E1688A422F
:100C200001D0016101E004490160002070BD0000B5
:100C3000CCCC000055550000AAAA0000006802496B
:100C40000160002070470000AAAA00000248016865
:100C5000491C0160704700005800002010B506488C
:100C60000168402211430160002000F007F800F005
:100C700019F8002010BD00000020024010B5044605
:100C800007487D21C9000068FFF732FA01F09CF89F
:100C900000222146501E00F02BF8002010BD00005D
:100CA0005C00002010B50C48416B012211434163E8
:100CB000816B02041143816300221146501F00F032
:100CC00017F800221146901E00F012F8002211467B
:100CD000501E00F00DF810BD00100240C106C90EF4
:100CE00001208840014908607047000000E100E0F1
:100CF00010B501F095FD10BD0248016802151143C1
:100D000001607047007000400248016842151143BD
:100D1000016070470070004002480168821511436D
:100D200001607047007000400A4B1A6892089200F8
:100D300002431A600848026904231A430261012928
:100D400006D040BF20BF20BF0169994301617047B1
:100D500030BFF9E70070004000ED00E0F8B53E4D0F
:100D6000014601230020DB033A4C3B4A403502296F
:100D700032D0042949D008295AD020290AD12C6917
:100D8000296903252D0429405E00B14203D1A6053F
:100D900001D51846F8BD01235B04994203D1A3078E
:100DA00001D52E48F8BDA942FCD111688903F9D5B7
:100DB000106803210905084001210905401A09D0DE
:100DC000401A05D0884201D12548F8BD2548F8BD14
:100DD0002548F8BD2548F8BDE9680C26314009D002
:100DE00008290AD004290DD00C29F4D129698905D4
:100DF000CFD4F8BD00F0A6F9F8BD11684907FBD5BE
:100E00002046F8BD00F0BEF9F8BDE9680326B60239
:100E10003140EFD00127FF02B94202D112685207D8
:100E2000EED4012292029142ECD0B142DED0F8BD64
:100E3000E96803231B031940DCD001235B039942BB
:100E400002D112685207DBD4012212039142D9D099
:100E5000F8BD00000024F40000100240889000005B
:100E600020A1070000093D0040420F0080841E00C1
:100E7000F8B504460078534D80067AD551480026CF
:100E80004038806BC00006D44E484038816B020465
:100E90001143816301264C480168C90510D40168DB
:100EA000821511430160FFF791FE074604E0FFF74A
:100EB0008DFEC01B64283AD843480068C005F6D5AB
:100EC0004048403800680321090562680840114025
:100ED00081420AD09003800F032806D13948403858
:100EE0000068800301D50120F8BD286903210904A9
:100EF000084021D00A4082421ED0207880061BD5AF
:100F000028692A6988430121C9040A432A612A6998
:100F10008A432A612861C0050ED5FFF757FE0746B0
:100F200007E0FFF753FEC11B2848814201D9032087
:100F3000F8BD28698005F4D560688103890F03290D
:100F400008D1204B403B1968032212059143104001
:100F500001431960286903226168120411400843A3
:100F60002861002E05D017484038826B01048A435F
:100F700082632078800705D5E8680C218843A16842
:100F80000843E8602078400706D5E8680321890215
:100F90008843E1680843E8602078000706D5E868E0
:100FA00003210903884321690843E860207800068B
:100FB00006D5E86803218904884361690843E8602D
:100FC0000020F8BD4010024000700040881300006F
:100FD000F8B5044653480E460068C007C00FB0423B
:100FE0000AD250480168490849003143016000684D
:100FF000C007C00FB0426FD120784B4F800705D596
:10100000F868F0218843A1680843F8602078C00799
:1010100052D06068022817D0032818D039680128F8
:1010200018D08905002957DAF96889088900014331
:10103000F960FFF7CBFD05466068022812D003284F
:101040001CD0012826D033E039688903EAE73968E3
:101050008901E7E74907E5E7FFF7B8FD411B33489A
:10106000814223D8F8680007800F0228F4D123E0DA
:10107000FFF7ACFD411B2D48814217D8F8680007E7
:10108000800F0328F4D117E0FFF7A0FD411B27488C
:1010900081420BD8F8680007800F0128F4D10BE0DB
:1010A000FFF794FD411B2148814201D90320F8BD7F
:1010B000F8680007800FF3D11A480168C907C90F03
:1010C000B1420BD901684908490031430160006809
:1010D000C007C00FB04201D00120F8BD2078400702
:1010E00006D5F868072109028843E1680843F860DB
:1010F0002078000707D5F8680721C90288432169CD
:10110000C9000843F86000F03DF8F968084A09068C
:10111000090F515CC840074908600020FFF7AEFD89
:101120000020F8BD0020024000100240881300009B
:101130002C6500085C000020014800687047000032
:101140005C000020044805490068C968044A490554
:10115000490F515CC84070475C00002000100240FD
:1011600045650008044805490068C968044A8904BF
:10117000490F515CC84070475C00002000100240DD
:101180004565000810B5194AD1680C230846184077
:1011900004280BD0082810D00C2810D05068000468
:1011A000410F0120C003491C884010BD1068C006D3
:1011B00001D50F4810BD0F4810BD0F4810BD880263
:1011C0000E4B000F185C0902D368890F491CDB0322
:1011D00001D5094A05E01268D20601D5044A00E0AB
:1011E000044A5043FEF784FF10BD00000010024087
:1011F00000093D000024F40000127A003C6500085C
:10120000F8B504460078F24EC00749D0F0680007F0
:10121000800F022807D0F0680007800F032809D14B
:10122000F068C00306D53068800339D560680028AF
:1012300072D035E0012160680904884202D130682B
:10124000084310E0052301221B04920498423068F1
:1012500002D110433060F2E78843306030680840C4
:101260000090306890433060606800280CD0FFF731
:10127000ADFC054604E0FFF7A9FC401B64287DD8BF
:1012800030688003F7D50BE0FFF7A0FC054604E0CB
:10129000FFF79CFC401B6428F1D830688003F7D42A
:1012A0002078800741D5F0681F270007800F3F0294
:1012B000012807D0F0680007800F032809D1F068E3
:1012C000C00306D43068400717D5E068012823D151
:1012D00013E0E068002817D03168092291430143E8
:1012E0003160FFF773FC054604E0FFF76FFC401B1D
:1012F0000228C4D830684007F7D570682169B84320
:1013000009020843706010E0306840084000306017
:10131000FFF75CFC054605E099E0FFF757FC401B32
:101320000228ACD830684007F7D42078C00676D5BC
:10133000F068A84F0007800F0BD0A06900285DD08F
:101340003068FF21013108433060FFF73FFC05465C
:1013500044E03068800502D5A069002877D0206A73
:1013600071683940884212D901F084FA0028AED160
:101370007068216AB8430843706000E0BDE070689F
:10138000217F0002000A0906084370600FE07168BF
:10139000B943014371607068217F0002000A0906A9
:1013A00008437060206A01F065FA00288FD1206A36
:1013B000410B0120C003491C8840F16809060A0F4F
:1013C0008549895CC840854908600020FFF756FCC4
:1013D00025E0FFF7FBFB401B02288AD83068800518
:1013E000F7D57068216AB843084370607068217F40
:1013F0000002000A09060843706010E03168FF200F
:10140000013081433160FFF7E1FB054604E0FFF75F
:10141000DDFB401B022870D830688005F7D42078A7
:101420006F4D000723D560690028286910D001217D
:1014300008432861FFF7CAFB074604E0FFF7C6FB35
:10144000C01B022859D828698007F7D50FE0BCE0F7
:10145000400840002861FFF7B9FB074604E0FFF7AA
:10146000B5FBC01B022848D828698007F7D420782C
:10147000400762D500200090B06BC00006D4B06B6E
:10148000012109070843B063012000905548016815
:10149000C90510D40168821511430160FFF796FB5E
:1014A000074604E0FFF792FBC01B642825D84D488F
:1014B0000068C005F6D5FF20A1680130814203D144
:1014C00029690143296111E001229202002907D014
:1014D00005231B02994203D1296911432961EFE7D2
:1014E000296981432961286990432861A0680028FF
:1014F0000ED0FFF76BFB074606E05FE0FFF766FBE9
:10150000C11B3948814259D828698005F6D50CE0BD
:10151000FFF75CFB074605E0FFF758FBC11B3248AD
:1015200081424BD828698005F6D40098002804D061
:10153000B16B012000078143B163606A002842D08B
:10154000F1680907890F03293FD001273F060228C8
:10155000306805D0B8433060FFF738FB04462FE011
:10156000B8433060FFF732FB054604E0FFF72EFB7F
:10157000401B022822D830688001F7D4E16AA06AB3
:10158000F2680843216BFD231B049A43114308436F
:10159000F060306838433060FFF718FB044604E021
:1015A000FFF714FB001B022808D830688001F7D52C
:1015B00009E0FFF70BFB001B022801D90320F8BD4F
:1015C00030688001F5D40020F8BD0120F8BD00008E
:1015D0000010024000E000002C6500085C000020C4
:1015E000401002400070004088130000FFB581B039
:1015F00016460F46040005D025466035687A002857
:1016000003D007E0012005B0F0BD0020287220467D
:1016100000F012FE24206872206801684908490021
:101620000160606A002802D0204601F068FB204675
:1016300001F052FC0128E6D0206881680122920363
:101640001143816020688168520091433943816071
:10165000049970050904014320680268064B1A408A
:101660000A4302602068016801221143016020469C
:1016700001F0AAFBC7E70000FFFF00FC006889003B
:10168000503008180068704700688900503008180A
:1016900002607047F8B505460446203528780128D1
:1016A00019D001202870022068702168CA20486281
:1016B0002168532048622068816801229202914388
:1016C000816020688168120191438160FFF77EFA92
:1016D000064600270FE00220F8BDFFF777FA811BCE
:1016E0007D20C000814206D92168FF204862032086
:1016F00068702F70F8BD2068C0684007EDD521687C
:10170000FF204862012068702F700020F8BD0000A3
:10171000F7B50546044620352878012813D0012066
:101720002870022068702168CA204862216853200E
:1017300048622068806800274005002810DAFFF71B
:1017400045FA064608E00220FEBDFFF73FFA811B7E
:101750007D20C00081421BD82068C0684007F4D4B7
:1017600020688268012189028A4382602068C168FA
:1017700080221140204A8918C160FFF727FA0646E7
:101780000DE0FFF723FA811B7D20C000814206D9BE
:101790002168FF204862032068702F70FEBD20681A
:1017A000C0684007EDD521680198486120688168CC
:1017B000C908C900816020688168029A114381606C
:1017C0000E4801680122120511430160816811432E
:1017D000816020688168921111438160206881686E
:1017E0001211114381602168FF2048620120687056
:1017F0002F700020FEBD00007FFBFFFF00040140B2
:1018000002480168042211430160704700700040E3
:1018100010B504460068C068400509D52046FFF7AA
:10182000EFFF2068C16880221140054A8918C16015
:10183000012004490005486101202034607010BD7A
:101840007FFBFFFF0004014010B500680B464068B5
:10185000C021C94301400002000ECC04D870E40E40
:101860005C708C06A40E0904490F9C701970002A44
:101870000AD101F037F8D870587801F033F8587071
:10188000987801F02FF89870002010BD30B50B4605
:101890000168896A5960016809694904490C9960BD
:1018A000006804680F482146014088024D04800EFC
:1018B00018706D0E49065D70490E99706102490EEF
:1018C00040242140D970002A0AD101F00BF8187089
:1018D000587801F007F85870987801F003F898707C
:1018E000002030BD7F7F7F0070B5040005D0254605
:1018F00020356878002802D006E0012070BD002065
:101900002870204600F042F8022068702168CA2042
:101910004862216853204862204600F0F6FFFF210C
:101920000028206803D0416204206870E5E78268DF
:10193000154B1A408260206882686368A6691A4362
:10194000236933431A4382602268E068106120688B
:10195000026923891B041A4302612068C26880233C
:101960009A43C2602068C26C92089200C264E26925
:10197000606902432068C36C1A43C26420684162F4
:1019800001206870002070BDBFFF8FFF006805490F
:10199000884205D104480169012292041143016182
:1019A000704700000028004040100240F8B505468E
:1019B0000446203528780B46012822D001202870C3
:1019C000022068705878002A1DD000F08BFF9878AC
:1019D00000F088FFD8789E7800040643587819787C
:1019E00000024903084306432168CA20486221686F
:1019F00053204862204600F088FF002700282AD1A3
:101A000017E00220F8BDC10603D5EF2108400A30D7
:101A10005870D87800F06EFF0604587800F06AFF1E
:101A200000020643987800F065FF064318784003EB
:101A3000D9E711480640206846602068C1688022C6
:101A40009143C1602068806880060CD4204600F075
:101A50008DF8002807D02168FF20486204206870B4
:101A60002F700120F8BD2168FF20486201206870B6
:101A70002F700020F8BD00003FFFFF00F8B50646BC
:101A80000446203630780D4601280ED001203070F3
:101A900002207070206800278068002A07D0400666
:101AA0001AD5287800F01EFF17E00220F8BD400686
:101AB00000D4EF70287800F01DFF0204687800F071
:101AC00019FF00020243A87800F014FF0243E878EF
:101AD0000004024300920BE0EF702978A878090413
:101AE00008436978EA780902120411430843009018
:101AF0002168CA204862216853204862204600F0CD
:101B000004FF00281FD11849009808402168086088
:101B1000206881680122920491438160E968286904
:101B2000014320688268114381602068C168802277
:101B30009143C1602068806880060CD4204600F084
:101B400015F8002807D02168FF2048620420707033
:101B500037700120F8BD2168FF20486201207070B5
:101B600037700020F8BD00007F7F7F0070B505460C
:101B70000068C168A0229143C160FFF727F87D2665
:101B80000446F60006E0FFF721F8001BB04201D939
:101B9000032070BD2868C0688006F4D5002070BDA1
:101BA00070B5040006D025464035687C0026002824
:101BB00002D005E0012070BD2E74204600F02EF802
:101BC0000220687420680168402291430160A16886
:101BD000606822690843E168114308436169012292
:101BE0000843A169520211400843E1690843216A90
:101BF0000843A16A084321680860A0690421000C19
:101C00000840616A0843216848602168E06A086109
:101C1000666501206874002070BD000000B5006892
:101C20000C4985B0884212D10B48416B8214114394
:101C30004163E020009002200190002103200390E6
:101C400002910491052069460007FEF70FFF05B0D9
:101C500000BD00000030014000100240FFB5054605
:101C600004464035687C81B0012872D100293CD0FF
:101C7000002A3AD0287C01286BD001202874122039
:101C80006874002767652163A286E286E764A7641B
:101C9000A763A787E7870126A06A7603B04207D12A
:101CA00020680168B1430160206801683143016028
:101CB0000121A068C903884205D12068016801227A
:101CC00092031143016020680168490603D401684A
:101CD000402211430160E0680028606808D00028B5
:101CE00020D0E08E01281DD026E0012005B0F0BDF7
:101CF000002802D0E08E012808D1206B411C21630E
:101D000021680078C860E08E401EE086E08E0028E2
:101D100020D0002202212046049B00F01BFE002858
:101D200015D1EAE7206B21680088C860206B801C11
:101D30002063E08E401EE086E08E00280AD000225C
:101D400002212046049B00F005FE0028EAD0032073
:101D5000CCE729E0A06AB04205D1206801680122E1
:101D6000120311430160002202212046049B00F06F
:101D7000F1FD2026002807D1012280212046049B66
:101D800000F0E8FD002803D0606D30436065DEE7B9
:101D9000A068002803D12068C168806800900120F5
:101DA00068742F740020A1E702209FE704220449F1
:101DB0000428086902D09043086170471043FBE78C
:101DC00000E000E070470000094910B5401E88425D
:101DD00001D9012010BD074C60610321081F00F0EC
:101DE0001FFD0020A06107202061002010BD000021
:101DF000FFFFFF0000E000E010B5FFF7E3FF10BDBC
:101E000070B502462032137D012B1BD001241475BE
:101E10000223537503685D687026B5435D600368EF
:101E20005D680E6835435D6003689D688026B54334
:101E30009D600068836849680B4383605475002087
:101E4000107570BD022070BD70B5040005D0254628
:101E50002035687D002802D006E0012070BD0020FA
:101E60002875204600F00AF802206875211D2068B8
:101E700000F0E6FE01206875002070BD00680121B9
:101E80008907884204D10348816B01221143816391
:101E900070470000001002400168CA6801231A431D
:101EA000CA600068016819430160002070470000A3
:101EB0000168CA6852085200CA600068016A044A90
:101EC000114203D1016849084900016000207047B0
:101ED00011110000F8B5054604462035287D01287B
:101EE00017D001272F750220687520688268772631
:101EF000FF23B2431B029A4382600868502836D001
:101F00000EDC202856D006DC00284DD010283FD10A
:101F10004DE00220F8BD30284FD0402838D13BE0BA
:101F200060282CD0702816D001221203801A0DD000
:101F300090422DD1CB684A688968206800F0A8FEDD
:101F4000206881680122920311430EE020688168B5
:101F5000C908C90009E0CB684A688968206800F0B0
:101F600097FE20688168B1433143816010E0CA6800
:101F70004968206800F09FFE5021206806E0CA688A
:101F80004968206800F0A8FE6021206800F08BFE00
:101F90006F7500202875F8BDCA684968206800F090
:101FA0008AFE40212068F1E700212068EEE7102139
:101FB0002068EBE720212068E8E730212068E5E78A
:101FC000704770B50446006801690025C943890758
:101FD000002915DBC168C943890711D4E91E0161D5
:101FE00001202075206880698007204602D0FFF715
:101FF000E7FF04E000F078F8204600F076F8257559
:1020000020680169C943490717D4C168C943490712
:1020100013D40421C943016102202075206880691E
:102020008005800F204602D0FFF7CAFF04E000F0D1
:102030005BF8204600F059F8257520680169C9430E
:10204000090716D4C168C943090712D40821C94336
:102050000161042020752068C0698007204602D0F5
:10206000FFF7AEFF04E000F03FF8204600F03DF837
:10207000257520680169C943C90617D4C168C943D9
:10208000C90613D41021C9430161082020752068B6
:10209000C0698005800F204602D0FFF791FF04E061
:1020A00000F022F8204600F020F82575206801692C
:1020B000C943C90708D1C168C943C90704D1891EEA
:1020C0000161204600F012F820680169C943490601
:1020D00009D4C168C943490605D44021C9430161F7
:1020E000204600F004F870BD704770477047704795
:1020F00070477047F8B502680446D0691168050753
:102100002D0F07D1830605D58B0603D5204600F099
:10211000A4FEF8BD93682026002D65D0DD07ED0FE5
:10212000FF2721370F402F435ED0C70706D0CF05CA
:1021300004D501271762E26E3A43E266820708D5AA
:10214000DA0706D0276802223A62E26E04273A4391
:10215000E266420708D5DA0706D0236804221A622D
:10216000E26E02231A43E266020709D50A463240AC
:102170002A4305D0236808221A62E36E1343E366FC
:10218000E26E002AC5D0800604D5880602D5204616
:1021900000F063FEE06E000703D42068806840060C
:1021A0001CD5204600F04AFE20688168490611D5FA
:1021B000826840218A438260606E00280AD01D49EF
:1021C0008163606EFEF76CFB0028A2D0606E816BAD
:1021D0008847F8BD2046FFF78CFFF8BD2046FFF783
:1021E00088FF0020E066F8BD2546C7026035002F55
:1021F0000ADA5B0208D50120000510626E72AE7229
:102200002046FFF775FFF8BD030605D50B0603D57D
:10221000204600F05DFFF8BD4006FCD54806FAD523
:102220001368204640218B4313606E7200F0E5F87E
:10223000F8BD0000292E000800B50068114985B0DE
:1022400088421CD11048816B0122520411438163E2
:102250000E4800900220019000200290032003907D
:1022600004200490052069460007FEF7FFFB0022CA
:1022700011461C20FEF73CFD1C20FEF72FFD05B08B
:1022800000BD0000004400400010024002060000B3
:1022900070B5034660339C7A202C44D100290BD0C2
:1022A000002A09D0012584682D03AC4206D10669B5
:1022B000002E03D1CE0701D0012070BD1E7A012E61
:1022C00031D001261E724165014640310A834A839E
:1022D000FF22AC4204D10469002C12D1134A10E051
:1022E0007F25002C08D00122120794420AD10269EE
:1022F000002A04D03F2204E00469002C01D08D8321
:1023000000E08A830021C16622229A721972016854
:102310008A6832438A6000680168FF2221321143D3
:102320000160002070BD022070BD0000FF010000B0
:102330007047FFB5074605466037787A83B00C468C
:10234000202858D1002C0CD00598002809D0012055
:10235000A9680003814207D12869002804D1E00759
:1023600002D0012007B0F0BD387A012843D0012007
:1023700038720020E86621207872FEF727FC019071
:102380002E464036059830820598708218E0708A93
:10239000401E708206980090002280212846019BF2
:1023A00000F0C9FE002818D10120A968000381426D
:1023B00002D12869002812D0296820788862641C1C
:1023C000708A0028E3D10698009000224021284618
:1023D000019B00F0B0FE002808D00320C2E720884F
:1023E0002968C005C00D8862A41CE9E72020787226
:1023F00000203872B6E70220B4E77047FEE700001D
:10240000FEB53B4F0026FC8B3A4D002C6CD0B88CAF
:10241000E12109014843398B3C2251434018798B13
:1024200040182146FDF764FEE88638468C30397C3A
:102430000170B97C41708670012C54D96200A218D9
:102440001318397D203B5977BA7D9A77DE77037868
:102450003C271E467E4340784F433618BF18BE4285
:102460000FD2E126360171433C2672438918E122DE
:102470001201534370431818081A611EFDF74EFEEF
:10248000E8630120641E6864019428E0700032183B
:10249000174800928C30141820462038417FE123E1
:1024A000C27F1B0159435118807F3C225043EA6B85
:1024B00080180F18194638462F64FDF719FE0C4B8B
:1024C000009A8C33985408463C21FDF711FE607049
:1024D0003C213846FDF70CFEA170761C6E64019815
:1024E0006E6CB042D2DCFEBD6E77FDF79DFFFEBD87
:1024F00064020020000000201CB517481549016047
:102500000322920742600021016404231822C3635E
:10251000826001220261C16041620262C1620163A4
:1025200041638161FF228163C23243618262C16182
:10253000FEF72AF8002800D0FEE7084800900014B3
:10254000019069460448FDF7D1FF002800D0FEE75E
:102550001CBD00000024014060000020100000109D
:10256000F0B51D4887B0C26A04210A43C262C26A3C
:102570000A400592C16A01263143C162C16A3140F5
:102580000591C16A02252943C162C06A0327284018
:1025900005907F030520002239460007FEF70FFB58
:1025A0000820002400900520019469460294000749
:1025B000FEF75CFA00956946084802950194FEF71B
:1025C00055FA052002946946000700970196039486
:1025D000FEF74CFA07B0F0BD0010024000040050B6
:1025E000F0B5214C87B01F48206000212046FFF73E
:1025F00045F81E4FB84232D01D48012646720025CC
:102600007F206560A06025616561A561FF20E561AF
:10261000E0602046FFF768F9002800D0FEE7684632
:102620000570457085700395002269460E48049533
:10263000FFF724FA002800D0FEE7684606754675C5
:102640008675C575002205A90748FFF7AFF9002870
:1026500000D0FEE73A4600210348FFF715F807B01F
:10266000F0BD000000280040C0000020F232000051
:102670000000002010B50E480C490160FF21053113
:10268000416000218160C16001610122520241610B
:102690008261C16180224162026281620721C1625E
:1026A000FFF77EFA002800D0FEE710BD00300140A1
:1026B000E400002070B505461548416B2022114307
:1026C00041631549134C7D2000220C6080018A6013
:1026D000486002200A61C8600846FFF7B5FB002881
:1026E00000D0FEE70D48A0620D48405DE062E06862
:1026F00001210843E0602068082108432060002190
:10270000162000F06BF8162000F05EF870BD000097
:102710000010024000140140F40100203F1F00009F
:102720001065000810B50121124886B089070160C4
:1027300000241149846041607D21C9000461C160A9
:10274000FFF782FB002800D0FEE701200003009085
:1027500069460848FFF7BEFB002800D0FEE7049456
:1027600004A904480594FFF74BFB002800D0FEE7BE
:1027700006B010BD3C0100203F1F000010B50D4801
:102780000B490160E1214902416000218160C16083
:1027900001618161C1610C22016242610B464162AB
:1027A0000A46FEF723FF002800D0FEE710BD000018
:1027B0000044004074010020002800D10846401E5B
:1027C000C0B2704770470000C106C90E01208840A2
:1027D000014908607047000000E100E08307FF2224
:1027E000DB0E9A408907090E994000280BDA000792
:1027F000000F0838830808489B001818C3699343E2
:102800000B43C3617047830804489B001818036892
:1028100093430B430360704700ED00E000E400E0E9
:102820008307FF22DB0E9A408907090E9940002892
:102830000BDA0007000F0838830808489B001818B7
:10284000C36993430B43C3617047830804489B00EB
:102850001818036893430B430360704700ED00E0D2
:1028600000E400E07047401CC0B2884200D3002062
:102870007047000070B5174B0021DA681206120F7E
:1028800018D19A6B154CD500134A02D51268224014
:1028900009E09E6B01252D072E439E6312689E6BF7
:1028A0002240AE439E63A24204D10322920390428F
:1028B00000D101210A480268520852000A4302600E
:1028C0000068C007C00F884201D0012070BD002001
:1028D00070BD0000001002400070004000180000B1
:1028E0000020024001090A2200075143000F40184E
:1028F000C0B27047002102E00A38C0B2491C0A2861
:10290000FAD20907090E0843704770B505460068FA
:10291000C168490613D40021C943C160FEF756F9C6
:102920007D260446F60006E0FEF750F9001BB04293
:1029300001D9032070BD2868C0684006F4D5002086
:1029400070BD000010B50248FEF762FF10BD000028
:10295000C0000020FFB581B01D4616460446FEF7B4
:1029600035F93146264640360746002918D03BE067
:10297000681C15D0002D04D0FEF728F9C01BA84212
:102980000ED920684268E0218A4342601CE020683A
:1029900002688A430260206802680A4302601CE001
:1029A0002068816802988843E2D122E0681C1BD02D
:1029B000002D04D0FEF70AF9C01BA84214D92068E4
:1029C0004168E022914341602068026840218A43C7
:1029D0000260A06AC9018842D9D001207074002029
:1029E0003074032005B0F0BD2068816802988843E8
:1029F000DCD00020F6E7000031B532230122694621
:102A00000948FFF72BF90122052554032D0721461C
:102A10002846FEF7D4F80A2000F0DCFC002221460C
:102A20002846FEF7CCF838BDE4000020704710B50A
:102A3000FEF70CF9FFF7E0F910BD000010B52849CA
:102A400098B008680324E402A043CA148018086000
:102A5000FEF762F923490869A04308610620009047
:102A600088150290092003901020049002200990FC
:102A700040040B90000100240C900A946846FEF775
:102A8000BFFB002800D0FEE70F200D9003200E9022
:102A90000F941094002111940DA8FEF799FA0028C4
:102AA00000D0FEE72220129001200004139014941D
:102AB00012A8FEF7DDF9002800D0FEE7FEF73CFB88
:102AC0007D21C900FDF714FBFFF77EF90420FFF715
:102AD0006DF900221146501EFEF70AF918B010BD1C
:102AE00000700040401002401048016882151143F8
:102AF0000160C1680E4A1140C16001680D4A114071
:102B000001608168490849008160016801229204DE
:102B100091430160C168FD2212049143C16000210C
:102B200001610549C0038860704700000010024041
:102B30000C40FF88F6FFF6FE00ED00E030B51A4CC1
:102B400087B0A06B21040843A063FEF7DDF8FEF711
:102B5000D3F8E0680121C9038843E060E06A0121FD
:102B60000843E062E06A08400590E06A02252843D5
:102B7000E062E06A6946284005900C480090032016
:102B800001900020029005200007FDF76FFF6946C5
:102B90000748FDF76BFFE06A40084000E062E06A2A
:102BA000A843E06207B030BD00100240FFFF000004
:102BB000000400500A4908694008400008610948BB
:102BC000C278002A06D00022C2700868064A104067
:102BD00008607047034901202039087670470000DB
:102BE0000008014020000020FEFF000010B506484C
:102BF0000168064A114001600548FFF7E2F90549FE
:102C00000120887010BD000000140140FEFF00008C
:102C1000F40100200000002001208007016949081C
:102C20004900016104490A6804231A430A600168E3
:102C3000024A11400160704700700040FEFF000032
:102C4000F0B502680124A4070F4D104EA04203D036
:102C5000A84201D0B04204D1134670274A68BB4352
:102C60001A43A04203D0A84201D0B04204D10323AA
:102C70001B029A43CB681A4302608A68C2620968E1
:102C8000816201214161F0BD000801400014014052
:102C900030B58468FF252D021B021343AC430B4360
:102CA0002343836030BD826870239A430A4307211F
:102CB0000A438260704730B5036A046A640864009E
:102CC00004628469F025AC43120122430A24A34321
:102CD0000B438261036230BD30B5036A1024A34305
:102CE00003628369046A0F252D031203AB431A4361
:102CF000A0239C43090121438261016230BD10B5CC
:102D0000818CC90707D001684A6801235B049A4394
:102D1000836A1A434A60818C890707D501684A682B
:102D200001231B049A43C36A1A434A60818C4907F2
:102D300007D501684A6801239B049A43036B1A4331
:102D40004A60818C090707D501684A680123DB03C3
:102D50009A43436B1A434A60818CC90607D50168C0
:102D60008A6801231B039A43836B1A438A60818C10
:102D7000890607D501688A6801235B039A43C36B00
:102D80001A438A60818C490612D501684B6801227A
:102D90001205046C934323434B60016C914207D1AD
:102DA00001684A6803235B059A43436C1A434A60EF
:102DB000818C090607D501684A680123DB04806C11
:102DC0009A4302434A6010BDF8B500250446C56623
:102DD000FDF7FCFE074620680068124E000709D583
:102DE00001213B46002249052046009600F0A3F948
:102DF00000280DD12068006840070BD501213B4613
:102E0000002289052046009600F095F9002801D09F
:102E10000320F8BD202060346072A072257200206B
:102E2000F8BD0000FFFFFF0110B5806A00220146D7
:102E300040314A834A82FFF75CF910BD01680A6895
:102E4000FF2321339A430A6001688A6852085200BE
:102E50008A60202160308172704770B5024640322E
:102E600001466031938B8D7A0C460168222D05D086
:102E70008869082210438861022070BD496A0126D2
:102E80008568360389B2B54202D10569002D0BD0A1
:102E90001940436D5D1C45651970518B491E09042D
:102EA000090C518307D015E0456D19402980416D0B
:102EB000891C4165F1E701680A68FF2321339A43C1
:102EC0000A6001688A68520852008A602021A17253
:102ED000FFF72EFA002070BDFEB504462269A168F6
:102EE000E369114362691027002600681A43114301
:102EF000026835466D4B1A400A43026020684168FB
:102F0000032212039143E26811434160684A216839
:102F1000A069914201D0226A10438A680B231B02E8
:102F20009A4302438A60634A2068634990420AD107
:102F3000C8680C2108402BD004282DD0082829D09F
:102F40000C2810D10EE05A4A90420CD1C8680321D7
:102F5000890208401CD01115401A1DD0401A19D002
:102F6000884200D108270220FDF7F8FE0190504B5F
:102F7000514922684039D81300929A4235D1002F26
:102F80000CD0022F0DD0042F12D0082F1CD113E02B
:102F90000027E8E70227E6E70427E4E7FEF7D2F890
:102FA00008E00868C00601D5444805E0444803E04D
:102FB000FEF7E8F8002873D062685100511881428A
:102FC00002D81103814201D2012569E0010E0602F7
:102FD0005008002330185941FDF7B4F803210902C5
:102FE000384A411A914259D9EEE7E26982422DD11D
:102FF0003B0000F0BBF90906080B24192424241F08
:103000002400019812E0FEF7ADF80FE0086861684F
:10301000C00602D548082C4A01E02C4A480880180E
:10302000FDF766F886B20BE0FEF7ACF86168400089
:103030004A08F4E76168012248081204EFE7012515
:10304000310909013007400F084327E03B0000F039
:103050008DF909070A0D061D060606290600B3E7C5
:10306000FEF770F814E0FEF77DF811E0086861687B
:10307000C00602D54A08114801E011484A08101854
:10308000FDF736F881B20098C16009E0FEF77AF8E2
:1030900061684A088018FDF72BF880B22168C86083
:1030A0002846FEBD61684A08E9E70000F369FFEFC2
:1030B00000480040004400404010024000093D002C
:1030C0000024F400FFFC0F0000127A000048E80121
:1030D0006921095C212901D0022070470146403155
:1030E0004A8A002A12D0012382681B039A4202D125
:1030F0000269002A15D0C26C531CC36400681278A0
:103100008262488A401E48820020704701680A682F
:1031100080239A430A6000680168402211430160DD
:10312000F2E7C26C03681288D205D20D9A62C26CB3
:10313000921CC264E5E7FFB581B01E4617460546FE
:103140000A9C1CE0601C1AD0002C04D0FDF73EFD48
:10315000801BA04213D928680168FF22A132914345
:103160000160286881684908490081602020603535
:103170006872A87200202872032005B0F0BD28688C
:10318000C1690298884304D00020B842DAD00020F8
:10319000F3E70120F9E7000070B5154BD869800608
:1031A0001AD5144A10681449084010600020506273
:1031B000586AC1B21148457B114C002D10D0596A94
:1031C000437BE154417B132902D2417B491C41736B
:1031D00010680121084310600A48FEF78BFF70BD9C
:1031E000074B3C3B1B8C8B42F2D1437BE154ECE719
:1031F0000044004000140140FEFF000020000020B9
:10320000A00200207401002010B50E490C4A0A608B
:103210000D4A80001058486000208860C86008612E
:103220008861C8610C2208624A614862034602460E
:1032300001460448FEF7DAF9002800D0FEE710BD89
:103240000044004074010020EC64000838B57D2083
:10325000C000FDF771FBFFF7F1FB02F05BFC002003
:1032600000F0A0F8022000F09DF81848FEF712FACE
:10327000174C0125207B092802D0218F002900D17D
:10328000E573002819D1124812A120308079002856
:1032900001D011A000E012A002F0B8FC00200090C4
:1032A00011481E23817B007B002202F0B6FA0F48F2
:1032B00040782074207B002806D0C0B2182803D0A4
:1032C000252801D0E573257338BD0000C00000201B
:1032D00000000020000000004645454400000000BA
:1032E000CACED0CC00000000640200201C040020E4
:1032F00010B5002100F006F810BD10B5012100F056
:1033000001F810BD73B50C463223012269461648F8
:10331000FEF7A4FC02F000FA05252D07002C01D0D1
:10332000012200E0002280212846FDF748FC04200D
:1033300000F05CF80122940321462846FDF73FFC8B
:10334000142000F053F8002221462846FDF737FCF0
:103350007D20C00000F04AF8002280212846FDF7B9
:103360002EFC02F0E9F97CBDE400002030B4744684
:10337000641E2578641CAB4200D21D46635D5B0071
:10338000E31830BC184702E008C8121F08C1002A21
:10339000FAD170477047002001E001C1121F002AD6
:1033A000FBD17047F8B5B8270546861C0FE02846C4
:1033B0003843C0B2FFF79CFF0020FFF799FF0024BD
:1033C0000020FFF79AFF641C3D2CF9DB6D1CB54211
:1033D000EDDBF8BD08B5002100910A2148430099B2
:1033E00001E0491C00918842FBD108BD08B50021CD
:1033F0000091814201D0491CFAE708BDFFB50E4695
:103400001A4681B0083235460A993035971D30305A
:103410001C46009200291AD001291CD0022914D17F
:10342000C0B22146039A02F099F9A11D2E20039AF9
:1034300002F094F9761CF0B2039A009902F08EF92A
:1034400039462420039A02F089F905B0F0BDC0B2D4
:103450002146039A02E021460120039A02F07EF9F8
:10346000A11D2E20039A02F079F9E8B2E4E70000EA
:10347000F0B521490020CA8B002A00D104200B8A14
:103480003C224E8A5A4395198A8A3C2714467C432B
:10349000CF8AE419BC46A54201D3012420438D8C78
:1034A0000C8B498B2F198E467744002F01D10227B0
:1034B0003843E1273F017A4367463C214F43D21905
:1034C0000E4FF98E5118E122120153433C2256430C
:1034D0009A19891AE122120155433C2254432B19AF
:1034E00072469A18914201DC10210843F96B3C297D
:1034F00001D208210843F0BD640200200000002032
:1035000070B56424884229D2184C3C23A4785343D4
:103510001B193C246043834201D98A4201D900240B
:1035200021E08A4204D11248807F401EC4B21AE0D2
:103530000F4901248C3101E0641CE4B260002018C2
:103540000A5CE1252D016A43401845783C26754305
:103550008078521910189842EED304E005490020F3
:103560004877FCF761FF204670BD00001C04002076
:1035700064020020000000208AB0FDF76FFBFFF717
:103580005DFAFFF7DBFAFE48C16A01273943C162E1
:10359000C06A002538400090FA4803900320049048
:1035A000052003A905950007FDF760FAFEF7D8FF8F
:1035B000FFF7E4F8FFF7B6F8FFF712F8FFF75AF84D
:1035C000FEF79AFFF149F048086006204860F0488D
:1035D000C86088600846FDF7FFFA002800D0FEE7C3
:1035E00003210520002249030007FDF7E8FAE74818
:1035F000FDF724FBE74EB07ADF210840B072B07AC5
:10360000FFF7FAF9FF20F530FDF796F902F0A0FA7E
:1036100002F0CEFAE04800683446B0642034401C22
:10362000002810D1D9480821803005824582858242
:10363000C582858405834583C5838583418407844A
:10364000A571FCF7F1FEB16CD0480A0E8030028201
:103650000A02120E42820A04120E8282C9B2C1828A
:10366000CD49091D0968B1640A0E02830A02120ECF
:1036700009044283090EC183C7490C31096889B224
:103680008184092900D98584C04D00218035C24834
:10369000A98310300068C049B06414310A6800077B
:1036A000A271000F6884FFF705F8688CC0B2FFF7BD
:1036B000ABFDB06C0004010E2984FEF7A1FEB348F7
:1036C000FDF7BCFA00207077707A002872D0FCF702
:1036D000ABFE0220307302F01DFA0020FFF762FEFD
:1036E0000220FFF75FFEAB48C77300268676807A1C
:1036F000DF25A849284088720846807AFFF77CF9C0
:10370000FF20F530FDF718F9A248807AA14928403A
:1037100088720846807AFFF76FF90022114602206E
:10372000FDF7E6FA0220FDF7D9FA9C48FDF78AF882
:1037300000211C20FFF752F81C20FFF745F89348A2
:1037400070380068016820252943016091488F493D
:1037500006708E4864230522D0317038FEF7E9FDEB
:103760008A498A480F22D0317038FEF791FD02F065
:10377000D1F98648FDF762FA8648417F007F834D84
:1037800008188035288000211C20FFF727F81C200E
:10379000FFF71AF82846F038006801682022114324
:1037A0000160052008210007FDF704FA7949087037
:1037B00074E0FFE775488030C18B00293CD0054696
:1037C0000346008A3C2108904843598A01914118D8
:1037D000988A3C228446DB8A5043C01881422BD20F
:1037E000AA8C288B698B12180091CA4224D0E1223E
:1037F0006146120151433C225343F28EC9188B1883
:10380000E1220899120151433C25019A68436A4319
:103810008918009A591A801881420DDDF06B3C28F6
:103820000AD35E4801216030FDF728FF142803D237
:10383000594808300068707737734CE75348FDF7F4
:10384000FDF92079002802D02671002007E05348B6
:1038500001216030FDF712FF80B21E2806D2401C05
:1038600082B24E4801216030FDF70EFF4B487D21AA
:10387000002209016030FDF74BFF4149886B0A04C3
:103880001043886301210846FDF74EFA0520082100
:103890000007FDF78FF93F4908704F703D480078E9
:1038A0000028CBD03B484078002819D039484670D2
:1038B0003A486030FDF7EEFEFFF7C8FC2771374845
:1038C00001216030FDF7DAFE192803D93148467727
:1038D000FCF7AAFD3148002201216030FDF7D4FE3B
:1038E0002A48FDF7ABF9A07A00280DD02C48E17AE0
:1038F0008078884208D0E072207B401C2073207BB7
:10390000132801D9234847760120800701681D4A02
:10391000521E114001601F48007D00281D48007B99
:1039200006D000280CD0182804D0252802D05EE04C
:10393000002805D017486E80007B182842D000E090
:103940006F80AE8064211548FCF71CFF1348FCF71C
:1039500017FE80B202900F48007B00280BD00D4963
:10396000182808D0252806D0887ADF2210408872CF
:10397000887AFFF741F8A17B0298884214D011E0C1
:1039800000100240FFFF000000300040E401002072
:10399000FF0F000000000020007F000860000020F2
:1039A0001C040020F9480772F848027A002A1ED049
:1039B000C77486748279002A06D00299A173867131
:1039C000C6710BE0AF80BDE7029B8A1C934212D206
:1039D000891E8B420FDB4179491C417141790A29CB
:1039E00005D946710299A173C77106728771207853
:1039F000002802D011E04671F8E7E44900224C317A
:103A0000E348FDF721FF0022E249E148FDF73EFFD0
:103A1000E0480178A9814078E881DC48407F0028AF
:103A20004CD06078002849D12078002846D16079B0
:103A3000642814D3A8893C214843E9893C234218CF
:103A4000A88A3C214843E98A401881B2288A584311
:103A50006B8AC01880B2FFF753FD60712EE0CD4B2A
:103A600060791A7841004018CB49085C824225D120
:103A70001846427860794300C01840184078824266
:103A80001CD1C448827860794300C01840188078FF
:103A9000824213D1BD480673C773BC493D200874E8
:103AA00048740020FFF77EFCB848B849C08E401C1F
:103AB00008870846C7746079401CE884B348C07919
:103AC000002817D0B149087B002814D0182812D03C
:103AD00002991839032902D2AC4A082838D0029832
:103AE0001638022840D2AF208000FFF773FCE07B3D
:103AF000002837D00CE3029818380328A07C1FD286
:103B0000002815D0A148007E0028F3D0A248C43870
:103B1000FEF7CEF99D4806874677FCF785FC9B4863
:103B2000A674867500223221312001F017FEEFE2E3
:103B30009A48A77446629848C438FEF7ADF9E7E2A0
:103B40000028D7D09448A674C438FEF7B1F9DFE254
:103B5000AF208000FFF73EFC517B0029CAD18B4883
:103B60004773A8E0E773A6E00298401F02287FD2BF
:103B7000AF208000FFF72EFC207C002816D0834861
:103B8000017E0029B6D0007B12380300FFF7EEFB60
:103B900019101A2429334A49495A6B494949494954
:103BA00049151F2E493D4F5449654900277482E04D
:103BB000287B1821FEF757FE8BE0A87B3C21FEF7FF
:103BC00052FE8CE0287C1821FEF74DFE8DE0A87C8B
:103BD0003C21FEF748FE8EE0287D1821FEF743FECB
:103BE0008FE0A87F6421FEF73EFE90E0A87D3C2197
:103BF000FEF739FE91E0A88B0A21FCF779FA0A4614
:103C0000C0B20A21FEF72FFE92E0A88B0A21FCF732
:103C10006FFA0A22424308460A21FEF724FE1018D2
:103C2000A883C9E0287E3C21FEF71DFE92E0A87E15
:103C30003C21FEF718FE94E0A88C0A21C0B2FEF7E2
:103C400012FE95E0288CF721C0B2FEF70CFE288406
:103C5000002800D12F84AFE00AE0688C0921C0B2AF
:103C6000FEF701FEA1E00221A079FEF7FCFDA2E033
:103C700002980B3802286FD2AF208000FFF7AAFB12
:103C8000607C002816D04148017E00291CD0007BB2
:103C900012380300FFF76AFB1919253137435A9090
:103CA000906E8B9090909090901F2B3D904F6167FD
:103CB000908490006774394846623748C438FEF7EC
:103CC000EBF8A6723148867322E2287B1821FEF7B2
:103CD00073FDA88170E0A87B3C21FEF76DFDE881B3
:103CE0006AE0287C1821FEF767FD288264E0A87C42
:103CF0003C21FEF761FD68825EE0287D1821FEF719
:103D00005BFDA88258E0A87F6421FEF755FDE8839B
:103D100052E0A87D3C21FEF74FFDE8824CE0A88BE5
:103D20000A21FCF7E5F90A46C0B20A21FEF744FD74
:103D30000A21484373E7A88B0A21FCF7D9F90A2224
:103D4000424308460A21FEF737FD68E7287E3C21FA
:103D5000FEF732FD28832FE032E0A87E3C21FEF7FB
:103D60002BFD688328E0A88C0A21C0B2FEF724FD51
:103D7000A88421E0288CF721C0B2FEF71DFD28841D
:103D8000002819D1F620288416E000000000002049
:103D9000C00000201C040020F002002000080140A8
:103DA000688C0921C0B2FEF707FD688404E0022197
:103DB000A079FEF701FDA071FE48FFF70BFBA7E11C
:103DC000207C617C084372D0FB48FEF771F8FB4809
:103DD0003D2101748773017E002901D0067610E130
:103DE000007B12380300FFF7C1FA190E2C4A5978EC
:103DF000AA1C1CD7FF1C1C1C1C1C1C1D3B691C92F4
:103E0000B9C81CF01C00207C0028287B04D0C0B25C
:103E10001821FEF728FD03E0C0B21821FEF7CCFC04
:103E2000A881EEE0207C0028A87B04D0C0B23C2111
:103E3000FEF719FD03E0C0B23C21FEF7BDFCE881AE
:103E4000DFE0207C0028287C04D0C0B21821FEF7D7
:103E50000AFD03E0C0B21821FEF7AEFC2882D0E0D4
:103E6000207C0028A87C04D0C0B23C21FEF7FBFCDB
:103E700003E0C0B23C21FEF79FFC6882C1E0207CD9
:103E80000028287D04D0C0B21821FEF7ECFC03E026
:103E9000C0B21821FEF790FCA882B2E0207C002876
:103EA000A87F05D0C0B26421FEF7DDFC04E0ACE0E1
:103EB000C0B26421FEF780FCE883A2E0207C0028E9
:103EC000A87D04D0C0B23C21FEF7CDFC03E0C0B217
:103ED0003C21FEF771FCE88293E0207C0028A88B4F
:103EE00008D00A21FCF704F90A46C0B20A21FEF7FD
:103EF000BAFC07E00A21FCF7FBF80A46C0B20A2127
:103F0000FEF75AFC0A2148431018A88379E0207C68
:103F10000028A88B09D00A21FCF7EAF80A224243BC
:103F200008460A21FEF79FFCEEE70A21FCF7E0F8BD
:103F30000A22424308460A21FEF73EFCE4E7207CC1
:103F40000028287E04D0C0B23C21FEF78CFC03E0A0
:103F5000C0B23C21FEF730FC288352E0207C0028D0
:103F6000A87E04D0C0B23C21FEF77DFC03E0C0B2C5
:103F70003C21FEF721FC688343E0207C0028A88CCC
:103F800004D0C0B20A21FEF76EFC03E0C0B20A21E1
:103F9000FEF712FCA88434E0207C0028288C08D08E
:103FA000C0B2F721FEF75FFC2884002829D12F84B6
:103FB00027E0C0B2F721FEF7FFFB2884002820D1BC
:103FC000F62028841DE000E00EE0207C0028688CAC
:103FD00004D0C0B20921FEF746FC03E0C0B20921BB
:103FE000FEF7EAFB68840CE0207C002804D0022164
:103FF000A079FEF738FC03E00221A079FEF7DCFB94
:10400000A07167702674667482E0E07B00287FD020
:104010006948FDF74DFF69484675C672E673002092
:10402000FFF7C0F96548C77364493D2008740A7BEF
:10403000182A00D048746148837E002B03D1604960
:104040005200895C01736078002807D05B48002B20
:1040500004D0C77766704677FCF7E6F92078002829
:1040600024D05648807E002820D026705549287BD1
:104070000870A87B48700846867000225248FDF7F9
:10408000FDFC4E484677014600224C314E48FDF774
:10409000DBFB00224B494C48FDF7F8FB4948007810
:1040A000A88148484078E881FCF7BEF94348807F02
:1040B000002818D04149887E002814D064206071FF
:1040C0000846C07E002802D00846C67607E03B4975
:1040D000487F002805D000204877FCF7A5F937482D
:1040E00005E00120F8E73548817F002900D0867778
:1040F0003248817E002900D08676002102918773A4
:10410000617A002904D06672022100E000E00173A8
:104110002A48007B2B2801D301F0A7F843007B44F9
:104120009B885B009F442A003401DA012B02D702EE
:104130002E031004AC04CD05420666066C0843014C
:10414000430143014301E200D601EE013E02220396
:10415000410322041205E105430178067908430171
:1041600043014301430143014301EE013E022203A7
:104170007D036F044F058A05430195070F48C07BF7
:10418000002830D0A07911A1002801D010A000E0B3
:1041900011A001F03BFD0948C673807A2021084335
:1041A000064988720846807AFEF726FCA672034804
:1041B000867315E0D02000002C02002000000020B3
:1041C000945C00081C040020C000002000000000D7
:1041D0004645454400000000CACED0CC0000000097
:1041E0006079401C6071FE484178FE48007C814245
:1041F00035D0FC4800790028FA4803D0017901291C
:1042000002D021E007711FE0F6480221017101F0A0
:1042100081FCA079F4A1002801D0F44801E0F34822
:10422000083001F0F3FCEF48C673817A2020014387
:10423000EC4881720120FFF7CDF8EA48807AFEF75A
:10424000DBFBA672E74886730096A97B287B1E23BA
:10425000002201F0E2FAE2484178E2480174E048C5
:104260008178E048407C81422AD0DE48807A202153
:104270000843DC4988720120FFF7ACF8D948807AFE
:10428000FEF7BAFBD748008F0023401E80B21A46C3
:10429000012101F021FBD348008FD249401E08873D
:1042A000D0483C21008FFBF723FFE880CD483C211C
:1042B000008FFBF71DFFCA4829818178C9484174E6
:1042C000C848018F002972D14776817ADF221140D8
:1042D0008172807AFEF790FB6079642867D2E88B60
:1042E0006179401E884262DA667115E7BD48C17B7C
:1042F0000029FAD0817ADF2211408172807AFEF79C
:104300007BFB0A21E07CFBF7F3FE3030C0B20122D8
:104310000B2101F023FA0A21E07CFBF7E9FE0846B5
:1043200030300122112101F019FA012216213A2020
:1043300001F014FA0A21207DFBF7DAFE3030C0B21A
:1043400001221A2101F00AFA0A21207DFBF7D0FE92
:10435000084630300122202101F000FA01222521F7
:104360003A2001F0FBF90A21E079FBF7C1FE303079
:10437000C0B20122292101F0F1F90A21E079FBF70D
:10438000B7FE08462F3001222F2101F0E7F9C3E6DE
:104390009448C07B002849D0FFF76AF8688100285C
:1043A00006D0A079002837D091A194A036E0F0E0A3
:1043B0008C48C6760677407F0028A07922D0002856
:1043C00002D091A191A001E092A193A001F01EFC66
:1043D00001222E21002001F0C1F9E8890A21FBF712
:1043E00087FE3030C0B20122322101F0B7F97D489A
:1043F0002323007B012200090090A97B287B01F088
:104400000CFA11E0002802D086A180A001E086A16C
:1044100081A001F0FBFB07E085A188A001F0F6FB7D
:1044200070480A210177C7766E48C6736D48407F91
:10443000002832D0FCF7CAFB6A497D2308654A6D23
:10444000DB00821A9A4201D98F754865887D002861
:1044500023D08E75C87D002817D0CE750096A97B15
:10446000287B2323012201F0D8F901222E210020EC
:1044700001F074F9E8890A21FBF73AFE3030C0B246
:104480000122322101F06AF907E0CF750096A97B7D
:10449000287B2323012201F0C0F95248817E0029A4
:1044A00077D0407F002807D0A079002802D05DA1F6
:1044B00056A0FDE35CA10BE000223821012001F0B1
:1044C0004DF9A079002802D05FA162A0F1E764A1B4
:1044D00051A0EEE74348877707731DE64148C07B4C
:1044E0000028FAD001F016FBA079002802D05FA1C5
:1044F00055A001E05FA161A001F088FB3948C673B7
:10450000007B34E03748C07B00280BD0A07900281E
:1045100002D056A14CA001E056A158A001F076FBB4
:104520003048C6732770E07B617C0843217C0843D8
:104530000AD02C48007E002806D00096A97B287B54
:104540002323012201F069F9FCF740FB25490865A6
:104550004A6D821AFA2A01D98F754865887D00282C
:10456000BBD08E75C87D002806D0CE75087B0009AB
:104570000090A97B287BF3E0CF750096F9E71948F6
:10458000C07B0028A9D0A079002803D03EA12EA08E
:1045900002E009E13EA139A001F038FB1148C673E1
:1045A000007B90E00F48C07B00280BD0A07900284A
:1045B00002D035A124A001E035A130A001F026FBF6
:1045C0000848C673E07B617C0843217C084367D0C0
:1045D0000448007E002863D00096A97C287C5BE01C
:1045E0001C0400200000002000000000D041000852
:1045F000504152414D45544552530000504C4541A5
:1046000053452053455400004F4E000050524F4731
:1046100052414D00C2CACB00CFD0CEC3D0C0CCCC0B
:10462000C00000004F464600C2DBCACB00000000BD
:10463000CFC0D0C0CCC5D2D0DB000000D3D1D2C017
:10464000CDCEC2C8D2C5000053455454494E47533D
:10465000000000004150504C59494E4700000000F6
:10466000CEC1D0C0C1CED2CAC000000054494D4511
:1046700000000000C2D0C5CCDF000000D3D1D2C002
:10468000CDCEC2CAC00000005354415254000000B5
:10469000D1D2C0D0D20000002323012201F0BDF806
:1046A000FCF794FAFE4908654A6D821AFA2A01D984
:1046B0008F754865887D002876D08E75C87D002866
:1046C00006D0CE75087B00090090A97C287C47E0C5
:1046D000CF750096F9E7F248C07B0028ECD0A079AE
:1046E000002802D0EFA1F14802E0F048F0A13430F8
:1046F00001F08CFAEA48C673007B2AE0A079002812
:1047000039D0E8A1E94801F081FAE548C673E07BB9
:10471000617C0843217C08430AD0E148007E0028E0
:1047200006D00096A97D287D2323012201F075F88B
:10473000FCF74CFADA4908654A6D821AFA2A1ED843
:10474000887D0028B8D08E75C87D002804D0CE752D
:10475000087B0009009001E0CF750096A97D287DB7
:104760002323C0B2012201F058F8D5E4CC48C07B25
:104770000028CCD0C2E7CD48CDA13430C3E78F7537
:104780004865DDE7C648C07B0028EED0A079002848
:1047900002D0C9A1CAA001E0CCA1CEA001F036FA96
:1047A000BF48C673007B33E02CE1BD48C07B0028C6
:1047B0000BD0A079002802D0BFA1C1A001E0C3A105
:1047C000C4A001F023FAB648C673E07B617C0843BD
:1047D000217C084309D0B248007E002805D0A87F7C
:1047E00000232A22012100F0D3FFFCF7EFF9AC49A6
:1047F00008654A6D821AFA2A01D98F754865887D45
:104800000028B2D08E75C87D002804D0CE75087BF4
:104810000309A87F02E0CF75A87F00232A22012187
:1048200064E39F48C07B002821D0A0799EA1002886
:1048300001D0ABA000E0ACA001F0E8F99848807A84
:1048400020210843964988720846807AFEF7D4F8FA
:1048500093488673C673E67426759149E6713D20C8
:10486000487408464677FBF7DFFD8D4886768C480E
:10487000A04986738978407C81426FD00A21E07C10
:10488000FBF736FC3030C0B201220B2100F066FF8E
:104890000A21E07CFBF72CFC084630300122112174
:1048A00000F05CFF012216213A2000F057FF0A2198
:1048B000207DFBF71DFC3030C0B201221A2100F030
:1048C0004DFF0A21207DFBF713FC08463030012202
:1048D000202100F043FF012225213A2000F03EFF75
:1048E0000A21E079FBF704FC3030C0B20122292113
:1048F00000F034FF0A21E079FBF7FAFB084630307C
:1049000001222F2100F02AFFE07920723C21FDF7DF
:10491000AAFFE071207A3B280DD1207D60753C21F3
:10492000FDF7A1FF2075607D3B2804D11821E07CB4
:10493000FDF799FFE0746F48817859484174827A95
:1049400020210A4382722DE25548C07B002859D0AD
:10495000A079002803D068A168A002E0FCE36AA166
:104960006BA001F053F94E48C67336E04C48C07B4B
:1049700000280BD0A079002802D05FA15FA001E041
:1049800061A163A001F042F94548C673E07B617CF8
:104990000843217C08430DD04148007E002809D0FF
:1049A000A88B0A21FBF7A4FBC0B22A2301220096A0
:1049B000FEF724FDFCF70AF9394908654A6D821AA9
:1049C000FA2A01D98F754865887D0028BFD08E7579
:1049D000C87D00280BD03248C675A88B0A21FBF78A
:1049E00087FBC0B22E4A127B1209009206E0CF75F7
:1049F000A88B0A21FBF77CFBC0B200962A23012278
:104A0000FEF7FCFC70E22648C07B00280BD0A079A2
:104A1000002802D038A139A001E03BA13CA001F060
:104A2000F5F81F48C673E07B617C0843217C08438E
:104A30000DD01B48007E002809D0A88B0A21FBF767
:104A400057FBC0B22A2301220096FEF7D7FCFCF7E1
:104A5000BDF8134908654A6D821AFA2A01D98F7583
:104A60004865887D0028CDD08E75C87D0028BED0D1
:104A70000B48C675A88B0A21FBF73AFBC0B2B1E719
:104A80000748C17B0029BDD0817ADF2211408172A5
:104A9000807AFDF7B1FFA079002843D01FA13FE045
:104AA0000000002053544F5000000000484600080A
:104AB000D1D2CECF00000000434F554E540000002D
:104AC00046454544494E475300000000C2D1C5C386
:104AD000CE000000CACED0CCCBC5CDC8C9000000E6
:104AE00052554E4E494E4700CDC5CFD0C5D0DBC242
:104AF000CDCE00001C0400204F4600004441494C2C
:104B00005920494E43000000D0CED1D220CDC00064
:104B1000D1D3D2CED7CDDBC90000000054494D001F
:104B2000F3A001E0F5A1F6A001F070F8F748142118
:104B3000007B009100090190A88CAA7E297EC0B25A
:104B4000012300F01CFFF148C6738EE3EF48C07BE1
:104B500000280BD0A079002802D0ED49E4A001E0A4
:104B6000E6A1E7A001F052F8E848C673E07B617C5B
:104B70000843217C08430DD0E448007E002809D07A
:104B8000142001960090A88CAA7E297EC0B2012331
:104B900000F0F5FEFCF71AF8DC4908654A6D821A48
:104BA000FA2A01D98F754865887D0028CDD08E7589
:104BB000C87D002802D0CE7502213BE0CF751420BD
:104BC0000196009073E0D148C07B00280BD0A079FB
:104BD000002802D0CE49C6A001E0C8A1C8A001F0BB
:104BE00015F8CA48C673E07B617C0843217C084302
:104BF0000DD0C648007E002809D0142001960090F0
:104C0000A88CAA7E297EC0B2012300F0B8FEFBF773
:104C1000DDFFBE4908654A6D821AFA2A01D98F75EF
:104C20004865887D002890D08E75C87D0028C5D045
:104C3000CE75032114200191009038E0B348C07B69
:104C400000280BD0A079002802D0B149A8A001E02B
:104C5000AAA1ABA000F0DAFFAC48C673E07B617C90
:104C60000843217C08430DD0A848007E002809D0C5
:104C7000142001960090A88CAA7E297EC0B2012340
:104C800000F07DFEFBF7A2FFA04908654A6D821A7D
:104C9000FA2A01D98F754865887D002886D08E75DF
:104CA000C87D00288AD0CE7514200197009000E0BE
:104CB000B0E2A88CAA7E297EC0B2012300F05FFE7C
:104CC000D3E29248C07B00280AD0A07991A10028A5
:104CD00001D091A000E092A000F098FF8B48C6732D
:104CE0008A48C18E491C0187BFE28848C07B0028E2
:104CF00003D18648807D00281AD0A07985A100289C
:104D000001D085A000E086A000F080FF7F48C67338
:104D10008675807A202108437C4988720846807A0B
:104D2000FDF76AFEA672794886734677FBF77CFB2F
:104D30007E4881787548407C814227D07348807ACC
:104D400020210843714988720846807AFDF754FE95
:104D50006E48008F0023401E80B21A46012100F0E9
:104D6000BBFD6A48008F6949401E088767483C219F
:104D7000008FFBF7BDF9E88064483C21008FFBF70A
:104D8000B7F96A4829818178604841745F48018F8A
:104D9000002902D0017E002992D04776817ADF2255
:104DA00011408172807AFDF727FE5EE25748C07B92
:104DB00000281CD05548C6730020FEF7F3FA5CA10A
:104DC0005EA000F023FF2E210022084600F0C6FC62
:104DD00000222A214D2000F0C1FC00223221522065
:104DE00000F0BCFC00223821552000F0B7FC4748F9
:104DF00046763AE24548C17B0029D6D0C6730020EA
:104E0000FEF7D0FAA079002802D04E494EA001E268
:104E10004C484DA11838FDE13C48C07B00284CD0DF
:104E20003A48C6730020FEF7BDFAA079002821D0C9
:104E300047A1002000F03EFC688C0300FEF796FAC4
:104E40000906080A0C0E10121416180041A131E0D0
:104E500043A12FE045A12DE047A12BE049A129E086
:104E60004BA127E04DA125E04FA123E051A121E076
:104E700053A11FE055A1002000F01CFC688C03002A
:104E8000FEF774FA0907090B0D0F11131517060029
:104E9000EEE750A10EE052A10CE054A10AE056A1A9
:104EA00008E058A106E05AA104E05CA102E05EA17E
:104EB00000E060A1012000F0FDFBFBF787FE134935
:104EC00008654A6D821AFA2A01D98F754865887D6E
:104ED000002809D08E75C87D002806D0CE75087BC5
:104EE0000309288CC0B2AFE096E1A9E0AEE0000073
:104EF000544F54414C20464545440000C2D0000068
:104F0000CACED0CC20CEC1D9C5C50000000000203B
:104F10001C4B00080000000054455354204F4E0025
:104F2000C2CACB20D2C5D1D2000000001C04002090
:104F3000464545444876312E314C00004156544F89
:104F40004B4F5200484600084D4F44425553000015
:104F500061647200737064202020323430300000AD
:104F60007370642020203438303000007370642067
:104F70002020393630300000737064202031343402
:104F8000303000007370642020313932303000003E
:104F90007370642020333834303000007370642024
:104FA00020353630303000007370642020353736BD
:104FB0003030000073706420313135323030000001
:104FC000F1EAF06F3131353230300000E0E4F0E5E5
:104FD000F1000000F1EAF0202020323430300000EF
:104FE000F1EAF0202020343830300000F1EAF020DF
:104FF0002020393630300000F1EAF02020313434FE
:1050000030300000F1EAF020203139323030000039
:10501000F1EAF0202033383430300000F1EAF0209B
:105020002035363030300000F1EAF02020353736B8
:1050300030300000F1EAF0203131353230300000FC
:10504000CF75288C0023C0B22422002100F0A0FBE1
:105050000BE1FB48C07B002868D0F948C770C673D5
:105060000020FEF79FF9A07900282BD0F5490020F9
:1050700000F020FB688C0300FEF778F90906090CA4
:105080000F1215181B1E2100EE49091D44E0ED49C1
:10509000103141E0EB491C313EE0EA4928313BE068
:1050A000E849343138E0E749403135E0E5494C31F1
:1050B00032E0E44958312FE0E24964312CE0E14923
:1050C000703129E0DF4900207C3100F0F3FA688C70
:1050D0000300FEF74BF909070A0D101316191C1FE0
:1050E0000600ECE7D749843116E0D649903113E049
:1050F000D4499C3110E0D349A8310DE0D149B431F5
:105100000AE0D049C03107E0CE49CC3104E0CD49B6
:10511000D83101E0CB49E431012000F0CBFA288CF2
:105120000023C0B22422194600F032FBFBF74EFDEB
:10513000C34908654A6D821AFA2A01D98F754865F4
:10514000887D002868D08E75C87D002807D0CE7570
:10515000A079002801D058E691E0BBA182E0CF758C
:10516000A0790028688C26D00300FEF7FFF8090616
:10517000090C0F1215181B1E2100B249091D71E000
:10518000B04910316EE0AF491C316BE0AD492831B8
:1051900068E0AC49343165E0AA49403162E0A94990
:1051A0004C315FE0A74958315CE0A649643159E0D1
:1051B000A449703156E00300FEF7D8F809070A0D3C
:1051C000101316191C1F0600F2E79E49843149E0AE
:1051D0009C49903146E09B499C3143E09949A83174
:1051E00040E09849B4313DE09649C0313AE09549F4
:1051F000CC3137E09349D83134E09249E43131E0A1
:105200008F48C17B002930D0C6730020FEF7CAF852
:1052100090A193A000F0FAFC27E08948C07B002809
:1052200008D08748C6730020FEF7BCF88BA18EA07B
:1052300000F0ECFCFBF7CAFC814908654A6D821A54
:10524000FA2A01D98F754865887D00280DD08E75A2
:10525000C87D002838D0CE75A079002801D085A15E
:1052600000E086A1012000F025FA7548817B002925
:1052700005D084498978E172A772267386737048D5
:10528000007E002829D0E07B002826D06C498F764C
:10529000087B42007C4810180A7E805C087309284D
:1052A00017D98F75182816D0252814D0112812D098
:1052B0000846C775FBF78AFC61494865087B1A28D0
:1052C00005D02A2803D006E0CF7564A1CAE7CF73C2
:1052D00001E05B4886755A4806765948017E0029E8
:1052E00008D0417B002905D08776252101730676F9
:1052F000C7734673817C002901D08674C6745048F8
:10530000407E002848D04E48807ADF2108404C4932
:1053100088720846807AFDF76FFB4948407D002877
:1053200003D047480921017304E00020FEF73AF852
:10533000434807734248C773A672267346760676BB
:105340003D2101744174207800281CD026704D49FD
:10535000287B0870A87B48700846867000224B485E
:10536000FCF78CFB364900224C314848FCF76CFABC
:10537000002244494548FCF789FA42480078A88150
:1053800040484078E8816078002802D066702C4858
:10539000C777A6722A4887742948C07F00280BD097
:1053A0002748C677A07800281BD0A670FBF73CF8EA
:1053B000FDF726F82248C7732148807800283ED0A0
:1053C0001F4886703248298C0078884208D1617B5A
:1053D0002F48FAF765FF00041949000C488703D0ED
:1053E00048E164206071E1E7294A5078032809D038
:1053F00006286AD02649127814310A708030487025
:105400008F7060E090780190002857D1D378507960
:105410000090117918180902491E40189C4614285A
:105420004CDA1B491078143108700320487000983A
:1054300040008870019900200902019136E01AE1CC
:1054400000000020504F00087370642020202020AE
:10545000202000004C414E475541474500000000C8
:10546000DFC7DBCA00000000DFC7DBCA204C414EAB
:1054700047000000454E474C49534800D0D3D1D196
:10548000CAC8C9001C040020945C0008C0000020A9
:10549000A00200200199814A091861444900430093
:1054A000695A9A181171090AD170401C00998142F9
:1054B000F0DC7A488078C01CC0B27DE07748117873
:1054C00001708321A7E0032076E07448744B143800
:1054D0008078002804D001283BD002287ED095E0B7
:1054E000D87805283CD913283AD2197900292ED129
:1054F0006C4A5979125C914229D24200A952112872
:1055000004D0062805D0072803D00DE06648C770F0
:105510000AE06648297B0170A97B417086700146CC
:1055200000226348FCF7AAFA5F484677C777C7733B
:105530005B495A480A780270062242708A78827063
:10554000CA78C2700A7902714979417133E01978D9
:1055500019E0D9788C46002903D0614601292DD065
:1055600054E01879002851D14D48407902284DD295
:10557000FDF77EFF688100280BD04B484677C77740
:10558000C7734748017845480170162141700321CF
:1055900043E04348444A41795177D777D7733F4A2C
:1055A000037813700623537083789370C378D37095
:1055B0000079107151710620009046E01979009130
:1055C000002923D11A465B79022B1FD23349127866
:1055D0000A70324A06215170114600E00AE08870D4
:1055E0006046C87000980871084643710620009014
:1055F0002D4827E0D9780091002907D119798C46E8
:10560000002903D159791A460B0008D024480178A3
:1056100014300170162141700221817053E71F4937
:1056200012780A701D4A0621517011468870009840
:10563000C87060460871084643711B480776477377
:1056400006220092C7731821017314480099FAF7D3
:1056500027FE1549642348871049009A8854009A08
:10566000000A891848701248009A0C49B430921CFC
:10567000FCF75FFE66730C48C178002901D1FEF784
:1056800078F8017B2A29FAD0C670688CC0B2FDF781
:10569000BBFD688CC0B2FDF70DF8F0E7B402002046
:1056A000A002002019650008000000201C04002052
:1056B000C0000020F3B581B004460298FAF772FDED
:1056C000C5B2B8202043FDF713FE0020FDF710FE01
:1056D0000027104E0EE0002402980621C05D4843CA
:1056E0008019005DFDF709FE641CE4B2062CF3D3BB
:1056F0007F1CFFB2AF42EED309E00024305DFDF71E
:10570000FCFD641CE4B2062CF8D36D1CEDB20A2D2E
:10571000F3D3FEBDEA5C000800B585B080200090A0
:1057200001200190002003900290052069460007A7
:10573000FBF79CF905B000BD00B585B08020009056
:105740000220019000210320039002910491052082
:1057500069460007FBF78AF905B000BD70B505463C
:10576000B82002430C46D0B2FDF7C2FDE0B2FDF70F
:10577000BFFD06204543054800242D18285DFDF790
:10578000BCFD641CE4B2062CF8D370BDEA5C0008D2
:1057900070B514460E460546002B13D0012B10D1D0
:1057A000632804D90A46A11F0120FFF7D7FF32461C
:1057B00021460120FFF7D2FF3246A11D0120FFF74D
:1057C000CDFF70BD632D07D96421FAF791FC30300D
:1057D000C0B23246A11F02E00A46A11F0120FFF716
:1057E000BDFF092D0BD964212846FAF781FC084634
:1057F0000A21FAF77DFC32462146303002E032467B
:1058000021460120FFF7AAFF0A212846FAF770FC7B
:10581000084630303246A11DD1E7FFB51F4681B0A2
:105820000B373E1D0A99B51D1C46002925D00129BC
:1058300033D002291FD10A21FAF75AFC30300091E7
:10584000C0B22146039AFFF789FF0099039A0846E0
:105850003030A11DFFF782FF39463A20039AFFF747
:105860007DFF31460120039AFFF778FF294601208A
:10587000039AFFF773FF05B0F0BD0A21FAF738FC71
:1058800030300091C0B22146039AFFF767FF0099BC
:10589000039A08463030A11D07E019460120039AFB
:1058A000FFF75CFFA11D0120039AFFF757FF394660
:1058B0003A20039AFFF752FF0A210298FAF718FCE0
:1058C0000C463030C0B23146039AFFF747FF2046FE
:1058D00030302946039ACCE7FFB5E12181B0144668
:1058E0000901FAF705FCC7B208463C21FAF700FCAB
:1058F000C6B20D460A213846FAF7FAFB0F46303099
:10590000C0B22146029AFFF729FF38463030A11D68
:10591000029AFFF723FF21460B313A20029AFFF744
:105920001DFF0A213046FAF7E3FB0E4630302146D0
:10593000C0B20F31029AFFF711FF304621463030D6
:105940001531029AFFF70AFF21461A313A20029ACE
:10595000FFF704FF0A212846FAF7CAFB0D4630304C
:105960002146C0B21E31029AFFF7F8FE28462146B2
:1059700030302431029AFFF7F1FE05B0F0BDFFB5DB
:1059800085B00E9C024621460B310291091D8F1DE8
:1059900001910F987E1D1531351D009100283ED0D4
:1059A000012861D002287ED0032836D10A21104672
:1059B000FAF79EFB03913030C0B22146089AFFF7F8
:1059C000CDFE0399089A08463030A11DFFF7C6FEA8
:1059D0003A20089A0299FFF7C1FE0A210698FAF7C1
:1059E00087FB0C463030C0B2089A0199FFF7B6FE2B
:1059F000204630303946089AFFF7B0FE31463A204B
:105A0000089AFFF7ABFE29460120089AFFF7A6FE89
:105A10000120089A0099FFF7A1FE09B0F0BD0A2104
:105A20001046FAF765FB03913030C0B22146089A60
:105A3000FFF794FE0399089A08463030A11DFFF73E
:105A40008DFE3A20089A0299FFF788FE0A210698EF
:105A5000FAF74EFB0C463030C0B2089A0199FFF7B6
:105A60007DFE204630301BE021460120089AFFF7DA
:105A700075FEA11D0120089AFFF770FE3A20089AD2
:105A80000299FFF76BFE0A210698FAF731FB0C46E4
:105A90003030C0B2089A0199FFF760FE20463030DE
:105AA0003946089A00E016E0FFF758FE31463A20E2
:105AB000089AFFF753FE0A210798FAF719FB0C46DC
:105AC0003030C0B22946089AFFF748FE20463030F1
:105AD000089A00999FE70A211046FAF709FB0391FB
